:020000040800F2
:10000000B820002089010008910100089301000830
:100010009501000897010008990100080000000000
:100020000000000000000000000000009B0100082C
:100030009D010008000000009F010008A1010008C8
:10004000A3010008A3010008A3010008A301000800
:10005000A3010008A3010008A3010008A3010008F0
:10006000A3010008A3010008A3010008A3010008E0
:10007000A3010008A3010008A3010008A3010008D0
:10008000A3010008A3010008A3010008A3010008C0
:10009000A3010008A3010008A3010008610E0008E5
:1000A000A3010008A3010008A3010008A3010008A0
:1000B000F50F0008A3010008D50E0008A3010008F1
:1000C000A3010008A3010008A3010008A301000880
:1000D000A30100087D380008A3010008A30100085F
:1000E000A3010008A3010008A301000800F002F822
:1000F00000F03AF80AA090E8000C82448344AAF188
:100100000107DA4501D100F02FF8AFF2090EBAE885
:100110000F0013F0010F18BFFB1A43F0010318473B
:10012000BC7A0000DC7A0000103A24BF78C878C19D
:10013000FAD8520724BF30C830C144BF04680C60ED
:10014000704700000023002400250026103A28BF35
:1001500078C1FBD8520728BF30C148BF0B60704739
:100160001FB51FBD10B510BD03F0CAFC1146FFF747
:10017000F7FF01F097FB03F0E8FC03B4FFF7F2FF91
:1001800003BC03F0EFFC0000094880470948004722
:10019000FEE7FEE7FEE7FEE7FEE7FEE7FEE7FEE737
:1001A000FEE7FEE704480549054A064B7047000094
:1001B00005320008ED000008B8100020B82000202B
:1001C000B8180020B818002083B04FF60040C0F6E1
:1001D0000000019041F2AA00C2F20000009000204D
:1001E000ADF80A00FFE7BDF80A00012811DCFFE7BF
:1001F0000198BDF80A1050F821000099BDF80A20B6
:1002000041F82200FFE7BDF80A000130ADF80A000E
:10021000E9E703B0704700BF80B584B04FF60040F7
:10022000C0F60000029041F2AA00C2F20000019064
:1002300001F044FC029801F075FC00208DF80F00DD
:10024000FFE79DF80F00012811DCFFE702989DF8F9
:100250000F2000EB8200019951F8221001F0EEFD11
:10026000FFE79DF80F0001308DF80F00E9E701F07E
:1002700045FC04B080BD00BF41F21C01C4F2020184
:10028000086840F48000086041F21801C4F20201DD
:10029000086840F00800086040F60441C4F201011B
:1002A000086820F470600860086840F41060086016
:1002B000086820F470400860086840F41040086046
:1002C00045F60001C4F20001088840F400400880AF
:1002D00008886FF3DF30088045F61C02C4F2000284
:1002E000B420108045F62002C4F2000213201080D2
:1002F00045F60402C4F20002108840F03800108075
:10030000088840F001000880704700BF81B08DF878
:1003100003008DF8021045F60001C4F200010888C0
:1003200040F480700880FFE745F61400C4F2000036
:100330000088C00708B9FFE7F6E79DF80300400012
:1003400045F61001C4F200010880FFE745F61400ED
:10035000C4F2000000888007002801D4FFE7F5E719
:1003600045F61800C4F2000000889DF8020045F62A
:100370001001C4F200010880FFE745F61400C4F242
:10038000000000880006002801D4FFE7F5E745F6E5
:100390000001C4F20001088840F40070088001B038
:1003A000704700BF80B58EB040F2A500C2F20000D9
:1003B000007840F20801C2F20001097888420DD0AD
:1003C000FFE702F0C5FA40F2A500C2F20000007893
:1003D00040F20801C2F200010870FFE740F2A500F8
:1003E000C2F20000007801460791032800F2BD82A6
:1003F0000799DFE811F004005E018D011B0247F64A
:10040000F623C0F60003142100220692104602F0E3
:1004100039FC069840F21501C2F20001097848F251
:100420001F52C5F2EB12A1FB0221B0EB511F04D108
:10043000FFE720208DF824000FE040F21500C2F203
:100440000000007848F21F51C5F2EB11A0FB01102B
:10045000400930308DF82400FFE740F21500C2F269
:100460000000007848F21F51C5F2EB11A0FB01011A
:100470000020B0EB511F1ED1FFE740F21500C2F281
:100480000000027848F21F50C5F2EB10A2FB0010EA
:100490004009642100FB11204CF6CD41CCF6CC4143
:1004A000A0FB01010020B0EBD10F04D1FFE7202019
:1004B0008DF825001AE040F21500C2F20000027823
:1004C00048F21F50C5F2EB10A2FB00104009642156
:1004D00000FB11204CF6CD41CCF6CC41A0FB010134
:1004E000302000EBD1008DF82500FFE740F2150029
:1004F000C2F2000000784CF6CD41CCF6CC41A0FB16
:100500000121C90801EB8101A0EB410040F030005E
:100510008DF82600002205928DF827201E20142138
:10052000049109AB02F0AEFB0499059A47F6D72374
:10053000C0F600032D2002F0A5FB40F28B00C2F2B2
:100540000000007850B9FFE747F63A23C0F60003F1
:1005500000210122084602F095FB1CE040F28B00CE
:10056000C2F20000007801280AD1FFE747F63523E0
:10057000C0F6000300210122084602F083FB09E0D7
:1005800047F65523C0F6000300210122084602F079
:1005900079FBFFE7FFE740F28000C2F2000000783D
:1005A00050B9FFE747F60833C0F6000300202D21BD
:1005B000012202F067FB7BE040F28000C2F2000003
:1005C000007801280AD1FFE747F62633C0F600037A
:1005D00000202D21012202F055FB68E040F280004E
:1005E000C2F20000007802280AD1FFE747F62C3358
:1005F000C0F6000300202D21012202F043FB55E04C
:1006000040F28000C2F20000007803280AD1FFE720
:1006100047F61A33C0F6000300202D21012202F014
:1006200031FB42E040F28000C2F200000078042872
:100630000AD1FFE747F60E33C0F6000300202D2154
:10064000012202F01FFB2FE040F28000C2F2000006
:10065000007805280AD1FFE747F6E823C0F6000333
:1006600000202D21012202F00DFB1CE040F2800051
:10067000C2F20000007806280AD1FFE747F61433DB
:10068000C0F6000300202D21012202F0FBFA09E050
:1006900047F62033C0F6000300202D21012202F08E
:1006A000F1FAFFE7FFE7FFE7FFE7FFE7FFE7FFE715
:1006B0005BE140F28B00C2F20000007850B9FFE726
:1006C00047F63A23C0F6000350201421002202F01E
:1006D000D9FA1CE040F28B00C2F200000078012839
:1006E0000AD1FFE747F63523C0F600035020142156
:1006F000002202F0C7FA09E047F65523C0F60003CE
:1007000050201421002202F0BDFAFFE7FFE72CE1A0
:1007100040F28000C2F20000007850B9FFE747F6CF
:10072000FD23C0F6000300201921012202F0AAFADD
:100730007BE040F28000C2F20000007801280AD17C
:10074000FFE747F65A23C0F60003002019210122D3
:1007500002F098FA68E040F28000C2F200000078EF
:1007600002280AD1FFE747F66523C0F60003002000
:100770001921012202F086FA55E040F28000C2F20F
:100780000000007803280AD1FFE747F64A23C0F6A5
:10079000000300201921012202F074FA42E040F225
:1007A0008000C2F20000007804280AD1FFE747F673
:1007B0007B23C0F6000300201921012202F062FA17
:1007C0002FE040F28000C2F20000007805280AD134
:1007D000FFE747F67023C0F600030020192101222D
:1007E00002F050FA1CE040F28000C2F200000078F3
:1007F00006280AD1FFE747F68623C0F6000300204B
:100800001921012202F03EFA09E047F63F23C0F623
:10081000000300201921012202F034FAFFE7FFE76C
:10082000FFE7FFE7FFE7FFE7FFE79EE047F6EE237E
:10083000C0F60003142100220392104602F022FAAF
:10084000039840F27901C2F20001097848F21F5280
:10085000C5F2EB12A1FB0221B0EB511F04D1FFE75F
:1008600020208DF820000FE040F27900C2F2000055
:10087000007848F21F51C5F2EB11A0FB01104009AE
:1008800030308DF82000FFE740F27900C2F200001E
:10089000007848F21F51C5F2EB11A0FB01010020C6
:1008A000B0EB511F1ED1FFE740F27900C2F2000009
:1008B000027848F21F50C5F2EB10A2FB001040096D
:1008C000642100FB11204CF6CD41CCF6CC41A0FBBD
:1008D00001010020B0EBD10F04D1FFE720208DF8FB
:1008E00021001AE040F27900C2F20000027848F2DA
:1008F0001F50C5F2EB10A2FB00104009642100FB61
:1009000011204CF6CD41CCF6CC41A0FB01013020AA
:1009100000EBD1008DF82100FFE740F27900C2F230
:10092000000000784CF6CD41CCF6CC41A0FB012173
:10093000C90801EB8101A0EB410040F030008DF8C7
:100940002200002202928DF82320232014210191FD
:1009500008AB02F097F90199029A47F6D723C0F63F
:100960000003342002F08EF9FFE70EB080BD00BF17
:1009700080B582B002F07CFF8DF807009DF807007B
:10098000002800F0C680FFE79DF807000138014607
:1009900000911C2800F2BC800099DFE801F00F19DB
:1009A000232D37414B555F69737DB9B9B9B9B9B9D1
:1009B000B9B9B9B9B9B987919BA5AF0047F6323338
:1009C000C0F6000305210022104602F05BF99FE00B
:1009D00047F6C033C0F6000305210022104602F09E
:1009E00051F995E047F64F33C0F600030521002288
:1009F000104602F047F98BE047F6A433C0F6000337
:100A000005210022104602F03DF981E047F66B33E4
:100A1000C0F6000305210022104602F033F977E00A
:100A200047F65D33C0F6000305210022104602F0B0
:100A300029F96DE047F6B233C0F600030521002224
:100A4000104602F01FF963E047F67933C0F6000361
:100A500005210022104602F015F959E047F68733C8
:100A6000C0F6000305210022104602F00BF94FE00A
:100A700047F6CE33C0F6000305210022104602F0EF
:100A800001F945E047F64033C0F600030521002296
:100A9000104602F0F7F83BE047F69533C0F6000346
:100AA00005210022104602F0EDF831E047F69123CF
:100AB000C0F6000305210022104602F0E3F827E00B
:100AC00047F69F23C0F6000305210022104602F0DE
:100AD000D9F81DE047F6C923C0F60003052100221E
:100AE000104602F0CFF813E047F6BB23C0F6000330
:100AF00005210022104602F0C5F809E047F6AD23B3
:100B0000C0F6000305210022104602F0BBF8FFE703
:100B1000FFE702B080BD00BF84B08DF80F009DF8E4
:100B20000F00002846D0FFE740F2A500C2F2000007
:100B300000780146029140B1FFE70298012815D0E4
:100B4000FFE70298022823D033E040F20100C2F20E
:100B500000000078632808DCFFE740F20101C2F2E0
:100B60000001087801300870FFE722E040F2000140
:100B7000C2F20001087801304AF6AB22CAF6AA2276
:100B8000A0FB0232520802EB4202801A087010E009
:100B900040F27800C2F200000078062808DCFFE787
:100BA00040F27801C2F20001087801300870FFE7D6
:100BB000FFE74CE040F2A500C2F2000000780146D9
:100BC000019140B1FFE70198012815D0FFE7019896
:100BD00002282AD03AE040F20100C2F20000007878
:100BE000012808DBFFE740F20101C2F200010878AA
:100BF00001380870FFE729E040F20000C2F200006F
:100C0000007818B9FFE70220009007E040F20000EA
:100C1000C2F20000007801380090FFE7009840F22F
:100C20000001C2F20001087010E040F27800C2F248
:100C300000000078012808DBFFE740F27801C2F2EB
:100C40000001087801380870FFE7FFE7FFE740F28E
:100C5000A601C2F200010120087004B0704700BF75
:100C600080B584B040F2A800C2F20000007878B1EC
:100C7000FFE7AF2001F0CCFD40F2A801C2F2000175
:100C80000020087040F28401C2F200010860D9E03F
:100C900040F62400C4F200000088ADF80E000020E9
:100CA0008DF80D00FFE740F60800C4F2010000686F
:100CB000400600282ED4FFE740F62400C4F20000CE
:100CC0000088ADF80A00BDF80A00BDF80E10884291
:100CD00007DBFFE7BDF80A00BDF80E10401A0190CF
:100CE00009E0BDF80A00BDF80E10401A42F210717A
:100CF00008440190FFE70198ADF80800BDF808002E
:100D000040F2DC51884204DBFFE701208DF80D0042
:100D100000E0C8E79DF80D0000286FD0FFE79DF8C0
:100D20000D0000285DD0FFE7FFE740F60800C4F2A1
:100D3000010000684006002802D4FFE700BFF4E786
:100D400040F2A500C2F20000007858B9FFE740F277
:100D50001500C2F20000007841F2AA01C2F20001BF
:100D6000C8703BE040F2A500C2F200000078012804
:100D70000BD1FFE740F28B00C2F20000007841F295
:100D8000AA01C2F20001087027E040F2A500C2F2F9
:100D90000000007802280BD1FFE740F28000C2F289
:100DA0000000007841F2AA01C2F20001487013E08D
:100DB00040F2A500C2F20000007803280BD1FFE743
:100DC00040F27900C2F20000007841F2AA01C2F2BA
:100DD00000010871FFE7FFE7FFE7FFE7FFF71CFAF5
:100DE000FFE7FFE740F60800C4F201000068400694
:100DF000002802D4FFE700BFF4E723E09DF80D00D0
:100E0000F8B9FFE740F2A401C2F200010120087026
:100E100040F2A500C2F200000178013101700078B3
:100E2000042807DBFFE740F2A501C2F20001002021
:100E30000870FFE740F2A601C2F20001012008702D
:100E4000FFE7FFE704B080BD81B08DF803009DF897
:100E50000300012801D1FFE700E0FFE701B0704780
:100E600080B540F21440C4F201000068400600283A
:100E700017D5FFE740F21441C4F201014020086099
:100E800040F62400C4F20000008840F27C01C2F267
:100E90000001088040F27B01C2F2000101200870CD
:100EA000FFE740F21440C4F2010000688006002809
:100EB0000FD5FFE740F21441C4F201012020086081
:100EC00040F29401C2F200010120087002F014FD0A
:100ED000FFE780BD80B582B040F61000C4F200008C
:100EE0000088C007002800F08380FFE740F610016B
:100EF000C4F20001088820F00100088040F284005C
:100F0000C2F200000068A8B1FFE740F28400C2F21C
:100F10000000006840F20C01C2F20001096888423A
:100F200008D2FFE740F28401C2F2000108680130F4
:100F30000860FFE740F2A000C2F200000068A8B11C
:100F4000FFE740F2A000C2F20000006840F210018A
:100F5000C2F200010968884208D2FFE740F2A0010E
:100F6000C2F20001086801300860FFE740F27B0030
:100F7000C2F200000078D0B3FFE740F62400C4F2CC
:100F800000000088ADF80600BDF8060040F27C01C4
:100F9000C2F20001098888420ADBFFE7BDF80600BB
:100FA00040F27C01C2F200010988401A00900CE076
:100FB000BDF8060040F27C01C2F200010988401A27
:100FC00042F2107108440090FFE70098ADF8040069
:100FD000BDF80400012809DBFFE740F27B01C2F203
:100FE000000100200870FFF73BFEFFE7FFE7FFE787
:100FF00002B080BD80B58AB01020C4F20000008825
:10100000C007002800F06F81FFE71021C4F2000143
:10101000088820F00100088040F2A800C2F2000019
:10102000007878B1FFE7AF2001F0F2FB40F2A801B1
:10103000C2F200010020087040F28401C2F20001F7
:1010400008604FE140F28401C2F200010020086014
:1010500002F0E6FA40F27F01C2F20001087040F2AD
:10106000A400C2F200000078002800F0BF80FFE773
:1010700040F27F00C2F200000078002854D0FFE761
:1010800040F2A500C2F20000007801460991032851
:1010900049D80999DFE801F00213253640F215001E
:1010A000C2F200000078FE2808DCFFE740F21501DC
:1010B000C2F20001087801300870FFE733E040F227
:1010C0008B01C2F20001087801304AF6AB22CAF661
:1010D000AA22A0FB0232520802EB4202801A0870D8
:1010E00021E040F28000C2F200000078062808DC0F
:1010F000FFE740F28001C2F2000108780130087079
:10110000FFE710E040F27900C2F200000078B0285A
:1011100008DCFFE740F27901C2F2000108780130F3
:101120000870FFE7FFE75AE040F2A500C2F20000B6
:10113000007801460891032850D80899DFE801F0AB
:1011400002132C3D40F21500C2F200000078012885
:1011500008DBFFE740F21501C2F200010878013810
:101160000870FFE73AE040F28B00C2F2000000781E
:1011700018B9FFE70220079007E040F28B00C2F2A7
:101180000000007801380790FFE7079840F28B01D4
:10119000C2F20001087021E040F28000C2F20000BB
:1011A0000078012808DBFFE740F28001C2F200016D
:1011B000087801380870FFE710E040F27900C2F2C9
:1011C000000000784E2808DBFFE740F27901C2F208
:1011D0000001087801380870FFE7FFE7FFE740F2F9
:1011E000A601C2F20001012008707AE040F27F00FF
:1011F000C2F200000078002846D1FFE740F27E00EE
:10120000C2F2000000780146069103283BD80699F7
:10121000DFE801F002101D2B40F27E01C2F2000156
:10122000012005900870002002F06AFA059802F08B
:1012300077FA28E040F27E01C2F200010220087035
:10124000012002F05DFA002002F06AFA1BE040F291
:101250007E01C2F20001032008700020049002F019
:101260004FFA049802F05CFA0DE040F27E01C2F2FF
:101270000001002008700120039002F041FA039859
:1012800002F04EFAFFE72BE040F28A00C2F20000C3
:1012900000780146029120B1FFE7029801280FD0A3
:1012A0001DE040F28A00C2F20000019001210170AD
:1012B000007802F0F5F90198007801F005FA0EE0E7
:1012C00040F28A00C2F20000009000210170007814
:1012D00002F0E6F90098007801F0F6F9FFE7FFE781
:1012E000FFE7FFE7FFE70AB080BD00BF81B08DF8E0
:1012F00003008DF802108DF80120FFE745F6180075
:10130000C4F2000000888007002801D5FFE7F5E758
:1013100045F60001C4F20001088840F4807008809E
:10132000FFE745F61400C4F200000088C00708B9C2
:10133000FFE7F6E79DF80300400045F61001C4F210
:1013400000010880FFE745F61400C4F200000088A1
:101350008007002801D4FFE7F5E745F61800C4F23E
:10136000000000889DF8020045F61001C4F200015B
:101370000880FFE745F61400C4F20000008800066C
:10138000002801D4FFE7F5E79DF8010045F61001BC
:10139000C4F200010880FFE745F61400C4F2000023
:1013A00000880006002801D4FFE7F5E745F60001B4
:1013B000C4F20001088840F40070088001B0704752
:1013C00080B582B08DF8070000208DF806009DF8EA
:1013D000070040018DF806009DF8060040F00C0063
:1013E0008DF806009DF8070040F28001C2F200016E
:1013F00008709DF8062048200721FFF777FF02B00C
:1014000080BD00BF80B582B08DF8070000208DF848
:1014100006009DF8070001460091012808D0FFE76B
:101420000098022808D0FFE70098032808D00BE0B6
:1014300000208DF806000BE040208DF8060007E044
:1014400050208DF8060003E000208DF80600FFE72D
:101450009DF8070040F28B01C2F2000108709DF870
:10146000062048200121FFF741FF02B080BD00BFE8
:1014700080B540F21400C2F20000007848B9FFE7DE
:1014800040F21401C2F200010120087001F060FA7C
:10149000FFE7322001F050F847F6DA23C0F60003E8
:1014A00005210022104601F0EDFB80BD80B582B021
:1014B000019001980090022800F08980FFE70098D1
:1014C000072856D0FFE70098082869D0FFE7009862
:1014D0000B280DD0FFE700980D2820D0FFE70098DB
:1014E0005D2833D0FFE700985E2800F0898097E000
:1014F00040F21500C2F200000078FD2808DCFFE78A
:1015000040F21501C2F20001087802300870FFE7CE
:1015100040F2A601C2F200010120087080E040F212
:101520001500C2F200000078012808DBFFE740F256
:101530001501C2F20001087802380870FFE740F296
:10154000A601C2F200010120087069E040F2A70084
:10155000C2F200000178B1FA81F149090170007806
:10156000FFF772FC40F2A601C2F2000101200870F0
:1015700056E040F27900C2F200000078B02808DCA2
:10158000FFE740F27901C2F20001087801300870EB
:10159000FFE740F2A601C2F20001012008703FE01F
:1015A00040F27900C2F2000000784E2808DBFFE725
:1015B00040F27901C2F20001087801380870FFE7B3
:1015C00040F2A601C2F200010120087028E040F2BA
:1015D0008B01C2F20001087801304AF6AB22CAF64C
:1015E000AA22A0FB022303F0FE0202EB5302801AA0
:1015F000087040F2A601C2F20001012008700FE05D
:1016000040F28001C2F200010878013000F00700CA
:10161000087040F2A601C2F2000101200870FFE745
:1016200040F29801C2F200010020087002B080BDB3
:1016300080B584B08DF80F008DF80E10ADF80C2039
:10164000152001F0E5F89DF80F0001F0D7F89DF89E
:101650000F003130C0B201F0D1F8752001F0D8F898
:101660009DF80E0001F0CAF89DF80E001730C0B2C8
:1016700001F0C4F85C2001F0CBF800208DF80B00DD
:10168000FFE79DF80B00172861DCFFE700208DF8CD
:101690000A00FFE79DF80A00042851DCFFE79DF8E7
:1016A0000A0047F2E442C0F600029C2100FB012040
:1016B0000430019000208DF80300FFE79DF803003F
:1016C000122833DCFFE700208DF8020001989DF816
:1016D000031050F831009DF80B10C840C00738B116
:1016E000FFE79DF8020040F0F0008DF80200FFE7F0
:1016F00001989DF8031000EBC10040689DF80B10A5
:10170000C840C00738B1FFE79DF8020040F00F0065
:101710008DF80200FFE79DF8020001F06FF8FFE787
:101720009DF8030001308DF80300C7E7002001F0A9
:1017300065F8FFE79DF80A0001308DF80A00A9E777
:10174000FFE79DF80B0001308DF80B0099E7BDF81D
:101750000C0000F0F1FE01F0FBF804B080BD00BF0A
:1017600080B582B041F21801C4F20201086840F06D
:101770000800086040F60042C4F20102106820F43C
:1017800070001060106840F40000106040F60C42D9
:10179000C4F20102106840F020001060086840F0B8
:1017A000010008600C21C4F20101086820F0F0007B
:1017B0000860086840F01000086040F20041C4F280
:1017C0000101086840F02000086040F20C41C4F2BA
:1017D0000101086840F02000086040F20841C4F2AE
:1017E0000101086820F0200008601720019000F037
:1017F00025F80198012100F033F841F21C01C4F2F0
:101800000201086840F00200086040F22841C4F27A
:10181000000140F2CF20088040F22C41C4F20001C8
:101820004FF6FF70088040F20041C4F200010888C2
:1018300040F00100088002B080BD00BF81B08DF88B
:1018400003009DF9031001F01F02012090404A0996
:101850004EF20011CEF2000141F8220001B07047B3
:1018600082B08DF8070000919DF90700B0F1FF3FAD
:101870000CDCFFE7009800019DF8071001F00F0154
:101880004EF61452CEF20002885409E0009800018E
:101890009DF907104EF20042CEF200028854FFE795
:1018A00002B0704780B584B0002003904FF600402E
:1018B000C0F600000068013080B9FFE741F2AA01DC
:1018C000C2F200010020087048701F20887050206C
:1018D000C8707F200871FEF79FFCFFE7FEF774FCDD
:1018E00041F2AA00C2F20000017840F28B02C2F27B
:1018F00000021170417840F28002C2F200021170C1
:10190000C17840F21502C2F200021170007940F273
:101910007901C2F20001087000F0CCFD00F034FE45
:1019200001F0CCFD01F086FE01F00AFFFEF7A4FCF9
:10193000FFF716FF00F0A4FF41F21C01C4F2020100
:10194000086840F00400086040F20400C2F20000A1
:10195000006841F25971CDF2B711A0FB01014FF0BF
:10196000FF3000EB513040F62801C4F2000108803E
:1019700040F62C01C4F2000142F21070088040F6DB
:101980000C01C4F20001088840F00100088040F614
:101990000001C4F20001088840F0010008801E2008
:1019A000FFF74CFF41F21801C4F20201086840F051
:1019B0001000086041F20401C4F20101086820F43B
:1019C00070000860086840F48010086041F20C0163
:1019D000C4F20101086820F4005008600120019061
:1019E00000F062FE232014214FF47A72FFF720FEEC
:1019F00001980021ADF80A1040F2A601C2F20001E0
:101A0000087040F2A401C2F200010870FFE740F242
:101A1000A600C2F20000007848B1FFE740F2A6013C
:101A2000C2F2000100200870FEF7BCFCFFE740F2A4
:101A30009800C2F20000007840B1FFE740F2990040
:101A4000C2F200008078FFF731FDFFE7DFE700001A
:101A500082B001900020009042F20001C4F2020125
:101A600008680090009800F038000090019A0098F3
:101A7000104300900098086002B0704781B0009059
:101A800042F20001C4F20201086820F00800086078
:101A9000009A08681043086001B0704781B0009058
:101AA00042F20001C4F20201086820F01000086050
:101AB000009A08681043086001B0704742F20401C0
:101AC000C4F2020140F22310C4F26750086048F6E5
:101AD000AB10CCF6EF500860704700BF42F2040133
:101AE000C4F2020140F22310C4F26750086048F6C5
:101AF000AB10CCF6EF500860704700BF42F2100107
:101B0000C4F20201086840F080000860704700BF1E
:101B100042F21001C4F20201086840F0800008603F
:101B2000704700BF80B584B0039004208DF80B008F
:101B30004FF4302000F02CF88DF80B009DF80B00CE
:101B4000042820D1FFE742F21001C4F20201019102
:101B5000086840F002000860039842F21402C4F2E0
:101B600002021060086840F0400008604FF4302026
:101B700000F00EF801998DF80B00086841F6FD722F
:101B800010400860FFE79DF80B0004B080BD00BF67
:101B900080B584B0039004208DF80B0000F056FC53
:101BA0008DF80B00FFE79DF80B1000200129019034
:101BB00006D1FFE70398002818BF01200190FFE736
:101BC0000198C00740B1FFE700F040FC8DF80B0022
:101BD000039801380390E6E7039820B9FFE7052052
:101BE0008DF80B00FFE79DF80B0004B080BD00BF2F
:101BF00080B582B004208DF807004FF43020FFF745
:101C0000C7FF8DF807009DF8070004281AD1FFE7E9
:101C100042F21001C4F202010091086840F0040091
:101C20000860086840F0400008604FF43020FFF77B
:101C3000AFFF00998DF80700086841F6FB7210406D
:101C40000860FFE79DF8070002B080BD80B582B054
:101C500004208DF807004FF4302000F025F88DF8AF
:101C600007009DF8070004281AD1FFE742F210018F
:101C7000C4F202010091086840F00400086008689E
:101C800040F0400008604FF4302000F00DF800995B
:101C90008DF80700086841F6FB7210400860FFE706
:101CA0009DF8070002B080BD80B584B00390042089
:101CB0008DF80B0000F0CAFB8DF80B00FFE79DF8D4
:101CC0000B1000200129019006D1FFE7039800289E
:101CD00018BF01200190FFE70198C00740B1FFE75E
:101CE00000F0B4FB8DF80B00039801380390E6E791
:101CF000039820B9FFE705208DF80B00FFE79DF85A
:101D00000B0004B080BD00BF80B582B0A520ADF847
:101D1000060004208DF8050000F076F820B1FFE7FA
:101D20000020ADF80600FFE74FF43020FFF730FF4A
:101D30008DF805009DF80500042860D1FFE742F208
:101D40000801C4F2020140F22310C4F26750086097
:101D500048F6AB10CCF6EF50086042F21001C4F226
:101D60000201086840F020000860086840F0400068
:101D700008604FF43020FFF70BFF8DF805009DF849
:101D8000050004282AD1FFE742F21001C4F2020143
:101D9000086841F6DF7210400860086840F01000E3
:101DA0000860BDF806004FF60001C1F6FF7108801B
:101DB0004FF40050FFF7ECFE8DF805009DF805008C
:101DC00005280AD0FFE742F21001C4F202010868B8
:101DD00041F6EF7210400860FFE70FE09DF8050044
:101DE00005280AD0FFE742F21001C4F20201086898
:101DF00041F6EF7210400860FFE7FFE7FFE79DF84C
:101E0000050002B080BD00BF81B000208DF8030046
:101E100042F21C00C4F2020000688007002804D5CA
:101E2000FFE701208DF8030003E000208DF8030098
:101E3000FFE79DF8030001B0704700BF80B584B094
:101E40000390029104208DF80700002000904FF4C9
:101E50000050FFF79DFE8DF807009DF8070004284D
:101E600038D1FFE742F21001C4F20201086840F0E5
:101E7000010008600298039908804FF40050FFF7B2
:101E800087FE8DF807009DF80700042817D1FFE7AB
:101E9000039802300090BDF80A00009908804FF4C2
:101EA0000050FFF775FE8DF8070042F21001C4F2F2
:101EB0000201086841F6FE721040086009E042F233
:101EC0001001C4F20201086841F6FE721040086079
:101ED000FFE7FFE79DF8070004B080BD80B584B040
:101EE0000390ADF80A1004208DF809004FF400505B
:101EF000FFF74EFE8DF809009DF8090004281AD15D
:101F0000FFE742F21001C4F202010191086840F0BB
:101F100001000860BDF80A00039908804FF40050E2
:101F2000FFF736FE01998DF80900086841F6FE7248
:101F300010400860FFE79DF8090004B080BD00BFB5
:101F400080B582B001908DF8031004208DF8020056
:101F50004FF40050FFF71CFE8DF802009DF80200C0
:101F6000042830D1FFE742F20801C4F2020140F236
:101F70002310C4F26750086048F6AB10CCF6EF505F
:101F8000086042F21001C4F20201086840F010003B
:101F900008609DF80300019908804FF40050FFF796
:101FA000F7FD8DF802009DF8020005280AD0FFE732
:101FB00042F21001C4F20201086841F6EF721040CB
:101FC0000860FFE7FFE79DF8020002B080BD00BF98
:101FD00080B584B003904FF6FF70ADF80A00ADF8FD
:101FE0000800ADF80600ADF8040004208DF80300E9
:101FF0000398C04303909DF80C00ADF80A009DF8CB
:102000000D00ADF808009DF80E00ADF806009DF833
:102010000F00ADF804004FF40050FFF7B9FD8DF844
:1020200003009DF80300042840F08280FFE742F29D
:102030000801C4F2020140F22310C4F267500860A4
:1020400048F6AB10CCF6EF50086042F21001C4F233
:102050000201086840F010000860BDF80A00FF287F
:102060000ED0FFE7BDF80A004FF60801C1F6FF7178
:1020700008804FF40050FFF78BFD8DF80300FFE759
:102080009DF80300042813D1FFE7BDF80800FF28DE
:102090000ED0FFE7BDF808004FF60A01C1F6FF7148
:1020A00008804FF40050FFF773FD8DF80300FFE741
:1020B0009DF80300042813D1FFE7BDF80600FF28B0
:1020C0000ED0FFE7BDF806004FF60C01C1F6FF7118
:1020D00008804FF40050FFF75BFD8DF80300FFE729
:1020E0009DF80300042813D1FFE7BDF80400FF2882
:1020F0000ED0FFE7BDF804004FF60E01C1F6FF71E8
:1021000008804FF40050FFF743FD8DF80300FFE710
:102110009DF8030005280AD0FFE742F21001C4F23F
:102120000201086841F6EF7210400860FFE7FFE720
:102130009DF8030004B080BD80B582B08DF8070023
:1021400004208DF806004FF43020FFF721FD8DF8B4
:1021500006009DF8060004286BD1FFE742F2080153
:10216000C4F2020140F22310C4F26750086048F63E
:10217000AB10CCF6EF50086042F21001C4F202013D
:10218000086840F020000860086840F040000860DF
:102190004FF43020FFF7FCFC8DF806009DF8060098
:1021A000042835D1FFE742F21001C4F202010868A9
:1021B00041F6DF7210400860086840F010000860C7
:1021C0009DF8070038B1FFE74FF60001C1F6FF7137
:1021D0000020088006E04FF60001C1F6FF71A5203F
:1021E0000880FFE74FF43020FFF7D2FC8DF806009F
:1021F0009DF8060005280AD0FFE742F21001C4F25C
:102200000201086841F6EF7210400860FFE70FE036
:102210009DF8060005280AD0FFE742F21001C4F23B
:102220000201086841F6DF7210400860FFE7FFE72F
:10223000FFE79DF8060002B080BD00BF80B582B008
:10224000ADF80600ADF80410ADF8022004208DF8BA
:10225000010042F20801C4F2020140F22310C4F26C
:102260006750086048F6AB10CCF6EF5008604FF4AA
:102270000050FFF78DFC8DF801009DF80100042847
:102280002DD1FFE742F21001C4F20201086840F0CC
:1022900010000860BDF80610BDF80420BDF802006B
:1022A0001043084340F0F8004FF60201C1F6FF71F9
:1022B00008804FF40050FFF76BFC8DF801009DF88B
:1022C000010005280AD0FFE742F21001C4F2020122
:1022D000086841F6EF7210400860FFE7FFE79DF8DD
:1022E000010002B080BD00BF42F21C00C4F2020037
:1022F00000688008704700BF42F22000C4F202006C
:102300000068704781B000208DF8030042F20000A1
:10231000C4F2020000688006002804D5FFE701200F
:102320008DF8030003E000208DF80300FFE79DF81F
:10233000030001B0704700BF82B001908DF8031018
:102340009DF8030048B1FFE7019A42F21001C4F280
:10235000020108681043086008E0019A42F2100187
:10236000C4F20201086890430860FFE702B07047BA
:1023700082B0019000208DF803000198012811D14E
:10238000FFE742F21C00C4F202000068C00720B15F
:10239000FFE701208DF8030003E000208DF8030023
:1023A000FFE711E042F20C00C4F20200006801995C
:1023B000084204D0FFE701208DF8030003E000206D
:1023C0008DF80300FFE7FFE79DF8030002B07047B8
:1023D00081B00090009842F20C01C4F20201086042
:1023E00001B0704781B004208DF8030042F20C0068
:1023F000C4F202000068C00720B1FFE701208DF899
:1024000003001FE042F20C00C4F202000068400723
:10241000002804D5FFE702208DF8030011E042F206
:102420000C00C4F202000068C006002804D5FFE7D3
:1024300003208DF8030003E004208DF80300FFE77C
:10244000FFE7FFE79DF8030001B0704781B004206B
:102450008DF8030042F20C00C4F202000068C007CD
:1024600020B1FFE701208DF803001FE042F20C00CD
:10247000C4F2020000684007002804D5FFE70220EC
:102480008DF8030011E042F20C00C4F20200006873
:10249000C006002804D5FFE703208DF8030003E001
:1024A00004208DF80300FFE7FFE7FFE79DF8030036
:1024B00001B070474EF6FC51CEF20001086840F0C2
:1024C0008070086041F20001CEF20001086840F01F
:1024D00001000860704700BF80B584B0039041F2EE
:1024E0000400CEF2000000680290039840F204015C
:1024F000C2F2000109684DF68362C4F21B32A1FBEF
:102500000221890C48430190FFE7029841F204013F
:10251000CEF20001096800F007F80199884201D263
:10252000FFE7F2E704B080BD82B00190009100980F
:102530000199401A02B0704780B584B0039041F20F
:102540000400CEF2000000680290039840F20401FB
:10255000C2F20001096844F6D352C1F26202A1FB43
:102560000221890948430190FFE7029841F20401E2
:10257000CEF200010968FFF7D7FF0199884201D226
:10258000FFE7F2E704B080BD41F21801C4F2020196
:10259000086840F0080008600421C4F201010868DE
:1025A00040F00070086040F61043C4F201030220BE
:1025B000186040F60041C4F2010108684FF0080CB1
:1025C0006CF30710086040F61442C4F20102402088
:1025D000106008686CF31B600860042010600868D5
:1025E0006CF30B2008602020106008686CF3175013
:1025F0000860C2F800C008686CF30F300860102053
:10260000106008686CF313400860012010600868CF
:10261000032262F30300086080201860086862F3F8
:102620001F700860704700BF80B582B040F6084058
:10263000C4F201000068C0F3400001901E20FFF7C3
:102640007BFF9DF8040002B080BD00BF40F608404B
:10265000C4F201000068C0F38010704740F60840E3
:10266000C4F201000068C0F38000704740F60840E3
:10267000C4F201000068C0F34010704740F6084003
:10268000C4F201000068C0F3C000704740F6084083
:10269000C4F201000068C0F30010704740F29E00D1
:1026A000C2F200000078704781B000900098B0FA44
:1026B00080F041090120884040F61041C4F2010138
:1026C000086001B0704700BF81B000900098B0FA78
:1026D00080F040090001C11D0120884040F61041F2
:1026E000C4F20101086001B07047000080B541F2FA
:1026F0001803C4F20203186840F00500186040F6A1
:10270000000CC4F2010CDCF800000B2161F317503F
:10271000CCF80000DCF8000061F31F70CCF800007A
:1027200040F61001C4F2010104200860DCF800202A
:102730004FF0030E6EF30B22CCF8002010220A603B
:10274000DCF800206EF31342CCF8002008220A6067
:10275000DCF800206EF30F32CCF800201A6842F447
:1027600080521A60086043F20001C4F20101088837
:1027700040F010000880088840F0020008800888B7
:1027800040F001000880088820F400600880088874
:1027900020F080000880088840F440700880088895
:1027A00040F004000880088840F04000088080BDA8
:1027B00080B582B0ADF8060040F61001C4F2010108
:1027C00000914FF480200860BDF8060043F20C0130
:1027D000C4F2010108800120FFF77EFE0099042069
:1027E0000860FFE743F20800C4F201000088800798
:1027F000002801D4FFE7F5E702B080BD80B582B0C4
:102800008DF807009DF80700FFF7D2FF02B080BDEA
:1028100080B582B08DF8070040F61001C4F20101C6
:1028200000914FF4801008609DF80700FFF7C0FF8B
:1028300000991020086002B080BD00BF80B582B052
:102840008DF807008DF806109DF80700FFF7E0FFF0
:102850009DF80600FFF7D2FF02B080BD80B582B0C0
:1028600040F61001C4F2010101914FF4002008600C
:102870009620FFF731FE01990820086002B080BD64
:1028800080B586B0FFF732FFFFF7E8FFFD20039029
:102890001221FFF7D3FFAE20FFF7BAFFB32091213B
:1028A000FFF7CCFFCA203F21FFF7C8FFA22004900A
:1028B00000210191FFF7C2FF0199A120FFF7BEFFA0
:1028C000A02002901421FFF7B9FF1120FFF796FF17
:1028D000AB200121FFF7B2FF0299B420FFF7AEFF52
:1028E0000398FFF78BFF41F2AA00C2F20000817843
:1028F000C120FFF7A3FFC7200F210591FFF79EFF1F
:10290000B920FFF785FFB120E221FFF797FF049977
:10291000D120FFF793FF2020FFF770FF0599BB2020
:10292000FFF78CFFB6200821FFF788FFBE200721A4
:10293000FFF784FFA620FFF76BFFA920FFF768FFD2
:1029400000F006F8AF20FFF763FF06B080BD00BFC0
:1029500080B584B01520FFF75BFF00200190FFF7E2
:102960004DFF7720FFF74AFF7520FFF751FF0198D1
:10297000FFF744FF7F20FFF741FF5C20FFF748FF90
:1029800001980390FFE703987F2814DCFFE70020FD
:102990000290FFE70298772808DCFFE70020FFF7A6
:1029A0002DFFFFE7029801300290F3E7FFE703985D
:1029B00001300390E7E704B080BD00BF80B582B06E
:1029C0008DF807009DF8070000F03F008DF8070024
:1029D0007520FFF71DFF9DF80700FFF70FFF3F2051
:1029E000FFF70CFF02B080BD80B582B08DF8070004
:1029F0009DF8070000F03F008DF807001520FFF755
:102A000007FF9DF807001C30C0B2FFF7F7FE5B2000
:102A1000FFF7F4FE02B080BD80B586B08DF81700D8
:102A20009DF8170000F080008DF816009DF8170043
:102A300000F04000C0088DF815009DF8170000F068
:102A4000200080008DF814009DF8170000F01000A1
:102A500040088DF813009DF8170000F008000001F1
:102A60008DF812009DF8170000F0040040008DF86A
:102A700011009DF8170000F0020080018DF8100091
:102A80009DF8170000F00100C0008DF80F009DF8C0
:102A9000161041EA510040EA910040EAD1008DF859
:102AA0000E009DF8151041EA510040EA910040EAFD
:102AB000D1008DF80D009DF8141041EA510040EA54
:102AC000910040EAD1008DF80C009DF8131041EA06
:102AD000510040EA910040EAD1008DF80B009DF8CA
:102AE000121041EA510040EA910040EAD1008DF80D
:102AF0000A009DF8111041EA510040EA910040EAB5
:102B0000D1008DF809009DF8101041EA510040EA0B
:102B1000910040EAD1008DF808009DF80F1041EABD
:102B2000510040EA910040EAD1008DF807009DF87D
:102B30000E009DF80D1008438DF806009DF80C005E
:102B40009DF80B1008438DF805009DF80A009DF8CC
:102B5000091008438DF804009DF808009DF807103F
:102B600008438DF803009DF80600FFF747FE9DF827
:102B70000500FFF743FE9DF80400FFF73FFE9DF8B8
:102B80000300FFF73BFE06B080BD00BF80B588B0F4
:102B9000ADF81E00ADF81C108DF81B2005939DF8B4
:102BA0001B0001280DD1FFE7059801784FF6006062
:102BB000CFF6FF7000EB0110ADF81200102003906B
:102BC00009E0059801781A204143A1F55071ADF84C
:102BD00012100390FFE700200290FFE7029803998C
:102BE00088424CDAFFE79DF81B00012816D1FFE769
:102BF000BDF812000299014446F60210C0F600002A
:102C000000EB410149788DF80710BDF81210029AC7
:102C1000114430F811008DF8060015E0BDF81200DF
:102C20000299014443F68230C0F6000000EB4101F6
:102C300049788DF80710BDF81210029A114430F847
:102C400011008DF80600FFE7BDF81C00029908444A
:102C5000C0B2FFF7B3FE9DF81E00FFF7C5FE5C2073
:102C6000FFF7D6FD9DF80700FFF7D6FE9DF806009A
:102C7000FFF7D2FEFFE7029801300290AEE708B0FE
:102C800080BD00BF80B584B0ADF80E00ADF80C106B
:102C90008DF80B200193FFE70198007850B3FFE710
:102CA00001980078812812DBFFE7BDF80E00BDF81F
:102CB0000C109DF80B20019BFFF768FFBDF80E007C
:102CC0000430ADF80E0001980230019011E0BDF81B
:102CD0000E00BDF80C109DF80B20019BFFF756FF6E
:102CE000BDF80E000530ADF80E00019801300190DE
:102CF000FFE7D1E704B080BD80B582B08DF8070052
:102D00008DF806108DF805209DF80500202805DBBC
:102D1000FFE79DF805007F2804DBFFE720208DF802
:102D20000500FFE71520FFF773FD9DF80700FFF78B
:102D300065FD9DF807000530C0B2FFF75FFD752007
:102D4000FFF766FD9DF80600FFF758FD9DF80600A9
:102D50000730C0B2FFF752FD5C20FFF759FD00209D
:102D60000090FFE70098072815DCFFE79DF80500B5
:102D700000EB400147F2F070C0F6000000EB4100AC
:102D80000099084410F8C00CFFF738FDFFE70098E1
:102D900001300090E6E702B080BD00BF80B582B090
:102DA0008DF807008DF806100092FFE70098007874
:102DB00088B1FFE79DF807009DF80610009A127889
:102DC000FFF79AFF9DF8070006308DF8070000987E
:102DD00001300090EAE702B080BD00BF80B586B048
:102DE000ADF81600ADF814108DF813209DF81300FF
:102DF000202805DBFFE79DF813007F2804DBFFE7B1
:102E000020208DF81300FFE700200390FFE70398D0
:102E1000072836DCFFE700200290FFE7029805282C
:102E20002ADCFFE79DF8130000EB400147F2F07049
:102E3000C0F6000000EB41000299084410F8C00CF5
:102E40008DF807009DF807000399C840C00770B1CE
:102E5000FFE7BDF8160002990844BDF81410039A64
:102E6000114480B289B20F2200F00EF8FFE7FFE7AD
:102E7000029801300290D1E7FFE7039801300390F8
:102E8000C5E706B080BD00BF82B0ADF80600ADF862
:102E900004108DF80320BDF80600FF2805DCFFE7CD
:102EA000BDF80400402801DBFFE72AE0BDF804007C
:102EB000C001BDF8061000EB5100ADF800009DF810
:102EC0000600C00778B9FFE7BDF8002040F2AA016C
:102ED000C2F20001885C00F00F009DF8033040EA68
:102EE000031088540DE0BDF8002040F2AA01C2F2A0
:102EF0000001885C00F0F0009DF80330184388540E
:102F0000FFE702B0704700BF80B582B0ADF80600A1
:102F1000ADF804100092FFE70098007888B1FFE751
:102F2000BDF80600BDF80410009A1278FFF756FFAE
:102F3000BDF806000630ADF806000098013000909C
:102F4000EAE702B080BD00BF81B000200090FFE73B
:102F50000098B0F5805F0CDAFFE7009A40F2AA0112
:102F6000C2F2000100208854FFE700980130009071
:102F7000EEE701B0704700BF80B582B08DF8070062
:102F80008DF806101520FFF743FC2520FFF736FCCF
:102F90005B20FFF733FC7520FFF73AFC9DF8070034
:102FA000FFF72CFC9DF80600FFF728FC5C20FFF7DC
:102FB0002FFC00200090FFE70098B0F5805F0DDA4D
:102FC000FFE7009940F2AA00C2F20000405CFFF760
:102FD00015FCFFE7009801300090EDE702B080BDDE
:102FE00082B08DF8070000200090FFE70098B0F550
:102FF000805F0DDAFFE79DF80700009A40F2AA0112
:10300000C2F200018854FFE7009801300090EDE71C
:1030100002B0704780B584B0039000200090FFF7A5
:10302000CDFC0098FFF7E0FC5C20FFF7F1FB009877
:103030000290FFE702983F2819DCFFE7002001908B
:10304000FFE701981F280DDCFFE70398029A01991A
:1030500001EB4211405CFFF7DFFCFFE70198013014
:103060000190EEE7FFE7029801300290E2E704B03A
:1030700080BD00BF80B588B000200090FFF79EFCA7
:103080000098FFF7B1FC5C20FFF7C2FB00988DF8B9
:103090001F000690FFE706981F2829DCFFE70020A5
:1030A0000590FFE705980F281ADCFFE70020049041
:1030B000FFE70498072809DCFFE79DF81F00FFF7EA
:1030C0009DFBFFE7049801300490F2E79DF81F0094
:1030D00011308DF81F00FFE7059801300590E1E7FA
:1030E00000208DF81F00FFE7069801300690D2E718
:1030F000FF208DF81F0000200390FFE703981F2892
:1031000029DCFFE700200290FFE702980F281ADC75
:10311000FFE700200190FFE70198072809DCFFE79F
:103120009DF81F00FFF76AFBFFE70198013001904F
:10313000F2E79DF81F0011388DF81F00FFE7029895
:1031400001300290E1E7FF208DF81F00FFE70398B0
:1031500001300390D2E708B080BD00BF80B588B0D1
:1031600055208DF8100041208DF8110052208DF867
:10317000120054208DF813003A208DF814002020FE
:103180008DF8150041F2B200C2F200000190007803
:1031900004A90291063100F01BF8019802994078C9
:1031A000093100F015F80198029980780C3100F08F
:1031B0000FF8029A002103918DF81F100846FFF7BF
:1031C000A3FE03981F21FFF7D7FE08B080BD00BF04
:1031D00082B08DF8070000919DF80700010947F6BD
:1031E0002420C0F60000415C009A11709DF8071081
:1031F00001F00F01405C0099487000992020887010
:1032000002B0704780B541F20002C4F202021068B9
:1032100040F00100106041F20401C4F202010868AC
:103220000023CFF6FF031840086010684FF6FF73C5
:10323000CFF6F66318401060106820F4802010600C
:10324000086820F4FE00086041F20801C4F202019F
:103250004FF41F00086000F009F84EF60851CEF256
:1032600000014FF00060086080BD00BF80B500F035
:1032700093F880BD84B0002003900290019041F249
:103280000400C4F20200006800F00C0003900398F0
:10329000009040B1FFE7009804280ED0FFE70098A7
:1032A000082814D056E040F20401C2F2000141F2B5
:1032B0000020C0F27A00086056E040F20401C2F239
:1032C000000141F20020C0F27A0008604CE041F2B7
:1032D0000400C4F20200016801F470110291006858
:1032E00000F4803001900299022000EB914002909E
:1032F000019860B9FFE7029840F60011C0F23D0165
:10330000484340F20401C2F20001086021E041F2AA
:103310000400C4F202000068800300280CD5FFE717
:10332000029840F60011C0F23D01484340F204010A
:10333000C2F2000108600BE0029841F20021C0F2E5
:103340007A01484340F20401C2F200010860FFE73D
:10335000FFE709E040F20401C2F2000141F200205F
:10336000C0F27A000860FFE741F20400C4F20200F4
:103370000068C0B2010943F67230C0F60000405C3C
:103380000390039A40F20401C2F200010868D040A1
:10339000086004B0704700BF84B000200390029022
:1033A00041F20001C4F20201086840F48030086074
:1033B000FFE741F20000C4F20200006800F40030B0
:1033C0000290039801300390FFE7029900200190DA
:1033D00039B9FFE70398B0F5A06018BF012001904C
:1033E000FFE70198C0070028E3D1FFE741F20000A2
:1033F000C4F2020000688003002803D5FFE7012023
:10340000029002E000200290FFE70298012851D1CB
:10341000FFE742F20001C4F20201086840F0100028
:103420000860086820F003000860086840F00200A7
:10343000086041F20401C4F20201009108680860CA
:1034400008680860086840F480600860086820F434
:103450007C100860086840F4E810086041F2000140
:10346000C4F20201086840F080700860FFE741F292
:103470000000C4F2020000688001002801D4FFE7C8
:10348000F5E741F20401C4F20201086820F00300EC
:103490000860086840F002000860FFE741F204009D
:1034A000C4F20200006800F00C00082801D0FFE719
:1034B000F4E700E0FFE704B07047000080B582B099
:1034C00041F21801C4F20201086840F004000860EB
:1034D00040F6100CC4F2010C0120CCF8000040F6BC
:1034E0000002C4F201021168082363F303011160B2
:1034F0000221CCF80010116863F30711116040211C
:10350000CCF80010116863F31B61116041F21C01DB
:10351000C4F2020108601822C4F2000240F2011154
:1035200011802023C4F20003222119800823C4F251
:103530000003032119802C23C4F200031980118891
:103540004FF2F003194311804FF080410A884FF683
:103550007F731A430A8008800821C4F201010868B9
:10356000086040F20041C4F20101086840F04000E8
:10357000086040F20C41C4F20101086840F04000CC
:1035800008601720019000F011F801980F2100F059
:103590001FF80C21C4F20001088840F001000880E7
:1035A0001C2000F003F802B080BD00BF81B08DF890
:1035B00003009DF9031001F01F02012090404A0909
:1035C0004EF20011CEF2000141F8220001B0704726
:1035D00082B08DF8070000919DF90700B0F1FF3F20
:1035E0000CDCFFE7009800019DF8071001F00F01C7
:1035F0004EF61452CEF20002885409E00098000101
:103600009DF907104EF20042CEF200028854FFE707
:1036100002B070472420C4F200000088704700BF49
:103620004FF08040008800F01001012080EA111066
:103630007047000041F21801C4F20201086840F02E
:103640000400086040F61403C4F201034FF48070D4
:10365000186040F60401C4F201010868032262F315
:10366000030008604FF400701860086862F30710E8
:1036700008604FF480601860086862F30B200860EF
:103680004FF480501860086862F3134008604FF4EC
:1036900000601860086862F30F300860704700BF70
:1036A00081B000900098000100F10A0101208840DB
:1036B00040F61001C4F20101086001B0704700BF7C
:1036C00081B000900098000100F10C0101208840B9
:1036D00040F61001C4F20101086001B0704700BF5C
:1036E00081B000900098000100F10B01012088409A
:1036F00040F61001C4F20101086001B0704700BF3C
:1037000081B000900098000100F10801012088407C
:1037100040F61001C4F20101086001B0704700BF1B
:1037200081B000900098000100F10901012088405B
:1037300040F61001C4F20101086001B070470000BA
:1037400080B582B041F21801C4F20201086844F267
:1037500004021043086040F60401C4F20101086845
:1037600020F470600860086840F40060086043F668
:103770000801C4F2010140F27120088043F60C01F7
:10378000C4F20101088820F48050088043F610023A
:10379000C4F20102108820F440501080088820F400
:1037A00080600880088842F204021043088008887C
:1037B00040F0200008802520019000F007F80198D3
:1037C000002100F015F802B080BD00BF81B08DF877
:1037D00003009DF9031001F01F02012090404A09E7
:1037E0004EF20011CEF2000141F8220001B0704704
:1037F00082B08DF8070000919DF90700B0F1FF3FFE
:103800000CDCFFE7009800019DF8071001F00F01A4
:103810004EF61452CEF20002885409E000980001DE
:103820009DF907104EF20042CEF200028854FFE7E5
:1038300002B0704782B0009043F60000C4F201006D
:103840000088800600280BD5FFE743F60400C4F289
:10385000010000880099087001208DF8070003E03E
:1038600000208DF80700FFE79DF8070002B07047C1
:1038700040F29E00C2F200000078704781B043F62B
:103880000000C4F2010000888006002831D5FFE75F
:1038900043F60400C4F2010000888DF803009DF88F
:1038A000031040F27A00C2F2000003785A1C027042
:1038B00041F2B202C2F20002D1540078032817DBB1
:1038C000FFE740F27A01C2F200010020087040F2E6
:1038D000A901C2F200010120087041F2B200C2F257
:1038E0000000407840F29E01C2F200010870FFE73C
:1038F000FFE701B07047000082B040F22441C4F2FB
:1039000000010888019000200880019842F21D51B2
:1039100088421FD3FFE7019842F63B01884219D83D
:10392000FFE740F29D00C2F20000007890B9FFE787
:1039300040F28801C2F2000108880130088040F698
:103940002400C4F20000008840F29601C2F2000197
:103950000880FFE740F29D00C2F2000000780146B7
:10396000009120B1FFE7009801283DD08CE001983C
:10397000B0F5966F18D9FFE7019840F2DB51884205
:1039800012D8FFE740F29D01C2F200010120087049
:1039900040F28C01C2F200010020087040F2900158
:1039A000C2F20001086076E0019840F21B418842B3
:1039B00019D3FFE7019840F29B41884213D8FFE7F3
:1039C00040F29901C2F20001EE20087040F2980125
:1039D000C2F200010120087040F29D01C2F2000114
:1039E00000200870FFE756E00198502805D3FFE754
:1039F0000198B0F58C7F07D9FFE740F29D01C2F234
:103A000000010020087046E040F29001C2F200017F
:103A10000868400808600198A12809D3FFE740F230
:103A20009001C2F20001086840F000400860FFE722
:103A300040F28C00C2F20000017801310170007880
:103A4000202820DBFFE740F29000C2F2000002686D
:103A500040F29901C2F200010A700268120A4A702B
:103A60000268120C8A700068000EC87040F298015B
:103A7000C2F200010120087040F29D01C2F2000173
:103A800000200870FFE706E040F29D01C2F200014D
:103A900000200870FFE702B0704700BF83B00190BC
:103AA00040F29800C2F200000078F0B1FFE740F267
:103AB0009801C2F20001002008700090FFE7009812
:103AC00003280EDCFFE7009940F29900C2F20000E3
:103AD000405C0199009A8854FFE7009801300090FB
:103AE000EDE701208DF80B0003E000208DF80B00BE
:103AF000FFE79DF80B0003B07047704770477047B1
:103B0000754600F02BF8AE4605006946534620F096
:103B10000700854618B020B5FCF744FBBDE82040FF
:103B20004FF000064FF000074FF000084FF0000B79
:103B3000AC46ACE8C009ACE8C009ACE8C009ACE8E8
:103B4000C00921F007018D46704710B50446AFF358
:103B500000802046BDE81040FCF70FBB00487047CE
:103B60001800002001491820ABBEFEE72600020025
:103B70007047000000000000000001020304060777
:103B80000809000000000000000000000000000024
:103B90000000000000000000000000000000000025
:103BA0000000000000000000000000000000000015
:103BB0000000000000000000000080000000800005
:103BC00000008000000080000000800000008000F5
:103BD0000000800000008000000080000000000065
:103BE00080008000000000000000000000004A018A
:103BF00000004A01000042000000840000000000B4
:103C000000000000000000000000000000000000B4
:103C100000000000000000000000000000000000A4
:103C20000000000000000000000000001004000080
:103C3000541500001004000010040000541500008A
:103C40001004000000000000000000000000000060
:103C5000000000008000000080004001100400000F
:103C600008080000000800000004400110000000E7
:103C70000800000008080000100440018000000057
:103C800080000000000000000000000A000080200A
:103C9000000082200000080A0000200000008000D0
:103CA00000000002000028080000822000008200BE
:103CB000000028000000000000000000000040019B
:103CC000100400000808000008080000100440016B
:103CD0001004000008080000041000000410000098
:103CE000080802001404480104000000000000005D
:103CF0000000200000002000000000000000000084
:103D000000000000000000000000000000000000B3
:103D100000000000000000000000000000000000A3
:103D20000000000000000001000400000008000086
:103D30000010000000200000002000000020000013
:103D40000020000000100000000800000004000136
:103D50000000000000000000000040001000000013
:103D60000800000004000000020000000200000043
:103D70000200000002000000040000000800000033
:103D800010004000000000000000000000000000E3
:103D90000000000000000000000080000000880813
:103DA000200280002002880800008000000000003F
:103DB0000000000000000000000000000000000003
:103DC0000000000000000000000000008000000073
:103DD00080000000A80A00008000000080000000B1
:103DE00000000000000000000000000000000000D3
:103DF00000000000000000000000000000000000C3
:103E000000000000000000000000000000000000B2
:103E100000000000000080004001800080000001E0
:103E20000002000000000000000000000000000090
:103E30000000000000000000000000000000541519
:103E40000000000000000000000000000000000072
:103E50000000000000000000000000000000000062
:103E60000000000000000000000000000000000052
:103E700000000000000000000000000000008000C2
:103E80004001800000000000000000000000000071
:103E900000000800000010000000200000004000AA
:103EA000000080000000000100000002000000048B
:103EB00000000008000000100000002000000000CA
:103EC0000000000000004001100400000410000089
:103ED000022000000220000002200000022000005A
:103EE0000220000002200000041000001004400125
:103EF00000000000000000000000800000008002C0
:103F000000008008000080000000800000008000A9
:103F100000008000000080000000800000008000A1
:103F200000005005000000000000000000004001FB
:103F30001004000004100000022000000220000015
:103F4000040000001000000040000000000100001C
:103F5000000400000010AA2A000000000000000079
:103F600000004001100400000808000008000000E4
:103F700010004000100000000400000002000000DB
:103F800002000000041000001004400100000000C6
:103F900000000000000008200000082000000820A9
:103FA0000000082000000820000008200000AA2AC5
:103FB00000000800000008000000080000000800E1
:103FC0000000000000000000000054150000001078
:103FD000000000100000001000004015100000005C
:103FE00004000000020000000200000004000000C5
:103FF000100040150000000000000000000040011B
:104000001004000004100000022000000020400105
:1040100010240010042000000220000002200000F4
:104020000410000010044001000000000000000027
:104030000000AA2A00000400000008000000100090
:10404000000020000000400000008000000000018F
:104050000000000200000004000000080000000052
:1040600000000000000040011004000008080000EB
:1040700008080000100440011004000004100000B3
:104080000220000002200000041000001004400183
:1040900000000000000000000000400110040000CB
:1040A00004100000022000000220000002100400A2
:1040B0001204400102000000020000000410000091
:1040C000100440010000000000000000000000009B
:1040D000000000000000800040018000000000009F
:1040E000000000000000000000008000400180008F
:1040F00000000000000000000000000000000000C0
:10410000000000000000000000008000400180006E
:10411000000000000000000000000000000080001F
:10412000400180008000000100020000000000004B
:10413000000000000000000000000000000000007F
:10414000080020008000000200080002800020001B
:104150000800000000000000000000000000000057
:10416000000000000000000000000000000000004F
:1041700000000000000000000000000054150000D6
:1041800000005415000000000000000000000000C6
:10419000000000000000000000000000000000001F
:1041A0000000000000000000000800028000200065
:1041B000080020008000000200080000000000004D
:1041C00000000000000000000000000000000000EF
:1041D000000000000000400110040000080800007A
:1041E00008000000100000004000000080000000F7
:1041F00080000000800000000000800040010000FE
:104200000000000000000000400110040000081041
:1042100000002421400424400008244000082840D5
:10422000400420210000001000000008000280006F
:1042300000000000000000000000A00A08200000AC
:10424000044000000440000004400000044000005E
:1042500004405015044000000440000004400000E9
:104260000440044000000000000000000000A02AFC
:1042700008000020040000200400002004000020AA
:104280000800A02A080000200400002004000020EC
:10429000040000200800A02A000000000000000028
:1042A0000000A00A082000000440000000400000B8
:1042B00000400000004000000040000000400000FE
:1042C00000400000044000000820A00A0000000098
:1042D000000000000000A0AA080000400400004008
:1042E00004000040040000400400004004000040BE
:1042F0000400004004000040040000400800A0AAA0
:1043000000000000000000000000A82A00000020BB
:104310000000002000000020000000200000802A93
:10432000000000200000002000000020000000200D
:104330000000A82A00000000000000000000A82AD9
:1043400000000020000000200000002000000020ED
:104350000000802A00000020000000200000002053
:10436000000000200000002000000000000000000D
:104370000000A00A082000000440000004400000E3
:1043800004400000004000000040500104400000D4
:1043900004400000044000000820A00A00000000C3
:1043A00000000000000002200000022000000220A7
:1043B00000000220000002200000AA2A00000220C3
:1043C0000000022000000220000002200000022065
:1043D00000000000000000000000A00200008000BB
:1043E00000008000000080000000800000008000CD
:1043F00000008000000080000000800000008000BD
:104400000000A00200000000000000000000AC025C
:10441000040000000400000004000000040000008C
:10442000040000000400000004000000040000007C
:10443000040000000808A0020000000000000000C6
:104440000000044000001040000040400000004117
:104450000000004400000050000000440000004143
:104460000000404000001040000004400000000038
:10447000000000000000004000000040000000407C
:10448000000000400000004000000040000000402C
:1044900000000040000000400000004000005455B3
:1044A00000000000000000000000022000000A28B8
:1044B000000012240000222200004221000082207D
:1044C0000000022000000220000002200000022064
:1044D0000000022000000000000000000000022098
:1044E0000000022000080220000402200002022036
:1044F0000001022080000220400002202000022053
:10450000100002200800022000000000000000004F
:104510000000A00A08200000044000000440000041
:10452000044000000440000004400000044000007B
:1045300004400000044000000820A00A0000000021
:10454000000000000000A06A0800004004000040D5
:104550000400004004000040040000400800A06A7D
:10456000000000400000004000000040000000404B
:1045700000000000000000000000A00A0820000069
:10458000044000000440000004400000044000001B
:10459000044000000440000004400000044080008B
:1045A0000820A00A00001000000000000000A06A1F
:1045B00008000040040000400400004004000040E7
:1045C000040000400800A06A0000204000000840ED
:1045D0000000044000000440000000000000000053
:1045E0000000A00A08200000044000000440000071
:1045F000004000000020A00A0800000004000000A5
:1046000004400000044000000820A00A0000000050
:10461000000000000000AA2A0000800000008000C6
:10462000000080000000800000008000000080008A
:10463000000080000000800000008000000080007A
:1046400000000000000000000000044004400000E2
:10465000044000000440000004400000044000004A
:10466000044000000440000004400000044000003A
:104670000820A00A00000000000000000000022046
:1046800000000220000002200000022000000220A2
:1046900000000410000008080000100400002002C0
:1046A0000000400100008000000000000000000049
:1046B00000000440000004400000044000000440EA
:1046C0000000044000000441000084420000444413
:1046D00000002448000014500000044000000000C6
:1046E0000000000000000410000008080000100492
:1046F0000000200200004001000080000000400196
:10470000000020020000100400000808000004104F
:104710000000000000000000000004100000080875
:104720000000100400002002000040010000800092
:104730000000800000008000000080000000800079
:104740000000800000000000000000000000541580
:1047500000000800000010000000200000004000E1
:1047600000008000000000010000000200000004C2
:1047700000000008000054150000000000000000C8
:104780000000A00200000002000000020000000281
:104790000000000200000002000000020000000211
:1047A00000000002000000020000A0020000000063
:1047B00000000000000008000000100000002000C1
:1047C0000000400000008000000000010000000226
:1047D000000000040000000800000010000000209D
:1047E00000000000000000000000A0020000200007
:1047F0000000200000002000000020000000200039
:104800000000200000002000000020000000200028
:104810000000A00200000000000000000000800076
:104820000000200200000808000000000000000056
:104830000000000000000000000000000000000078
:104840000000000000000000000000000000000068
:104850000000000000000000000000000000000058
:104860000000000000000000000000000000000048
:10487000000000000000000000000000000054558F
:10488000000000000000A002000000000000000086
:104890000000000000000000000000000000000018
:1048A0000000000000000000000000000000000008
:1048B00000000000000000000000000000000000F8
:1048C000000000000000400110040000081000007B
:1048D0004801100400000810000008100000081033
:1048E000100448010000000000000000000000006B
:1048F00000000010000000100000801220080010CE
:104900001000001010000010100000101000001027
:1049100010000010200880120000000000000000BD
:104920000000000000000000000000000000800205
:10493000200800001010000000100000001000000F
:10494000001000001010000020088002000000008D
:10495000000000000000000000000400000004004F
:104960000000A4000802040000080400000804007D
:104970000008040000080400000804000802A40065
:104980000000000000000000000000000000000027
:10499000000000000000800220080000101000004D
:1049A0001010000050150000001000001010000052
:1049B000200880020000000000000000000000004D
:1049C00000000000A0000802000004040000000431
:1049D00000000004800A000400000004000000043D
:1049E00000000004000000040000000000000000BF
:1049F000000000000000000000000000000048016E
:104A0000180400000808000008080000080800005A
:104A100018044001080000000808000010044001CC
:104A20000000000000000000000000100000001066
:104A3000000080122008001010000010100000106C
:104A400010000010100000101000001010001010D6
:104A50000000000000000000000000000000000056
:104A60008000400180000000000080020000800003
:104A70000000800000008000000080000000800036
:104A800000005005000000000000000000000000D1
:104A9000100028001000000050010000100000006D
:104AA00010000000100000001000000010080000BE
:104AB0001008000010044001000000000000000089
:104AC00000000000000000000000000000000808D6
:104AD00000002008000080080000000A0000000A12
:104AE0000000800800002008000008080000000006
:104AF000000000000000001500000001000000019F
:104B000000000001000000010000000100000001A1
:104B1000000000010000000100000001000050152D
:104B20000000000000000000000000000000000085
:104B3000000000000000282A0000822000008220DF
:104B400000008220000082200000822000008220DD
:104B500000008220000000000000000000000000B3
:104B600000000000000000000000001540001010D0
:104B700000000810000008100000081000000810D5
:104B800000000810000008100000000000000000F5
:104B90000000000000000000000000000000800293
:104BA000200800001010000010100000101000007D
:104BB000101000001010000020088002000000000B
:104BC00000000000000000000000000000000000E5
:104BD0000000401510080010080000100800001028
:104BE0000800001008001010A00A001000000010BB
:104BF00000000010000000000000000000000000A5
:104C0000000000000000A8021008080000100800C2
:104C100000100800001008000010080850050800E7
:104C20000000080000000800000000000000000074
:104C300000000000000000000000A00808020008BA
:104C4000040400080000000800000008000000083C
:104C50000000000800000008000000000000000044
:104C600000000000000000000000000000008002C2
:104C70002008000010100010000000088002200032
:104C8000000010001000000020088002000000005A
:104C90000000000000000000000000080000405577
:104CA00000080000000800000008000000080000E4
:104CB0000008000000080000000800000004500187
:104CC00000000000000000000000000000000000E4
:104CD0000000000000001010100000101000001074
:104CE0001000001010000010100000101000001044
:104CF000400000150000000000000000000000005F
:104D0000000000000000000000000440000004401B
:104D100000000820000010100000200800004004DF
:104D20000000800200000001000000000000000000
:104D3000000000000000000000000000000008204B
:104D400000000820000008200000082100000821C1
:104D5000000008210000882200005014000000001C
:104D60000000000000000000000000000000000043
:104D700000000808000010040000200200004001AC
:104D8000800040010000200200001004000008081C
:104D90000000000000000000000000000000000013
:104DA00000000000000008080800000808000008D3
:104DB0000800000808001004480100000800000076
:104DC000080800001004400100000000000000007E
:104DD00000000000000000000000A00A0000200009
:104DE0000000400000008000000000010000000200
:104DF000000000040000A00A000000000000000005
:104E00000000000020008000000000010000000100
:104E10000000000200000008000000020000000185
:104E200000000001000080002000000000000000E1
:104E30000000000000000000000000010000000170
:104E4000000000010000000100000001000000015E
:104E5000000000010000000100000001000000014E
:104E60000000000000000000000000000008000238
:104E70000000000100000001000080000000200090
:104E8000000080000000000100000001000000029E
:104E9000000800000000000000000000000000000A
:104EA0000000000000000000000000000000000AF8
:104EB0000000842000002800000000000000000026
:104EC00000000000000000000000000000000000E2
:104ED00000000000000000000000000000000000D2
:104EE00000000000000000000000000000000000C2
:104EF00000000000000000000000000000000000B2
:106A600000000000000000000000200000002000E6
:106A70000000AA020000200000002000000000002A
:106A80000000000000000000000000000000000006
:106A900000000000000000000000000000000000F6
:106AA00000000000000000000000000000000000E6
:106AB0000000AA020000000000000000000000002A
:106AC00000000000000000000000000000000000C6
:106AD00000000000000000000000000000000000B6
:106AE00000000000000000000000000000000000A6
:106AF0000000000000000000000000000000000096
:106B0000000000000000500004018000020240006C
:106B100002022000020210000202080004015000DC
:106B200000000000000020000000A0000000200085
:106B30000000200000002000000020000000A8004D
:106B400000000000000050010400000204000000EA
:106B50000800000020000000800000000002A802E1
:106B6000000000000000A000080200000400000077
:106B70000800A00004000000040000000802A000BB
:106B8000000000000000080000002800000088004D
:106B90000000AA0200000800000008000000080031
:106BA000000000000000A802000000020000A00297
:106BB0000800000004000000040000000802A0001B
:106BC000000000000000500004010000000250001E
:106BD0000402000002020000020200000401500052
:106BE000000000000000A8020000100000002000CB
:106BF00000004000000080000000000100000002D2
:106C000000000000000050000401000004015000DA
:106C10000401000002020000020200000401500012
:106C2000000000000000500004010000020200000B
:106C300002020000020150000200000004015000A6
:106C40000000000000000000000000000000000044
:106C50000000000000000000000000000000000034
:106C60000000000000000000000000000000000024
:106C70000000000000000000000000000000000014
:106C800000000000000000000000080000002000DC
:106C9000000080000000200000000800000000004C
:106CA00000000000000000000000000000000000E4
:106CB000540100005401000000000000000000002A
:106CC0000000000000000000000080000000200024
:106CD000000008000000200000008000000000000C
:106CE00000000000000000000000000000000000A4
:106CF0000000000000000000000000000000000094
:106D00000000000000000000000000000000000083
:106D10000000000000000000000000000000000073
:106D2000000000000000A0000000080200000802AF
:106D30000000A8020000080200000802000008028B
:106D4000000000000000A00200000802000008028D
:106D50000000A00200000802000008020000A002DB
:106D600000000000000050000401000000020000CC
:106D700000020000000200000002000004015000B8
:106D8000000000000000A002080000020400000251
:106D90000400000204000002040000020800A00237
:106DA000000000000000A802000000020000000235
:106DB0000000A00200000002000000020000A80283
:106DC000000000000000A802000000020000000215
:106DD0000000A0020000000200000002000000020B
:106DE000000000000000500004010000000200004C
:106DF000000200002A02000002020000040150000C
:106E00000000000000000802000008020000080264
:106E10000000A802000008020000080200000802AA
:106E200000000000000050002000000020000000D2
:106E30002000000020000000200000002000500082
:106E4000000000000000A802000008000000080088
:106E50000000080000000800000008020000A00078
:106E600000000000000002010000080100002001F5
:106E700000004001000020010000080100000201A4
:106E800000000000000000020000000200000002FC
:106E90000000000200000002000000020000A80242
:106EA00000000000000002028800020250000202FE
:106EB00020000202000002020000020200000202A2
:106EC0000000000000000402000004028000040230
:106ED000400004022000040210000402000004022A
:106EE0000000000000005000040100000202000049
:106EF0000202000002020000020200000401500031
:106F0000000000000000A0020800000204000002CF
:106F1000040000020800A0020000000200000002BD
:106F20000000000000005000040100000202000008
:106F300002020000020200000202080004015200E6
:106F4000000000000000A00208000002040000028F
:106F5000040000020800A002000010020000040269
:106F600000000000000050000401000000020000CA
:106F70000002A8000200000002000000040150000E
:106F8000000000000000AA02000020000000200015
:106F90000000200000002000000020000000200071
:106FA00000000000000002020202000002020000D5
:106FB0000202000002020000020200000401500070
:106FC00000000000000002020000020200000202B5
:106FD00000000401000088000000500000002000B4
:106FE0000000000000000202000002020000020295
:106FF00000000202000002020000240100008800DC
:1070000000000000000002020000020200008800F0
:1070100000002000000088000000020200000202C0
:1070200000000000000002020000020200008800D0
:1070300000002000000020000000200000002000D0
:10704000000000000000A802000010000000200066
:107050000000400000008000000000010000A802C5
:107060000000000000000000000000000000000020
:107070000000000000000000000000000000000010
:107080000000000000000000000000000000000000
:1070900000000000000000000000000000000000F0
:1070A00000000000000000000000000000000000E0
:1070B00000000000000000000000000000000000D0
:1070C00000000000000000000000000000000000C0
:1070D00000000000000000000000000000000000B0
:1070E00000000000000000000000000000000000A0
:1070F0000000000000000000000000000000000090
:10710000000000000000000000000000000000007F
:10711000000000000000000000000000000000006F
:10712000000000000000000000000000000050000F
:10713000000104005000040100000401000054009C
:1071400000000000000000000000000100005001ED
:1071500000000401000004010000040100005001CF
:1071600000000000000000000000000000005000CF
:1071700004000001000000010000000104005000B4
:1071800000000000000000000000040000005400A7
:10719000000004010000040100000401000054008C
:1071A000000000000000000000000000000050008F
:1071B0000000040100005401000000010000500024
:1071C0000000000000000000000050000000480027
:1071D000000050010000400000004000000040009E
:1071E000000000000000000000000000000050004F
:1071F0000000040100000401500088003400C800B1
:10720000000000000000000000000001000010016C
:10721000400004010000040100000401000004011A
:10722000000000000000000000000000200000003E
:107230000000A0000000200000002000000050001E
:1072400000000000000000001000000000005000DE
:107250000000100000001000000010000000A0005E
:107260000000000000000000000000010000040118
:1072700000001001000040010000100100000401A6
:1072800000000000000000000000A000000020003E
:10729000000020000000200000002000000050003E
:1072A000000000000000000000000000000050018D
:1072B000000024010000240100002401000024013A
:1072C00000000000000000000000000000001001AD
:1072D000400004010000040100000401000004015A
:1072E000000000000000000000000000000050004E
:1072F000000004010000040100000401000050002F
:10730000000000000000000000000000000050012C
:107310000000040100000401000050010000000111
:10732000000000000000000000000000000050000D
:1073300000000401000004010000140100005400DA
:10734000000000000000000000000000000010012C
:1073500040000401000000010000000100000001E5
:1073600000000000000000000000000000005400C9
:107370000001000000015000040000000400500162
:10738000000000000000000000004000000040007D
:1073900010014000000040000000400000002800F4
:1073A00000000000000000000000000000000401D8
:1073B000000004010000040100000401000052006C
:1073C00000000000000000000000000000000401B8
:1073D00000000401000004010000880000002000FB
:1073E0000000000000000000000000000000040198
:1073F00000000401000004010000240100008800D6
:107400000000000000000000000000000000040177
:107410000000880000002000000088000000040137
:107420000000000000000000000000000000040157
:10743000000004010000880000002000000080001F
:1074400000000000000000000000000000005401E7
:10745000000008000000200000008000000054012F
:10746000000000000000000000000000000000001C
:10747000000000000000000000000000000000000C
:1074800000000000000000000000000000000000FC
:1074900000000000000000000000000000000000EC
:1074A00000000000000000000000000000000000DC
:1074B00000000000000000000000000000000000CC
:1074C00000000000000000000000000000000000BC
:1074D00000000000000000000000000000000000AC
:1074E0000000000025000000000000001EF80F0052
:1074F0001EFC1F001EFE3F001EFE3F001EFF7F0001
:107500001E1F7C001E0F78001E0F78001E0F7800D3
:107510001E0F78001E0F78001E0F78001E0F7800D7
:107520001E0F78001E0F78001E0F78001E0F7800C7
:107530001E0F78001E0F78001E0F78001E0F7800B7
:107540001E0F78001E0F78001E0F78001E0F7800A7
:107550001E0F78001E0F78001E0F78001E0F780097
:107560003E0F7800FEFF7F00FEFF7F00FCFF7F00E4
:10757000FCFF7F00F8FF7F00E0FF7F0000000000BD
:107580002500000000000000FEFF1F00FEFF3F007E
:10759000FEFF7F00FEFF7F00FEFF7F00FEFF7F00FB
:1075A00000007E0000007C000000780000007800F1
:1075B00000007800000078000000780000007800EB
:1075C00000007800000078000000780000007800DB
:1075D00000007800000078000000780000007800CB
:1075E00000007800000078000000780000007800BB
:1075F00000007800000078000000780000007800AB
:10760000000078000000780000007800000078009A
:107610000000780000007800000000002500000055
:1076200000000000E0FF0700F8FF1F00FCFF3F0024
:10763000FCFF3F00FCFF7F00FEFF7F003E3C7E0022
