:020000040800F2
:10000000B020002089010008910100089301000838
:100010009501000897010008990100080000000000
:100020000000000000000000000000009B0100082C
:100030009D010008000000009F010008A1010008C8
:10004000A3010008A3010008A3010008A301000800
:10005000A3010008A3010008A3010008A3010008F0
:10006000A3010008A3010008A3010008A3010008E0
:10007000A3010008A3010008A3010008A3010008D0
:10008000A3010008A3010008A3010008A3010008C0
:10009000A3010008A3010008A30100089D0E0008A9
:1000A000A3010008A3010008A3010008A3010008A0
:1000B00085100008A3010008110F0008A301000823
:1000C000A3010008A3010008A3010008A301000880
:1000D000A30100082D3A0008A3010008A3010008AD
:1000E000A3010008A3010008A301000800F002F822
:1000F00000F03AF80AA090E8000C82448344AAF188
:100100000107DA4501D100F02FF8AFF2090EBAE885
:100110000F0013F0010F18BFFB1A43F0010318473B
:10012000307E0000507E0000103A24BF78C878C1AD
:10013000FAD8520724BF30C830C144BF04680C60ED
:10014000704700000023002400250026103A28BF35
:1001500078C1FBD8520728BF30C148BF0B60704739
:100160001FB51FBD10B510BD03F0ECFD1146FFF724
:10017000F7FF01F0B1FB03F00AFE03B4FFF7F2FF53
:1001800003BC03F011FE00000948804709480047FE
:10019000FEE7FEE7FEE7FEE7FEE7FEE7FEE7FEE737
:1001A000FEE7FEE704480549054A064B7047000094
:1001B000B5330008ED000008B0100020B02000208A
:1001C000B0180020B018002083B04FF60040C0F6F1
:1001D0000000019041F2A200C2F200000090002055
:1001E000ADF80A00FFE7BDF80A00012811DCFFE7BF
:1001F0000198BDF80A1050F821000099BDF80A20B6
:1002000041F82200FFE7BDF80A000130ADF80A000E
:10021000E9E703B0704700BF80B584B04FF60040F7
:10022000C0F60000029041F2A200C2F2000001906C
:1002300001F0C6FC029801F0F7FC00208DF80F00D9
:10024000FFE79DF80F00012811DCFFE702989DF8F9
:100250000F2000EB8200019951F8221001F070FE8E
:10026000FFE79DF80F0001308DF80F00E9E701F07E
:10027000C7FC04B080BD00BF80B586B040F28600E8
:10028000C2F20000007841F2A201C2F2000108703F
:1002900040F27F00C2F200000078487040F2140083
:1002A000C2F200000078C87040F27800C2F200008C
:1002B0000078087140F20500C2F2000000788870F2
:1002C0004FF60040C0F60000039004A80290002002
:1002D000ADF80600FFE7BDF80600012811DCFFE7D6
:1002E0000398BDF8061050F821000299BDF80620C9
:1002F00041F82200FFE7BDF806000130ADF8060026
:10030000E9E740F29D00C2F200000078014600914A
:1003100004282DD80099DFE801F0030B131B2300FC
:1003200041F2A200C2F20000C0788DF8130020E074
:1003300041F2A200C2F2000000788DF8100018E02F
:1003400041F2A200C2F2000040788DF8110010E0E6
:1003500041F2A200C2F2000000798DF8140008E01A
:1003600041F2A200C2F2000080788DF8120000E095
:100370000CE041F2A201C2F200010498DDF8132062
:10038000C1F803200860FFF747FFFFE706B080BD14
:1003900041F21C01C4F20201086840F480000860C8
:1003A00041F21801C4F20201086840F00800086038
:1003B00040F60441C4F20101086820F4706008604E
:1003C000086840F410600860086820F47040086015
:1003D000086840F41040086045F60001C4F20001CE
:1003E000088840F40040088008886FF3DF300880F8
:1003F00045F61C02C4F20002B420108045F620022B
:10040000C4F200021320108045F60402C4F2000278
:10041000108840F038001080088840F00100088003
:10042000704700BF81B08DF803008DF8021045F6CB
:100430000001C4F20001088840F480700880FFE7E2
:1004400045F61400C4F200000088C00708B9FFE7B1
:10045000F6E79DF80300400045F61001C4F20001E4
:100460000880FFE745F61400C4F20000008880070A
:10047000002801D4FFE7F5E745F61800C4F20000B4
:1004800000889DF8020045F61001C4F200010880C2
:10049000FFE745F61400C4F20000008800060028BB
:1004A00001D4FFE7F5E745F60001C4F20001088832
:1004B00040F40070088001B0704700BF80B58EB076
:1004C00040F29D00C2F20000007840F20401C2F246
:1004D0000001097888420DD1FFE740F29F00C2F287
:1004E0000000007840F20C01C2F200010978884255
:1004F00017D0FFE702F0AEFA40F29D00C2F2000012
:10050000007840F20401C2F20001087040F29F003E
:10051000C2F20000007840F20C01C2F20001087043
:10052000FFE740F29D00C2F200000078014606910C
:10053000042800F26D830699DFE811F005006801D8
:10054000A0013702D60240F29F00C2F200000078FC
:1005500001280AD1FFE747F6B263C0F60003142171
:100560000022104602F010FC09E047F69F63C0F637
:10057000000314210022104602F006FCFFE740F2BF
:100580001400C2F20000007848F21F51C5F2EB11CE
:10059000A0FB01010020B0EB511F04D1FFE7202098
:1005A0008DF824000FE040F21400C2F20000007841
:1005B00048F21F51C5F2EB11A0FB01104009303089
:1005C0008DF82400FFE740F21400C2F2000000782A
:1005D00048F21F51C5F2EB11A0FB01010020B0EB66
:1005E000511F1ED1FFE740F21400C2F20000027852
:1005F00048F21F50C5F2EB10A2FB00104009642125
:1006000000FB11204CF6CD41CCF6CC41A0FB010102
:100610000020B0EBD10F04D1FFE720208DF825009A
:100620001AE040F21400C2F20000027848F21F50B3
:10063000C5F2EB10A2FB00104009642100FB112061
:100640004CF6CD41CCF6CC41A0FB0101302000EBB3
:10065000D1008DF82500FFE740F21400C2F200003F
:1006600000784CF6CD41CCF6CC41A0FB0121C90865
:1006700001EB8101A0EB410040F030008DF8260035
:10068000002205928DF827201E201421049109AB29
:1006900002F07AFB0499059A47F68763C0F60003D7
:1006A0002D2002F071FB40F28600C2F200000078BB
:1006B00048B9FFE747F67942C0F600020120382129
:1006C00002F09CFB1AE040F28600C2F200000078C3
:1006D000012809D1FFE747F66852C0F60002012061
:1006E000382102F08BFB08E047F6C752C0F6000243
:1006F0000120382102F082FBFFE7FFE740F27F0094
:10070000C2F20000007848B9FFE747F60072C0F671
:1007100000020120002102F071FB74E040F27F0032
:10072000C2F200000078012809D1FFE747F6F36222
:10073000C0F600020120002102F060FB62E040F2FE
:100740007F00C2F200000078022809D1FFE747F6D7
:100750000E72C0F600020120002102F04FFB50E0B3
:1007600040F27F00C2F200000078032809D1FFE7C1
:1007700047F6CC62C0F600020120002102F03EFBE9
:100780003EE040F27F00C2F200000078042809D168
:10079000FFE747F62872C0F600020120002102F0B0
:1007A0002DFB2CE040F27F00C2F20000007805280B
:1007B00009D1FFE747F61B72C0F6000201200021B5
:1007C00002F01CFB1AE040F27F00C2F20000007849
:1007D000062809D1FFE747F63572C0F6000201206E
:1007E000002102F00BFB08E047F68A62C0F6000227
:1007F0000120002102F002FBFFE7FFE7FFE7FFE730
:10080000FFE7FFE7FFE700F005FA01E247F6ED63D7
:10081000C0F6000313200022114602F0B5FA40F2A0
:100820008600C2F20000007850B9FFE747F6605337
:10083000C0F6000350202021002202F0A5FA1CE09F
:1008400040F28600C2F20000007801280AD1FFE7DA
:1008500047F6B963C0F6000350202121002202F0C0
:1008600093FA09E047F6C063C0F600035020202148
:10087000002202F089FAFFE7FFE7C9E147F6C86303
:10088000C0F6000319200022114602F07DFA40F262
:100890007F00C2F20000007850B9FFE747F6A66378
:1008A000C0F6000305202321002202F06DFA7BE050
:1008B00040F27F00C2F20000007801280AD1FFE771
:1008C00047F6AF53C0F6000305202321002202F0B3
:1008D0005BFA68E040F27F00C2F200000078022874
:1008E0000AD1FFE747F6E253C0F6000305202321B3
:1008F000002202F049FA55E040F27F00C2F2000007
:10090000007803280AD1FFE747F6D653C0F6000364
:1009100005202321002202F037FA42E040F27F0056
:10092000C2F20000007804280AD1FFE747F6FA5324
:10093000C0F6000305202321002202F025FA2FE053
:1009400040F27F00C2F20000007805280AD1FFE7DC
:1009500047F6EE53C0F6000305202321002202F0E3
:1009600013FA1CE040F27F00C2F200000078062873
:100970000AD1FFE747F60663C0F6000305202321EE
:10098000002202F001FA09E047F6BB53C0F600036B
:1009900005202321002202F0F7F9FFE7FFE7FFE738
:1009A000FFE7FFE7FFE7FFE732E147F69763C0F6AF
:1009B00000030F2000220392114602F0E5F903988C
:1009C00040F27801C2F20001097848F21F52C5F2E4
:1009D000EB12A1FB0221B0EB511F04D1FFE7202055
:1009E0008DF820000FE040F27800C2F2000000789D
:1009F00048F21F51C5F2EB11A0FB01104009303045
:100A00008DF82000FFE740F27800C2F20000007885
:100A100048F21F51C5F2EB11A0FB01010020B0EB21
:100A2000511F1ED1FFE740F27800C2F200000278A9
:100A300048F21F50C5F2EB10A2FB001040096421E0
:100A400000FB11204CF6CD41CCF6CC41A0FB0101BE
:100A50000020B0EBD10F04D1FFE720208DF821005A
:100A60001AE040F27800C2F20000027848F21F500B
:100A7000C5F2EB10A2FB00104009642100FB11201D
:100A80004CF6CD41CCF6CC41A0FB0101302000EB6F
:100A9000D1008DF82100FFE740F27800C2F200009B
:100AA00000784CF6CD41CCF6CC41A0FB0121C90821
:100AB00001EB8101A0EB410040F030008DF82200F5
:100AC000002202928DF8232014202321019108ABEB
:100AD00002F05AF90199029A47F68763C0F60003BB
:100AE000084602F051F993E047F6D963C0F60003D7
:100AF0000C2000220092114602F046F9009840F2C4
:100B00000501C2F20001097848F21F52C5F2EB124A
:100B1000A1FB0221B0EB511F04D1FFE720208DF88B
:100B20001C000FE040F20500C2F20000007848F21D
:100B30001F51C5F2EB11A0FB0110400930308DF8B8
:100B40001C00FFE740F20500C2F20000007848F206
:100B50001F51C5F2EB11A0FB01010020B0EB511FAA
:100B60001ED1FFE740F20500C2F20000027848F211
:100B70001F50C5F2EB10A2FB00104009642100FBDE
:100B800011204CF6CD41CCF6CC41A0FB0101002058
:100B9000B0EBD10F04D1FFE720208DF821001AE03F
:100BA00040F20500C2F20000027848F21F50C5F280
:100BB000EB10A2FB00104009642100FB11204CF651
:100BC000CD41CCF6CC41A0FB0101302000EBD1009F
:100BD0008DF81D00FFE740F20500C2F2000000782A
:100BE0004CF6CD41CCF6CC41A0FB0121C90801EB6C
:100BF0008101A0EB410040F030008DF81E00002282
:100C00008DF81F201420232107AB02F0BDF8FFE769
:100C10000EB080BD80B582B040F29800C2F20000F4
:100C200000780138014601911C2800F2AB8001993F
:100C3000DFE801F00F18212A333C454E57606972F6
:100C4000A8A8A8A8A8A8A8A8A8A8A8A87B848D96A2
:100C50009F0047F67752C0F600022520002102F0DF
:100C6000CDF88FE047F6B742C0F6000225200021FC
:100C700002F0C4F886E047F68552C0F6000225204F
:100C8000002102F0BBF87DE047F6A942C0F6000261
:100C90002520002102F0B2F874E047F61262C0F697
:100CA00000022520002102F0A9F86BE047F6075268
:100CB000C0F600022520002102F0A0F862E047F60D
:100CC0002E62C0F600022520002102F097F859E0BC
:100CD00047F61552C0F600022520002102F08EF8DA
:100CE00050E047F62062C0F600022520002102F005
:100CF00085F847E047F62352C0F600022520002180
:100D000002F07CF83EE047F64272C0F60002252071
:100D1000002102F073F835E047F69352C0F6000266
:100D20002520002102F06AF82CE047F63152C0F687
:100D300000022520002102F061F823E047F6A152CD
:100D4000C0F600022520002102F058F81AE047F60C
:100D50007962C0F600022520002102F04FF811E070
:100D600047F66B62C0F600022520002102F046F82B
:100D700008E047F63C62C0F600022520002102F0A0
:100D80003DF8FFE702B080BD80B582B040F29A0125
:100D9000C2F2000100200880FFE740F60800C4F21C
:100DA000010000684006002841D4FFE740F610002B
:100DB000C4F200000088C007C0B3FFE740F610018E
:100DC000C4F20001088820F00100088040F29A0077
:100DD000C2F200000188013101800088B0F5FA6F8D
:100DE00023D1FFE701F036FE47F6E463C0F60003C7
:100DF0000D2000220192114601F0C6FFFFF7E4F931
:100E0000FFF73AFA019840F29D01C2F20001087022
:100E10004FF47A7001F012FC01F01CFE40F29E01CA
:100E2000C2F2000101200870FFE7FFE7B5E740F2DA
:100E30009A00C2F200000088B0F5FA6F01DBFFE70C
:100E40001EE040F29C01C2F200010120087040F255
:100E50009D00C2F200000178013101700078052880
:100E600007DBFFE740F29D01C2F20001002008709D
:100E7000FFE740F29E01C2F2000101200870FFE787
:100E800002B080BD81B08DF803009DF803000128F9
:100E900001D1FFE700E0FFE701B0704780B540F205
:100EA0001440C4F2010000684006002817D5FFE78F
:100EB00040F21441C4F201014020086040F62400D1
:100EC000C4F20000008840F27C01C2F200010880F8
:100ED00040F27A01C2F2000101200870FFE740F2FF
:100EE0001440C4F201000068800600280FD5FFE717
:100EF00040F21441C4F201012020086040F28C014C
:100F0000C2F200010120087002F0CEFDFFE780BDB3
:100F100080B582B040F61000C4F200000088C0071F
:100F2000002800F09B80FFE740F61001C4F20001AA
:100F3000088820F00100088040F28000C2F2000022
:100F40000068A8B1FFE740F28000C2F2000000682C
:100F500040F20801C2F200010968884208D2FFE7A6
:100F600040F28001C2F20001086801300860FFE72A
:100F700040F29A00C2F200000088A8B1FFE740F2F8
:100F80009A00C2F20000008840F21001C2F2000193
:100F90000968884208D2FFE740F29A01C2F20001D4
:100FA000088801300880FFE740F28E00C2F200009E
:100FB0000088012810DBFFE740F28E01C2F2000139
:100FC0000020088040F21441C4F201012020086092
:100FD000172000F045F8FFE740F27A00C2F2000067
:100FE0000078D0B3FFE740F62400C4F20000008888
:100FF000ADF80600BDF8060040F27C01C2F2000127
:10100000098888420ADBFFE7BDF8060040F27C0150
:10101000C2F200010988401A00900CE0BDF80600F9
:1010200040F27C01C2F200010988401A42F21071BC
:1010300008440090FFE70098ADF80400BDF80400F4
:101040000A2809DBFFE740F27A01C2F20001002022
:101050000870FFF799FEFFE7FFE7FFE702B080BDEA
:1010600081B08DF803009DF9031001F01F020120EB
:1010700090404A094EF20011CEF2000141F82200E0
:1010800001B0704780B584B01020C4F20000008821
:10109000C007002800F02881FFE71021C4F20001FA
:1010A000088820F00100088040F2A000C2F2000091
:1010B000007878B1FFE7AF2001F02CFC40F2A001EE
:1010C000C2F200010020087040F28001C2F200016B
:1010D000086008E140F28001C2F2000100200860CF
:1010E00002F076FB40F27E01C2F20001087040F28D
:1010F0009C00C2F200000078002800F0F380FFE7B7
:1011000040F27E00C2F20000007800286ED0FFE7B7
:1011100040F29D00C2F200000078014603910428CD
:1011200063D80399DFE801F003142637480040F242
:101130001400C2F200000078FE2808DCFFE740F24D
:101140001401C2F20001087801300870FFE74CE09A
:1011500040F28601C2F20001087801304AF6AB2263
:10116000CAF6AA22A0FB0232520802EB4202801AFF
:1011700008703AE040F27F00C2F2000000780628D2
:1011800008DCFFE740F27F01C2F20001087801307D
:101190000870FFE729E040F27800C2F20000007812
:1011A000B02808DCFFE740F27801C2F200010878BD
:1011B00001300870FFE718E040F20500C2F20000BD
:1011C0000078FE2808DCFFE740F20501C2F20001CA
:1011D000087801300870FFE740F20500C2F2000015
:1011E0000178C12001F0ACFBFFE774E040F29D0004
:1011F000C2F2000000780146029104286AD80299E0
:10120000DFE801F003142D3E4F0040F21400C2F25B
:1012100000000078012808DBFFE740F21401C2F269
:101220000001087801380870FFE753E040F28600BB
:10123000C2F20000007818B9FFE70220019007E031
:1012400040F28600C2F20000007801380190FFE70A
:10125000019840F28601C2F2000108703AE040F2C3
:101260007F00C2F200000078012808DBFFE740F2AF
:101270007F01C2F20001087801380870FFE729E019
:1012800040F27800C2F2000000784E2808DBFFE749
:1012900040F27801C2F20001087801380870FFE7D7
:1012A00018E040F20500C2F200000078012808DBD7
:1012B000FFE740F20501C2F200010878013808702A
:1012C000FFE740F20500C2F200000178C12001F002
:1012D00037FBFFE7FFE740F29E01C2F20001012069
:1012E0000870FFE7FFE7FFE704B080BD81B08DF82D
:1012F00003008DF802108DF80120FFE745F6180075
:10130000C4F2000000888007002801D5FFE7F5E758
:1013100045F60001C4F20001088840F4807008809E
:10132000FFE745F61400C4F200000088C00708B9C2
:10133000FFE7F6E79DF80300400045F61001C4F210
:1013400000010880FFE745F61400C4F200000088A1
:101350008007002801D4FFE7F5E745F61800C4F23E
:10136000000000889DF8020045F61001C4F200015B
:101370000880FFE745F61400C4F20000008800066C
:10138000002801D4FFE7F5E79DF8010045F61001BC
:10139000C4F200010880FFE745F61400C4F2000023
:1013A00000880006002801D4FFE7F5E745F60001B4
:1013B000C4F20001088840F40070088001B0704752
:1013C00080B582B08DF8070000208DF806009DF8EA
:1013D000070040018DF806009DF8060040F00C0063
:1013E0008DF806009DF8070040F27F01C2F200016F
:1013F00008709DF8062048200721FFF777FF02B00C
:1014000080BD00BF80B582B08DF8070000208DF848
:1014100006009DF8070001460091012808D0FFE76B
:101420000098022808D0FFE70098032808D00BE0B6
:1014300000208DF806000BE040208DF8060007E044
:1014400050208DF8060003E000208DF80600FFE72D
:101450009DF8070040F28601C2F2000108709DF875
:10146000062048200121FFF741FF02B080BD00BFE8
:1014700080B582B0019001980090022800F0A3800E
:10148000FFE70098072856D0FFE70098082876D095
:10149000FFE700980B280DD0FFE700980D2820D01B
:1014A000FFE700985D2833D0FFE700985E2800F042
:1014B000A380B1E040F21400C2F200000078FD28E1
:1014C00008DCFFE740F21401C2F2000108780230A4
:1014D0000870FFE740F29E01C2F20001012008708F
:1014E0009AE040F21400C2F200000078012808DB04
:1014F000FFE740F21401C2F20001087802380870D8
:10150000FFE740F29E01C2F200010120087083E073
:1015100040F29F00C2F200000178B1FA81F149095E
:1015200001700078FFF7AEFC40F29E01C2F20001AC
:101530000120087070E040F27800C2F200000078EC
:10154000B02808DCFFE740F27801C2F20001087819
:1015500001300870FFE740F29D01C2F20001032054
:10156000087040F29E01C2F200010120087040F2B2
:101570009A01C2F200014FF47A7008804CE040F208
:101580007800C2F2000000784E2808DBFFE740F246
:101590007801C2F20001087801380870FFE740F2D4
:1015A0009D01C2F200010320087040F29E01C2F2C8
:1015B00000010120087040F29A01C2F200014FF4CC
:1015C0007A70088028E040F28601C2F200010878B3
:1015D00001304AF6AB22CAF6AA22A0FB022303F08E
:1015E000FE0202EB5302801A087040F29E01C2F222
:1015F0000001012008700FE040F27F01C2F20001FB
:101600000878013000F00700087040F29E01C2F235
:10161000000101200870FFE702B080BD80B584B0F2
:101620008DF80F008DF80E10ADF80C20152001F08C
:1016300071F99DF80F0001F063F99DF80F0031304A
:10164000C0B201F05DF9752001F064F99DF80E005B
:1016500001F056F99DF80E001730C0B201F050F9B4
:101660005C2001F057F900208DF80B00FFE79DF892
:101670000B00172861DCFFE700208DF80A00FFE768
:101680009DF80A00042851DCFFE79DF80A0047F2A4
:101690002872C0F600029C2100FB0120043001905A
:1016A00000208DF80300FFE79DF80300122833DCCB
:1016B000FFE700208DF8020001989DF8031050F814
:1016C00031009DF80B10C840C00738B1FFE79DF806
:1016D000020040F0F0008DF80200FFE701989DF84D
:1016E000031000EBC10040689DF80B10C840C00714
:1016F00038B1FFE79DF8020040F00F008DF80200BE
:10170000FFE79DF8020001F0FBF8FFE79DF80300FA
:1017100001308DF80300C7E7002001F0F1F8FFE782
:101720009DF80A0001308DF80A00A9E7FFE79DF84F
:101730000B0001308DF80B0099E7BDF80C0000F0AC
:101740007DFF01F087F904B080BD00BF80B582B095
:10175000ADF8060047F64A62C0F60002012100918A
:10176000084601F04BFB009847F63F52C0F60002D6
:101770000E2101F043FB009847F6E642C0F6000256
:101780001B2101F03BFB009847F6C542C0F6000262
:101790002B2101F033FB009847F68842C0F6000287
:1017A000382101F02BFBBDF8060000F047FF01F0E7
:1017B00051F902B080BD00BF80B582B041F218017E
:1017C000C4F20201086840F00800086040F60042D8
:1017D000C4F20102106820F470001060106840F438
:1017E0000000106040F60C42C4F20102106840F0A4
:1017F00020001060086840F0010008600C21C4F26D
:101800000101086820F0F0000860086840F010004E
:10181000086040F20041C4F20101086840F0200075
:10182000086040F20C41C4F20101086840F0200059
:10183000086040F20841C4F20101086820F020006D
:10184000086017200190FFF70BFC0198012100F0C0
:1018500021F841F21C01C4F20201086840F00200C4
:10186000086040F22841C4F2000140F2CF20088015
:1018700040F22C41C4F200014FF6FF70088040F2A4
:101880000041C4F20001088840F00100088002B065
:1018900080BD00BF82B08DF8070000919DF9070060
:1018A000B0F1FF3F0CDCFFE7009800019DF8071046
:1018B00001F00F014EF61452CEF20002885409E0F6
:1018C000009800019DF907104EF20042CEF200028E
:1018D0008854FFE702B0704780B582B000200190C5
:1018E0004FF60040C0F600000068013080B9FFE705
:1018F00041F2A201C2F200010020087048702F20BE
:1019000088705020C8707F200871FEF785FCFFE7C3
:10191000FEF75AFC41F2A200C2F20000017840F248
:101920008602C2F200021170417840F27F02C2F2D8
:1019300000021170C17840F21402C2F2000211706C
:10194000017940F27802C2F200021170807840F210
:101950000501C2F20001087000F02EFE00F096FEB4
:1019600001F084FE01F03EFF01F0C2FFFEF710FD22
:10197000FFF722FF01F006F841F21C01C4F2020158
:10198000086840F00400086040F20000C2F2000065
:1019900000684BF2C531C9F2A211A0FB01014FF062
:1019A000FF3000EB113040F62801C4F2000108803E
:1019B00040F62C01C4F200010A20088040F60C0118
:1019C000C4F20001088840F00100088040F60001E0
:1019D000C4F20001088840F0010008801E20FFF7D3
:1019E0003FFB41F21801C4F20201086840F0100008
:1019F000086041F20401C4F20101086820F470009B
:101A00000860086840F48010086041F20C01C4F2DC
:101A10000101086820F400500860012000F0C6FEB3
:101A200000208DF8030040F60800C4F201000068B1
:101A3000400600281FD4FFE7FFE740F60800C4F285
:101A4000010000684006002814D4FFE74FF47A70C4
:101A500000F0F4FD9DF8030001308DF803009DF8BF
:101A600003000A2805DBFFE747F23050FFF76EFE60
:101A7000FFE7E2E7FFE7232014214FF47A72FFF734
:101A8000CDFD0020ADF8000040F29E01C2F2000141
:101A90000120087040F29C01C2F200010870FFE7CB
:101AA00040F29E00C2F20000007848B1FFE740F229
:101AB0009E01C2F2000100200870FEF7FFFCFFE764
:101AC00040F29200C2F20000007870B1FFE740F2ED
:101AD0009201C2F200010020087040F29300C2F2AD
:101AE00000008078FFF7C4FCFFE740F29A00C2F2E2
:101AF0000000008840F6B83188421ADBFFE740F268
:101B00009D00C2F200000078032812D1FFE740F2E6
:101B10009D01C2F200010020087040F29E02C2F254
:101B200000020121117040F29A01C2F20001088006
:101B3000FFE740F2A100C2F20000007848B1FFE7E1
:101B400040F2A101C2F2000100200870FFF762F824
:101B5000FFE7A5E782B001900020009042F200016B
:101B6000C4F2020108680090009800F0380000906C
:101B7000019A0098104300900098086002B07047E6
:101B800081B0009042F20001C4F20201086820F026
:101B900008000860009A08681043086001B07047A8
:101BA00081B0009042F20001C4F20201086820F006
:101BB00010000860009A08681043086001B0704780
:101BC00042F20401C4F2020140F22310C4F2675051
:101BD000086048F6AB10CCF6EF500860704700BFC5
:101BE00042F20401C4F2020140F22310C4F2675031
:101BF000086048F6AB10CCF6EF500860704700BFA5
:101C000042F21001C4F20201086840F0800008604E
:101C1000704700BF42F21001C4F20201086840F0B0
:101C200080000860704700BF80B584B00390042036
:101C30008DF80B004FF4302000F02CF88DF80B00DD
:101C40009DF80B00042820D1FFE742F21001C4F2F6
:101C500002010191086840F002000860039842F216
:101C60001402C4F202021060086840F040000860EC
:101C70004FF4302000F00EF801998DF80B00086841
:101C800041F6FD7210400860FFE79DF80B0004B0BC
:101C900080BD00BF80B584B0039004208DF80B0098
:101CA00000F056FC8DF80B00FFE79DF80B100020AC
:101CB0000129019006D1FFE70398002818BF0120F1
:101CC0000190FFE70198C00740B1FFE700F040FC3A
:101CD0008DF80B00039801380390E6E7039820B9CC
:101CE000FFE705208DF80B00FFE79DF80B0004B01F
:101CF00080BD00BF80B582B004208DF807004FF48E
:101D00003020FFF7C7FF8DF807009DF80700042873
:101D10001AD1FFE742F21001C4F2020100910868F3
:101D200040F004000860086840F0400008604FF48C
:101D30003020FFF7AFFF00998DF80700086841F6E3
:101D4000FB7210400860FFE79DF8070002B080BDFD
:101D500080B582B004208DF807004FF4302000F0E9
:101D600025F88DF807009DF8070004281AD1FFE731
:101D700042F21001C4F202010091086840F0040030
:101D80000860086840F0400008604FF4302000F020
:101D90000DF800998DF80700086841F6FB721040B5
:101DA0000860FFE79DF8070002B080BD80B584B0F1
:101DB000039004208DF80B0000F0CAFB8DF80B0097
:101DC000FFE79DF80B1000200129019006D1FFE7E5
:101DD0000398002818BF01200190FFE70198C00771
:101DE00040B1FFE700F0B4FB8DF80B000398013819
:101DF0000390E6E7039820B9FFE705208DF80B0074
:101E0000FFE79DF80B0004B080BD00BF80B582B035
:101E1000A520ADF8060004208DF8050000F076F846
:101E200020B1FFE70020ADF80600FFE74FF43020B7
:101E3000FFF730FF8DF805009DF80500042860D1FC
:101E4000FFE742F20801C4F2020140F22310C4F29B
:101E50006750086048F6AB10CCF6EF50086042F2CD
:101E60001001C4F20201086840F020000860086810
:101E700040F0400008604FF43020FFF70BFF8DF872
:101E800005009DF8050004282AD1FFE742F2100161
:101E9000C4F20201086841F6DF7210400860086869
:101EA00040F010000860BDF806004FF60001C1F6D2
:101EB000FF7108804FF40050FFF7ECFE8DF805002D
:101EC0009DF8050005280AD0FFE742F21001C4F290
:101ED0000201086841F6EF7210400860FFE70FE06A
:101EE0009DF8050005280AD0FFE742F21001C4F270
:101EF0000201086841F6EF7210400860FFE7FFE753
:101F0000FFE79DF8050002B080BD00BF81B0002052
:101F10008DF8030042F21C00C4F202000068800742
:101F2000002804D5FFE701208DF8030003E000201E
:101F30008DF80300FFE79DF8030001B0704700BF74
:101F400080B584B00390029104208DF80700002032
:101F500000904FF40050FFF79DFE8DF807009DF8AC
:101F60000700042838D1FFE742F21001C4F2020151
:101F7000086840F0010008600298039908804FF457
:101F80000050FFF787FE8DF807009DF80700042832
:101F900017D1FFE7039802300090BDF80A000099BE
:101FA00008804FF40050FFF775FE8DF8070042F2ED
:101FB0001001C4F20201086841F6FE721040086088
:101FC00009E042F21001C4F20201086841F6FE7213
:101FD00010400860FFE7FFE79DF8070004B080BDF0
:101FE00080B584B00390ADF80A1004208DF8090084
:101FF0004FF40050FFF74EFE8DF809009DF80900E0
:1020000004281AD1FFE742F21001C4F20201019143
:10201000086840F001000860BDF80A0003990880D4
:102020004FF40050FFF736FE01998DF8090008685B
:1020300041F6FE7210400860FFE79DF8090004B009
:1020400080BD00BF80B582B001908DF803100420E0
:102050008DF802004FF40050FFF71CFE8DF80200CF
:102060009DF80200042830D1FFE742F20801C4F2D3
:10207000020140F22310C4F26750086048F6AB102A
:10208000CCF6EF50086042F21001C4F20201086879
:1020900040F0100008609DF80300019908804FF49B
:1020A0000050FFF7F7FD8DF802009DF802000528AB
:1020B0000AD0FFE742F21001C4F20201086841F6BB
:1020C000EF7210400860FFE7FFE79DF8020002B0E2
:1020D00080BD00BF80B584B003904FF6FF70ADF8AF
:1020E0000A00ADF80800ADF80600ADF804000420C1
:1020F0008DF803000398C04303909DF80C00ADF8E1
:102100000A009DF80D00ADF808009DF80E00ADF82E
:1021100006009DF80F00ADF804004FF40050FFF7E3
:10212000B9FD8DF803009DF80300042840F082807B
:10213000FFE742F20801C4F2020140F22310C4F2A8
:102140006750086048F6AB10CCF6EF50086042F2DA
:102150001001C4F20201086840F010000860BDF8E8
:102160000A00FF280ED0FFE7BDF80A004FF608016D
:10217000C1F6FF7108804FF40050FFF78BFD8DF81A
:102180000300FFE79DF80300042813D1FFE7BDF823
:102190000800FF280ED0FFE7BDF808004FF60A013F
:1021A000C1F6FF7108804FF40050FFF773FD8DF802
:1021B0000300FFE79DF80300042813D1FFE7BDF8F3
:1021C0000600FF280ED0FFE7BDF806004FF60C0111
:1021D000C1F6FF7108804FF40050FFF75BFD8DF8EA
:1021E0000300FFE79DF80300042813D1FFE7BDF8C3
:1021F0000400FF280ED0FFE7BDF804004FF60E01E3
:10220000C1F6FF7108804FF40050FFF743FD8DF8D1
:102210000300FFE79DF8030005280AD0FFE742F21C
:102220001001C4F20201086841F6EF721040086024
:10223000FFE7FFE79DF8030004B080BD80B582B0E2
:102240008DF8070004208DF806004FF43020FFF7CA
:1022500021FD8DF806009DF8060004286BD1FFE7EC
:1022600042F20801C4F2020140F22310C4F26750A6
:10227000086048F6AB10CCF6EF50086042F210014F
:10228000C4F20201086840F020000860086840F0CD
:10229000400008604FF43020FFF7FCFC8DF806008A
:1022A0009DF80600042835D1FFE742F21001C4F280
:1022B0000201086841F6DF7210400860086840F0CB
:1022C000100008609DF8070038B1FFE74FF60001E5
:1022D000C1F6FF710020088006E04FF60001C1F64C
:1022E000FF71A5200880FFE74FF43020FFF7D2FCF4
:1022F0008DF806009DF8060005280AD0FFE742F297
:102300001001C4F20201086841F6EF721040086043
:10231000FFE70FE09DF8060005280AD0FFE742F22C
:102320001001C4F20201086841F6DF721040086033
:10233000FFE7FFE7FFE79DF8060002B080BD00BFA2
:1023400080B582B0ADF80600ADF80410ADF80220FB
:1023500004208DF8010042F20801C4F2020140F2AB
:102360002310C4F26750086048F6AB10CCF6EF506B
:1023700008604FF40050FFF78DFC8DF801009DF8C8
:10238000010004282DD1FFE742F21001C4F202013E
:10239000086840F010000860BDF80610BDF8042081
:1023A000BDF802001043084340F0F8004FF6020168
:1023B000C1F6FF7108804FF40050FFF76BFC8DF8F9
:1023C00001009DF8010005280AD0FFE742F2100144
:1023D000C4F20201086841F6EF7210400860FFE79E
:1023E000FFE79DF8010002B080BD00BF42F21C0073
:1023F000C4F2020000688008704700BF42F220006B
:10240000C4F202000068704781B000208DF803001C
:1024100042F20000C4F2020000688006002804D5E1
:10242000FFE701208DF8030003E000208DF8030092
:10243000FFE79DF8030001B0704700BF82B0019034
:102440008DF803109DF8030048B1FFE7019A42F2AE
:102450001001C4F2020108681043086008E0019A04
:1024600042F21001C4F20201086890430860FFE7DD
:1024700002B0704782B0019000208DF803000198EF
:10248000012811D1FFE742F21C00C4F202000068EB
:10249000C00720B1FFE701208DF8030003E0002012
:1024A0008DF80300FFE711E042F20C00C4F20200D5
:1024B00000680199084204D0FFE701208DF803006D
:1024C00003E000208DF80300FFE7FFE79DF803001D
:1024D00002B0704781B00090009842F20C01C4F243
:1024E0000201086001B0704781B004208DF803003C
:1024F00042F20C00C4F202000068C00720B1FFE7FE
:1025000001208DF803001FE042F20C00C4F202002B
:1025100000684007002804D5FFE702208DF803007B
:1025200011E042F20C00C4F202000068C00600286C
:1025300004D5FFE703208DF8030003E004208DF8A5
:102540000300FFE7FFE7FFE79DF8030001B07047D6
:1025500081B004208DF8030042F20C00C4F20200A6
:102560000068C00720B1FFE701208DF803001FE0DD
:1025700042F20C00C4F2020000684007002804D5B3
:10258000FFE702208DF8030011E042F20C00C4F2D4
:1025900002000068C006002804D5FFE703208DF87C
:1025A000030003E004208DF80300FFE7FFE7FFE7E7
:1025B0009DF8030001B070474EF6FC51CEF20001C9
:1025C000086840F08070086041F20001CEF200011E
:1025D000086840F001000860704700BF80B584B013
:1025E000039041F20400CEF20000006802900398CC
:1025F00040F20001C2F2000109684DF68362C4F2A4
:102600001B32A1FB0221890C48430190FFE702988D
:1026100041F20401CEF20001096800F007F80199C7
:10262000884201D2FFE7F2E704B080BD82B001909A
:10263000009100980199401A02B0704780B584B0AB
:10264000039041F20400CEF200000068029003986B
:1026500040F20001C2F20001096844F6D352C1F20F
:102660006202A1FB0221890948430190FFE7029819
:1026700041F20401CEF200010968FFF7D7FF01998A
:10268000884201D2FFE7F2E704B080BD41F21801B1
:10269000C4F20201086840F0080008600421C4F296
:1026A0000101086840F00070086040F61043C4F271
:1026B00001030220186040F60041C4F201010868DD
:1026C0004FF0080C6CF30710086040F61442C4F297
:1026D00001024020106008686CF31B600860042051
:1026E000106008686CF30B200860202010600868F8
:1026F0006CF317500860C2F800C008686CF30F3024
:1027000008601020106008686CF313400860012016
:1027100010600868032262F30300086080201860DC
:10272000086862F31F700860704700BF80B582B010
:1027300040F60840C4F201000068C0F34000019078
:102740001E20FFF77BFF9DF8040002B080BD00BF94
:1027500040F60840C4F201000068C0F380107047E2
:1027600040F60840C4F201000068C0F380007047E2
:1027700040F60840C4F201000068C0F34010704702
:1027800040F60840C4F201000068C0F3C000704782
:1027900040F60840C4F201000068C0F30010704722
:1027A00040F29800C2F200000078704781B00090BB
:1027B0000098B0FA80F041090120884040F61041AD
:1027C000C4F20101086001B0704700BF81B0009001
:1027D0000098B0FA80F040090001C11D0120884036
:1027E00040F61041C4F20101086001B070470000DA
:1027F00080B541F21803C4F20203186840F00500E6
:10280000186040F6000CC4F2010CDCF800000B214B
:1028100061F31750CCF80000DCF8000061F31F7082
:10282000CCF8000040F61001C4F201010420086059
:10283000DCF800204FF0030E6EF30B22CCF80020E2
:1028400010220A60DCF800206EF31342CCF800205E
:1028500008220A60DCF800206EF30F32CCF800206A
:102860001A6842F480521A60086043F20001C4F210
:102870000101088840F010000880088840F002003C
:102880000880088840F001000880088820F4006073
:102890000880088820F080000880088840F4407094
:1028A0000880088840F004000880088840F0400054
:1028B000088080BD80B582B0ADF8060040F61001FA
:1028C000C4F2010100914FF480200860BDF80600B9
:1028D00043F20C01C4F2010108800120FFF77EFEE3
:1028E000009904200860FFE743F20800C4F20100E9
:1028F00000888007002801D4FFE7F5E702B080BD1B
:1029000080B582B08DF807009DF80700FFF7D2FF71
:1029100002B080BD80B582B08DF8070040F610018E
:10292000C4F2010100914FF4801008609DF8070087
:10293000FFF7C0FF00991020086002B080BD00BF03
:1029400080B582B08DF807008DF806109DF807005D
:10295000FFF7E0FF9DF80600FFF7D2FF02B080BD51
:1029600080B582B040F61001C4F2010101914FF42C
:10297000002008609620FFF731FE019908200860CA
:1029800002B080BD80B586B0FFF732FFFFF7E8FFE9
:10299000FD2003901221FFF7D3FFAE20FFF7BAFF0F
:1029A000B3209121FFF7CCFFCA203F21FFF7C8FFDA
:1029B000A220049000210191FFF7C2FF0199A120FC
:1029C000FFF7BEFFA02002901421FFF7B9FF1120EE
:1029D000FFF796FFAB200121FFF7B2FF0299B42069
:1029E000FFF7AEFF0398FFF78BFF41F2A200C2F2A0
:1029F00000008178C120FFF7A3FFC7200F210591B8
:102A0000FFF79EFFB920FFF785FFB120E221FFF716
:102A100097FF0499D120FFF793FF2020FFF770FF65
:102A20000599BB20FFF78CFFB6200821FFF788FF30
:102A3000BE200721FFF784FFA620FFF76BFFA92028
:102A4000FFF768FF00F006F8AF20FFF763FF06B05E
:102A500080BD00BF80B584B01520FFF75BFF00206C
:102A60000190FFF74DFF7720FFF74AFF7520FFF732
:102A700051FF0198FFF744FF7F20FFF741FF5C20E3
:102A8000FFF748FF01980390FFE703987F2814DCC5
:102A9000FFE700200290FFE70298772808DCFFE7B5
:102AA0000020FFF72DFFFFE7029801300290F3E7C7
:102AB000FFE7039801300390E7E704B080BD00BF53
:102AC00080B582B08DF807009DF8070000F03F0048
:102AD0008DF807007520FFF71DFF9DF80700FFF731
:102AE0000FFF3F20FFF70CFF02B080BD80B582B022
:102AF0008DF807009DF8070000F03F008DF80700F3
:102B00001520FFF707FF9DF807001C30C0B2FFF744
:102B1000F7FE5B20FFF7F4FE02B080BD80B586B003
:102B20008DF817009DF8170000F080008DF8160052
:102B30009DF8170000F04000C0088DF815009DF8C2
:102B4000170000F0200080008DF814009DF8170099
:102B500000F0100040088DF813009DF8170000F0F9
:102B6000080000018DF812009DF8170000F0040025
:102B700040008DF811009DF8170000F00200800160
:102B80008DF810009DF8170000F00100C0008DF8CE
:102B90000F009DF8161041EA510040EA910040EA0A
:102BA000D1008DF80E009DF8151041EA510040EA61
:102BB000910040EAD1008DF80D009DF8141041EA13
:102BC000510040EA910040EAD1008DF80C009DF8D8
:102BD000131041EA510040EA910040EAD1008DF81B
:102BE0000B009DF8121041EA510040EA910040EAC2
:102BF000D1008DF80A009DF8111041EA510040EA19
:102C0000910040EAD1008DF809009DF8101041EACA
:102C1000510040EA910040EAD1008DF808009DF88B
:102C20000F1041EA510040EA910040EAD1008DF8CE
:102C300007009DF80E009DF80D1008438DF8060062
:102C40009DF80C009DF80B1008438DF805009DF8C9
:102C50000A009DF8091008438DF804009DF808004B
:102C60009DF8071008438DF803009DF80600FFF754
:102C700047FE9DF80500FFF743FE9DF80400FFF7AF
:102C80003FFE9DF80300FFF73BFE06B080BD00BF8E
:102C900080B588B0ADF81E00ADF81C108DF81B2073
:102CA00005939DF81B0001280DD1FFE705980178D9
:102CB0004FF60060CFF6FF7000EB0110ADF8120088
:102CC0001020039009E0059801781A204143A1F5EE
:102CD0005071ADF812100390FFE700200290FFE75B
:102CE0000298039988424CDAFFE79DF81B000128FF
:102CF00016D1FFE7BDF812000299014446F64630AE
:102D0000C0F6000000EB410149788DF80710BDF8CE
:102D10001210029A114430F811008DF8060015E0E7
:102D2000BDF812000299014443F6C650C0F60000F7
:102D300000EB410149788DF80710BDF81210029A96
:102D4000114430F811008DF80600FFE7BDF81C00B3
:102D500002990844C0B2FFF7B3FE9DF81E00FFF7CA
:102D6000C5FE5C20FFF7D6FD9DF80700FFF7D6FEF5
:102D70009DF80600FFF7D2FEFFE7029801300290AF
:102D8000AEE708B080BD00BF80B584B0ADF80E00DE
:102D9000ADF80C108DF80B200193FFE70198007837
:102DA00050B3FFE701980078812812DBFFE7BDF8F8
:102DB0000E00BDF80C109DF80B20019BFFF768FF7B
:102DC000BDF80E000430ADF80E00019802300190FD
:102DD00011E0BDF80E00BDF80C109DF80B20019B12
:102DE000FFF756FFBDF80E000530ADF80E00019854
:102DF00001300190FFE7D1E704B080BD80B582B01B
:102E00008DF807008DF8061000929DF807001B3022
:102E10008DF80700FFE70098007888B1FFE79DF87C
:102E200007009DF80610009A127800F00BF89DF844
:102E3000070002308DF80700009801300090EAE7A3
:102E400002B080BD80B588B08DF81F008DF81E10CF
:102E50008DF81D209DF81D00202805DBFFE79DF85B
:102E60001D007F2804DBFFE720208DF81D00FFE711
:102E700009208DF81C001520FFF74CFD9DF81F0060
:102E8000FFF73EFD9DF81F000130C0B2FFF738FD8F
:102E90007520FFF73FFD9DF81E00FFF731FD9DF8FF
:102EA0001E000730C0B2FFF72BFD5C20FFF732FD9C
:102EB00000200690FFE70698072864DCFFE7002063
:102EC0000590FFE70598022855DCFFE79DF81D00F7
:102ED00000EB400147F63420C0F6000000EB410152
:102EE000059A01EB420111F8C01C069AD14001F08D
:102EF00001018DF813109DF81D1001EB410100EB4D
:102F00004100059900EB410010F8BF0C0699C8403C
:102F100000F001008DF812009DF8130028B1FFE7C2
:102F20009DF81C000001029002E000200290FFE7E3
:102F300002988DF811009DF8120030B1FFE79DF85E
:102F40001C0000F00F00019002E000200190FFE75C
:102F500001988DF810009DF811009DF8101008439D
:102F60008DF80F009DF80F00FFF7CAFCFFE70598EA
:102F700001300590A6E70020FFF7C2FCFFE70698A6
:102F80000130069097E708B080BD00BF80B586B0DD
:102F9000ADF81600ADF814108DF813209DF813004D
:102FA000202805DBFFE79DF813007F2804DBFFE7FF
:102FB00020208DF81300FFE700200390FFE703981F
:102FC000072836DCFFE700200290FFE7029805287B
:102FD0002ADCFFE79DF8130000EB400147F63420A0
:102FE000C0F6000000EB41000299084410F8C00C44
:102FF0008DF807009DF807000399C840C00770B11D
:10300000FFE7BDF8160002990844BDF81410039AB2
:10301000114480B289B20F2200F00EF8FFE7FFE7FB
:10302000029801300290D1E7FFE703980130039046
:10303000C5E706B080BD00BF82B0ADF80600ADF8B0
:1030400004108DF80320BDF80600FF2805DCFFE71B
:10305000BDF80400402801DBFFE72AE0BDF80400CA
:10306000C001BDF8061000EB5100ADF800009DF85E
:103070000600C00778B9FFE7BDF8002040F2A201C2
:10308000C2F20001885C00F00F009DF8033040EAB6
:10309000031088540DE0BDF8002040F2A201C2F2F6
:1030A0000001885C00F0F0009DF80330184388545C
:1030B000FFE702B0704700BF80B582B0ADF80600F0
:1030C000ADF804100092FFE70098007888B1FFE7A0
:1030D000BDF80600BDF80410009A1278FFF756FFFD
:1030E000BDF806000630ADF80600009801300090EB
:1030F000EAE702B080BD00BF81B000200090FFE78A
:103100000098B0F5805F0CDAFFE7009A40F2A20168
:10311000C2F2000100208854FFE7009801300090BF
:10312000EEE701B0704700BF80B582B08DF80700B0
:103130008DF806101520FFF7EDFB2520FFF7E0FBCB
:103140005B20FFF7DDFB7520FFF7E4FB9DF8070030
:10315000FFF7D6FB9DF80600FFF7D2FB5C20FFF7D8
:10316000D9FB00200090FFE70098B0F5805F0DDAF2
:10317000FFE7009940F2A200C2F20000405CFFF7B6
:10318000BFFBFFE7009801300090EDE702B080BD83
:1031900082B08DF8070000200090FFE70098B0F59E
:1031A000805F0DDAFFE79DF80700009A40F2A20168
:1031B000C2F200018854FFE7009801300090EDE76B
:1031C00002B0704780B584B0039000200090FFF7F4
:1031D00077FC0098FFF78AFC5C20FFF79BFB0098C8
:1031E0000290FFE702983F2819DCFFE700200190DA
:1031F000FFE701981F280DDCFFE70398029A019969
:1032000001EB4211405CFFF789FCFFE701980130B8
:103210000190EEE7FFE7029801300290E2E704B088
:1032200080BD00BF80B588B000200090FFF748FC4B
:103230000098FFF75BFC5C20FFF76CFB00988DF8B3
:103240001F000690FFE706981F2829DCFFE70020F3
:103250000590FFE705980F281ADCFFE7002004908F
:10326000FFE70498072809DCFFE79DF81F00FFF738
:1032700047FBFFE7049801300490F2E79DF81F0038
:1032800011308DF81F00FFE7059801300590E1E748
:1032900000208DF81F00FFE7069801300690D2E766
:1032A000FF208DF81F0000200390FFE703981F28E0
:1032B00029DCFFE700200290FFE702980F281ADCC4
:1032C000FFE700200190FFE70198072809DCFFE7EE
:1032D0009DF81F00FFF714FBFFE7019801300190F4
:1032E000F2E79DF81F0011388DF81F00FFE70298E4
:1032F00001300290E1E7FF208DF81F00FFE70398FF
:1033000001300390D2E708B080BD00BF80B588B01F
:1033100055208DF8100041208DF8110052208DF8B5
:10332000120054208DF813003A208DF8140020204C
:103330008DF8150041F2A900C2F20000019000785A
:1033400004A90291063100F01BF801980299407817
:10335000093100F015F80198029980780C3100F0DD
:103360000FF8029A002103918DF81F100846FFF70D
:10337000A3FE03981F21FFF7D7FE08B080BD00BF52
:1033800082B08DF8070000919DF80700010947F60B
:103390006840C0F60000415C009A11709DF807106B
:1033A00001F00F01405C009948700099202088705E
:1033B00002B0704780B541F20002C4F20202106808
:1033C00040F00100106041F20401C4F202010868FB
:1033D0000023CFF6FF031840086010684FF6FF7314
:1033E000CFF6F66318401060106820F4802010605B
:1033F000086820F4FE00086041F20801C4F20201EE
:103400004FF41F00086000F009F84EF60851CEF2A4
:1034100000014FF00060086080BD00BF80B500F083
:1034200093F880BD84B0002003900290019041F297
:103430000400C4F20200006800F00C00039003983E
:10344000009040B1FFE7009804280ED0FFE70098F5
:10345000082814D056E040F20001C2F2000141F207
:103460000020C0F27A00086056E040F20001C2F28B
:10347000000141F20020C0F27A0008604CE041F205
:103480000400C4F20200016801F4701102910068A6
:1034900000F4803001900299022000EB91400290EC
:1034A000019860B9FFE7029840F60011C0F23D01B3
:1034B000484340F20001C2F20001086021E041F2FD
:1034C0000400C4F202000068800300280CD5FFE766
:1034D000029840F60011C0F23D01484340F200015D
:1034E000C2F2000108600BE0029841F20021C0F234
:1034F0007A01484340F20001C2F200010860FFE790
:10350000FFE709E040F20001C2F2000141F20020B1
:10351000C0F27A000860FFE741F20400C4F2020042
:103520000068C0B2010943F6B650C0F60000405C26
:103530000390039A40F20001C2F200010868D040F3
:10354000086004B0704700BF84B000200390029070
:1035500041F20001C4F20201086840F480300860C2
:10356000FFE741F20000C4F20200006800F40030FE
:103570000290039801300390FFE702990020019028
:1035800039B9FFE70398B0F5A06018BF012001909A
:10359000FFE70198C0070028E3D1FFE741F20000F0
:1035A000C4F2020000688003002803D5FFE7012071
:1035B000029002E000200290FFE70298012851D11A
:1035C000FFE742F20001C4F20201086840F0100077
:1035D0000860086820F003000860086840F00200F6
:1035E000086041F20401C4F2020100910868086019
:1035F00008680860086840F480600860086820F483
:103600007C100860086840F4E810086041F200018E
:10361000C4F20201086840F080700860FFE741F2E0
:103620000000C4F2020000688001002801D4FFE716
:10363000F5E741F20401C4F20201086820F003003A
:103640000860086840F002000860FFE741F20400EB
:10365000C4F20200006800F00C00082801D0FFE767
:10366000F4E700E0FFE704B07047000080B582B0E7
:1036700041F21801C4F20201086840F00400086039
:1036800040F6100CC4F2010C0120CCF8000040F60A
:103690000002C4F201021168082363F30301116000
:1036A0000221CCF80010116863F30711116040216A
:1036B000CCF80010116863F31B61116041F21C012A
:1036C000C4F2020108601822C4F2000240F20111A3
:1036D00011802023C4F20003222119800823C4F2A0
:1036E0000003032119802C23C4F2000319801188E0
:1036F0004FF2F003194311804FF080410A884FF6D2
:103700007F731A430A8008800821C4F20101086807
:10371000086040F20041C4F20101086840F0400036
:10372000086040F20C41C4F20101086840F040001A
:1037300008601720019000F011F801980F2100F0A7
:103740001FF80C21C4F20001088840F00100088035
:103750001C2000F003F802B080BD00BF81B08DF8DE
:1037600003009DF9031001F01F02012090404A0957
:103770004EF20011CEF2000141F8220001B0704774
:1037800082B08DF8070000919DF90700B0F1FF3F6E
:103790000CDCFFE7009800019DF8071001F00F0115
:1037A0004EF61452CEF20002885409E0009800014F
:1037B0009DF907104EF20042CEF200028854FFE756
:1037C00002B070472420C4F200000088704700BF98
:1037D0004FF08040008800F01001012080EA1110B5
:1037E0007047000041F21801C4F20201086840F07D
:1037F0000400086040F61403C4F201034FF4807023
:10380000186040F60401C4F201010868032262F363
:10381000030008604FF400701860086862F3071036
:1038200008604FF480601860086862F30B2008603D
:103830004FF480501860086862F3134008604FF43A
:1038400000601860086862F30F300860704700BFBE
:1038500081B000900098000100F10A010120884029
:1038600040F61001C4F20101086001B0704700BFCA
:1038700081B000900098000100F10C010120884007
:1038800040F61001C4F20101086001B0704700BFAA
:1038900081B000900098000100F10B0101208840E8
:1038A00040F61001C4F20101086001B0704700BF8A
:1038B00081B000900098000100F1080101208840CB
:1038C00040F61001C4F20101086001B0704700BF6A
:1038D00081B000900098000100F1090101208840AA
:1038E00040F61001C4F20101086001B07047000009
:1038F00080B582B041F21801C4F20201086844F2B6
:1039000004021043086040F60401C4F20101086893
:1039100020F470600860086840F40060086043F6B6
:103920000801C4F2010140F27120088043F60C0145
:10393000C4F20101088820F48050088043F6100288
:10394000C4F20102108820F440501080088820F44E
:1039500080600880088842F20402104308800888CA
:1039600040F0200008802520019000F007F8019821
:10397000002100F015F802B080BD00BF81B08DF8C5
:1039800003009DF9031001F01F02012090404A0935
:103990004EF20011CEF2000141F8220001B0704752
:1039A00082B08DF8070000919DF90700B0F1FF3F4C
:1039B0000CDCFFE7009800019DF8071001F00F01F3
:1039C0004EF61452CEF20002885409E0009800012D
:1039D0009DF907104EF20042CEF200028854FFE734
:1039E00002B0704782B0009043F60000C4F20100BC
:1039F0000088800600280BD5FFE743F60400C4F2D8
:103A0000010000880099087001208DF8070003E08C
:103A100000208DF80700FFE79DF8070002B070470F
:103A200040F29800C2F200000078704781B043F67F
:103A30000000C4F2010000888006002831D5FFE7AD
:103A400043F60400C4F2010000888DF803009DF8DD
:103A5000031040F27900C2F2000003785A1C027091
:103A600041F2A902C2F20002D1540078032817DB08
:103A7000FFE740F27901C2F200010020087040F235
:103A8000A101C2F200010120087041F2A900C2F2B6
:103A90000000407840F29801C2F200010870FFE790
:103AA000FFE701B07047000080B582B040F22441CA
:103AB000C4F200010888019000200880019842F2B9
:103AC0001D5188421FD3FFE7019842F63B0188420F
:103AD00019D8FFE740F29700C2F20000007890B9D1
:103AE000FFE740F28401C2F200010888013008803B
:103AF00040F62400C4F20000008840F29001C2F2B7
:103B000000010880FFE740F29700C2F20000007851
:103B10000146009120B1FFE70098012856D0C4E08B
:103B20000198B0F5966F18D9FFE7019840F2DB5184
:103B3000884212D8FFE740F29701C2F2000101204B
:103B4000087040F28701C2F200010020087040F2C4
:103B50008801C2F200010860AEE0019840F21B410A
:103B6000884232D3FFE7019840F29B4188422CD82B
:103B7000FFE740F29300C2F200008078022810D0E4
:103B8000FFE740F29300C2F2000080785E2808D080
:103B9000FFE740F29300C2F2000080785D2807D171
:103BA000FFE740F29301C2F20001EE208870FFE7C8
:103BB00040F29201C2F200010120087040F2970128
:103BC000C2F2000100200870FFE775E0019850285C
:103BD00005D3FFE70198B0F58C7F07D9FFE740F2E6
:103BE0009701C2F200010020087065E040F28801F0
:103BF000C2F200010868400808600198A12809D3B2
:103C0000FFE740F28801C2F20001086840F000407E
:103C10000860FFE740F28700C2F20000017801313E
:103C20000170007820283FDBFFE740F28801C2F2F4
:103C300000010A6840F29300C2F2000002700A68B4
:103C4000120A42700A68120C82700968090EC1706B
:103C500040F29202C2F200020121117080785E28C7
:103C600010D0FFE740F29300C2F2000080785D2898
:103C700008D0FFE740F29300C2F2000080780228EB
:103C800011D1FFE7172000F019F840F28E01C2F2BF
:103C900000014FF49670088040F29701C2F20001D3
:103CA00000200870FFE7FFE706E040F29701C2F24C
:103CB000000100200870FFE702B080BD81B08DF8E0
:103CC00003009DF9031001F01F02012090404A09F2
:103CD0004EF28011CEF2000141F8220001B070478F
:103CE00083B0019040F29200C2F200000078F0B17F
:103CF000FFE740F29201C2F200010020087000903C
:103D0000FFE7009803280EDCFFE7009940F29300DC
:103D1000C2F20000405C0199009A8854FFE70098C5
:103D200001300090EDE701208DF80B0003E000204A
:103D30008DF80B00FFE79DF80B0003B0704770474C
:103D400070477047754600F02BF8AE46050069468F
:103D5000534620F00700854618B020B5FCF722FA3C
:103D6000BDE820404FF000064FF000074FF000087C
:103D70004FF0000BAC46ACE8C009ACE8C009ACE8B9
:103D8000C009ACE8C00921F007018D46704710B5A5
:103D90000446AFF300802046BDE81040FCF7EDB9C3
:103DA000004870471800002001491820ABBEFEE70C
:103DB0002600020070470000000000000000010221
:103DC00003040607080900000000000000000000CE
:103DD00000000000000000000000000000000000E3
:103DE00000000000000000000000000000000000D3
:103DF0000000000000000000000000000000800043
:103E000000008000000080000000800000008000B2
:103E100000008000000080000000800000008000A2
:103E20000000000080008000000000000000000092
:103E300000004A0100004A01000042000000840026
:103E40000000000000000000000000000000000072
:103E50000000000000000000000000000000000062
:103E60000000000000000000000000000000000052
:103E7000100400005415000010040000100400009D
:103E800054150000100400000000000000000000B5
:103E900000000000000000008000000080004001E1
:103EA00010040000080800000008000000044001A1
:103EB0001000000008000000080800001004400185
:103EC0008000000080000000000000000000000AE8
:103ED00000008020000082200000080A000020006E
:103EE000000080000000000200002808000082207E
:103EF0000000820000002800000000000000000018
:103F0000000040011004000008080000080800003C
:103F10001004400110040000080800000410000014
:103F20000410000008080200140448010400000006
:103F30000000000000002000000020000000000041
:103F40000000000000000000000000000000000071
:103F50000000000000000000000000000000000061
:103F6000000000000000000000000001000400004C
:103F700000080000001000000020000000200000E9
:103F800000200000002000000010000000080000D9
:103F900000040001000000000000000000004000DC
:103FA00010000000080000000400000002000000F3
:103FB00002000000020000000200000004000000F7
:103FC0000800000010004000000000000000000099
:103FD0000000000000000000000000000000800061
:103FE000000088082002800020028808000080006D
:103FF00000000000000000000000000000000000C1
:1040000000000000000000000000000000000000B0
:104010008000000080000000A80A0000800000006E
:104020008000000000000000000000000000000010
:104030000000000000000000000000000000000080
:104040000000000000000000000000000000000070
:10405000000000000000000000008000400180001F
:1040600080000001000200000000000000000000CD
:104070000000000000000000000000000000000040
:1040800000005415000000000000000000000000C7
:104090000000000000000000000000000000000020
:1040A0000000000000000000000000000000000010
:1040B0000000000000000000000000000000000000
:1040C00000008000400180000000000000000000AF
:1040D00000000000000008000000100000002000A8
:1040E000000040000000800000000001000000020D
:1040F0000000000400000008000000100000002084
:10410000000000000000000000004001100400005A
:104110000410000002200000022000000220000025
:104120000220000002200000022000000410000015
:1041300010044001000000000000000000008000AA
:104140000000800200008008000080000000800065
:10415000000080000000800000008000000080005F
:10416000000080000000500500000000000000007A
:1041700000004001100400000410000002200000B4
:1041800002200000040000001000000040000000B9
:1041900000010000000400000010AA2A0000000036
:1041A00000000000000040011004000008080000AA
:1041B0000800000010004000100000000400000093
:1041C0000200000002000000041000001004400182
:1041D000000000000000000000000820000008208F
:1041E000000008200000082000000820000008202F
:1041F0000000AA2A000008000000080000000800D3
:10420000000008000000000000000000000054153D
:104210000000001000000010000000100000401519
:104220001000000004000000020000000200000076
:104230000400000010004015000000000000000015
:1042400000004001100400000410000002200000E3
:104250000020400110240010042000000220000073
:1042600002200000041000001004400100000000C3
:10427000000000000000AA2A00000400000008005E
:10428000000010000000200000004000000080003E
:10429000000000010000000200000004000000080F
:1042A00000000000000000000000400110040000B9
:1042B0000808000008080000100440011004000075
:1042C0000410000002200000022000000410000082
:1042D0001004400100000000000000000000400148
:1042E0001004000004100000022000000220000062
:1042F000021004001204400102000000020000004D
:104300000410000010044001000000000000000044
:10431000000000000000000000008000400180005C
:10432000000000000000000000000000000080000D
:1043300040018000000000000000000000000000BC
:1043400000000000000000000000000000008000ED
:10435000400180000000000000000000000000009C
:104360000000800040018000800000010002000089
:10437000000000000000000000000000000000003D
:104380000000000008002000800000020008000279
:104390008000200008000000000000000000000075
:1043A000000000000000000000000000000000000D
:1043B00000000000000000000000000000000000FD
:1043C000541500000000541500000000000000001B
:1043D00000000000000000000000000000000000DD
:1043E00000000000000000000000000000080002C3
:1043F000800020000800200080000002000800006B
:1044000000000000000000000000000000000000AC
:104410000000000000000000000040011004000047
:104420000808000008000000100000004000000024
:10443000800000008000000080000000000080007C
:1044400040010000000000000000000040011004D6
:1044500000000810000024214004244000082440EB
:10446000000828404004202100000010000000083F
:104470000002800000000000000000000000A00A10
:104480000820000004400000044000000440000038
:1044900004400000044050150440000004400000A7
:1044A0000440000004400440000000000000000040
:1044B0000000A02A080000200400002004000020C2
:1044C000040000200800A02A0800002004000020AA
:1044D00004000020040000200800A02A00000000C2
:1044E000000000000000A00A0820000004400000B6
:1044F00000400000004000000040000000400000BC
:104500000040000000400000044000000820A00A15
:1045100000000000000000000000A0AA0800004009
:10452000040000400400004004000040040000407B
:10453000040000400400004004000040040000406B
:104540000800A0AA00000000000000000000A82A47
:1045500000000020000000200000002000000020DB
:104560000000802A00000020000000200000002041
:10457000000000200000A82A000000000000000049
:104580000000A82A000000200000002000000020F9
:10459000000000200000802A000000200000002011
:1045A00000000020000000200000002000000000AB
:1045B000000000000000A00A0820000004400000E5
:1045C0000440000004400000004000000040500192
:1045D0000440000004400000044000000820A00A3D
:1045E0000000000000000000000002200000022087
:1045F0000000022000000220000002200000AA2A81
:104600000000022000000220000002200000022022
:104610000000022000000000000000000000A002D6
:10462000000080000000800000008000000080008A
:10463000000080000000800000008000000080007A
:10464000000080000000A002000000000000000048
:104650000000AC02040000000400000004000000A0
:10466000040000000400000004000000040000003A
:1046700004000000040000000808A0020000000080
:104680000000000000000440000010400000404016
:104690000000004100000044000000500000004401
:1046A00000000041000040400000104000000440B5
:1046B000000000000000000000000040000000407A
:1046C00000000040000000400000004000000040EA
:1046D00000000040000000400000004000000040DA
:1046E00000005455000000000000000000000220FF
:1046F00000000A28000012240000222200004221AB
:1047000000008220000002200000022000000220A1
:104710000000022000000220000000000000000055
:1047200000000220000002200008022000040220F5
:10473000000202200001022080000220400002202E
:1047400020000220100002200800022000000000CB
:10475000000000000000A00A082000000440000043
:104760000440000004400000044000000440000039
:104770000440000004400000044000000820A00A9B
:1047800000000000000000000000A06A08000040D7
:104790000400004004000040040000400400004009
:1047A0000800A06A00000040000000400000004037
:1047B0000000004000000000000000000000A00A0F
:1047C00008200000044000000440000004400000F5
:1047D00004400000044000000440000004400000C9
:1047E000044080000820A00A000010000000000023
:1047F0000000A06A080000400400004004000040DF
:1048000004000040040000400800A06A00002040AE
:1048100000000840000004400000044000000000C8
:10482000000000000000A00A082000000440000072
:1048300004400000004000000020A00A0800000022
:104840000400000004400000044000000820A00A0A
:1048500000000000000000000000AA2A0000800004
:104860000000800000008000000080000000800048
:104870000000800000008000000080000000800038
:104880000000800000000000000000000000044064
:104890000440000004400000044000000440000008
:1048A00004400000044000000440000004400000F8
:1048B000044000000820A00A0000000000000000E2
:1048C0000000022000000220000002200000022060
:1048D000000002200000041000000808000010047E
:1048E00000002002000040010000800000000000E5
:1048F00000000000000004400000044000000440EC
:104900000000044000000440000004410000844214
:1049100000004444000024480000145000000440FB
:104920000000000000000000000004100000080863
:104930000000100400002002000040010000800080
:1049400000004001000020020000100400000808E0
:10495000000004100000000000000000000004102F
:1049600000000808000010040000200200004001C0
:104970000000800000008000000080000000800037
:104980000000800000008000000000000000000027
:104990000000541500000800000010000000200076
:1049A0000000400000008000000000010000000244
:1049B0000000000400000008000054150000000082
:1049C000000000000000A002000000020000000241
:1049D00000000002000000020000000200000002CF
:1049E0000000000200000002000000020000A0021F
:1049F000000000000000000000000800000010009F
:104A000000002000000040000000800000000001C5
:104A10000000000200000004000000080000001078
:104A20000000002000000000000000000000A002C4
:104A300000002000000020000000200000002000F6
:104A400000002000000020000000200000002000E6
:104A5000000020000000A002000000000000000094
:104A60000000800000002002000008080000000094
:104A70000000000000000000000000000000000036
:104A80000000000000000000000000000000000026
:104A90000000000000000000000000000000000016
:104AA0000000000000000000000000000000000006
:104AB00000000000000000000000000000000000F6
:104AC00000005455000000000000A002000000009B
:104AD00000000000000000000000000000000000D6
:104AE00000000000000000000000000000000000C6
:104AF00000000000000000000000000000000000B6
:104B00000000000000000000000040011004000050
:104B100008100000480110040000081000000810F0
:104B20000000081010044801000000000000000010
:104B300000000000000000100000001000008012C3
:104B400020080010100000101000001010000010CD
:104B5000100000101000001020088012000000005B
:104B60000000000000000000000000000000000045
:104B7000000080022008000010100000001000005B
:104B8000001000000010000010100000200880023B
:104B90000000000000000000000000000000040011
:104BA000000004000000A400080204000008040043
:104BB00000080400000804000008040000080400C5
:104BC0000802A40000000000000000000000000037
:104BD000000000000000000000008002200800002B
:104BE0001010000010100000501500000010000010
:104BF00010100000200880020000000000000000EB
:104C00000000000000000000A000080200000404F2
:104C10000000000400000004800A000400000004FA
:104C20000000000400000004000000040000000078
:104C30000000000000000000000000000000000074
:104C400000004801180400000808000008080000DF
:104C500008080000180440010800000008080000CF
:104C600010044001000000000000000000000010DF
:104C7000000000100000801220080010100000103A
:104C800010000010100000101000001010000010A4
:104C900010001010000000000000000000000000E4
:104CA0000000000080004001800000000000800241
:104CB00000008000000080000000800000008000F4
:104CC000000080000000500500000000000000000F
:104CD000000000001000280010000000500100003B
:104CE0001000000010000000100000001000000084
:104CF000100800001008000010044001000000002F
:104D000000000000000000000000000000000000A3
:104D10000000080800002008000080080000000AC9
:104D20000000000A000080080000200800000808B9
:104D3000000000000000000000000015000000015D
:104D4000000000010000000100000001000000015F
:104D5000000000010000000100000001000000014F
:104D600000005015000000000000000000000000DE
:104D700000000000000000000000282A000082203F
:104D8000000082200000822000008220000082209B
:104D900000008220000082200000000000000000CF
:104DA00000000000000000000000000000000015EE
:104DB000400010100000081000000810000008104B
:104DC000000008100000081000000810000000009B
:104DD00000000000000000000000000000000000D3
:104DE00000008002200800001010000010100000D9
:104DF00010100000101000001010000020088002A9
:104E000000000000000000000000000000000000A2
:104E100000000000000040151008001008000010FD
:104E2000080000100800001008001010A00A001070
:104E30000000001000000010000000000000000052
:104E400000000000000000000000A8021008080098
:104E500000100800001008000010080000100808EA
:104E600050050800000008000000080000000000D5
:104E70000000000000000000000000000000A0088A
:104E800008020008040400080000000800000008F0
:104E900000000008000000080000000800000000FA
:104EA0000000000000000000000000000000000002
:104EB0000000800220080000101000100000000810
:104EC0008002200000001000100000002008800276
:104ED00000000000000000000000000000000008CA
:104EE0000000405500080000000800000008000015
:104EF0000008000000080000000800000008000092
:104F0000000450010000000000000000000000004C
:104F10000000000000000000000010101000001051
:104F20001000001010000010100000101000001001
:104F300010000010400000150000000000000000FC
:104F4000000000000000000000000000000004401D
:104F5000000004400000082000001010000020089D
:104F6000000040040000800200000001000000007A
:104F70000000000000000000000000000000000031
:104F80000000082000000820000008200000082180
:104F900000000821000008210000882200005014B1
:104FA0000000000000000000000000000000000001
:104FB00000000000000008080000100400002002AB
:104FC00000004001800040010000200200001004A9
:104FD00000000808000000000000000000000000C1
:104FE00000000000000000000000080808000008A1
:104FF000080000080800000808001004480100002C
:105000000800000008080000100440010000000033
:105010000000000000000000000000000000A00AE6
:10502000000020000000400000008000000000019F
:1050300000000002000000040000A00A00000000C0
:1050400000000000000000002000800000000001BF
:105050000000000100000002000000080000000243
:10506000000000010000000100008000200000009E
:10507000000000000000000000000000000000012F
:10508000000000010000000100000001000000011C
:10509000000000010000000100000001000000010C
:1050A00000000001000000000000000000000000FF
:1050B0000008000200000001000000010000800064
:1050C000000020000000800000000001000000013E
:1050D00000000002000800000000000000000000C6
:1050E00000000000000000000000000000000000C0
:1050F0000000000A000084200000280000000000DA
:10510000000000000000000000000000000000009F
:10511000000000000000000000000000000000008F
:10512000000000000000000000000000000000007F
:10513000000000000000000000000000000000006F
:106CA00000000000000000000000000000002000C4
:106CB000000020000000AA020000200000002000C8
:106CC00000000000000000000000000000000000C4
:106CD00000000000000000000000000000000000B4
:106CE00000000000000000000000000000000000A4
:106CF000000000000000AA020000000000000000E8
:106D00000000000000000000000000000000000083
:106D10000000000000000000000000000000000073
:106D20000000000000000000000000000000000063
:106D30000000000000000000000000000000000053
:106D4000000000000000000000005000040180006E
:106D500002024000020220000202100002020800AB
:106D60000401500000000000000020000000A0000E
:106D70000000200000002000000020000000200093
:106D80000000A80000000000000050010400000204
:106D90000400000008000000200000008000000047
:106DA0000002A802000000000000A000080200008D
:106DB000040000000800A00004000000040000001F
:106DC0000802A000000000000000080000002800E9
:106DD000000088000000AA0200000800000008006F
:106DE00000000800000000000000A80200000002EF
:106DF0000000A002080000000400000004000000E1
:106E00000802A00000000000000050000401000083
:106E10000002500004020000020200000202000012
:106E200004015000000000000000A8020000100053
:106E30000000200000004000000080000000000171
:106E400000000002000000000000500004010000EB
:106E500004015000040100000202000002020000D0
:106E60000401500000000000000050000401000078
:106E700002020000020200000201500002000000B5
:106E800004015000000000000000000000000000AD
:106E900000000000000000000000000000000000F2
:106EA00000000000000000000000000000000000E2
:106EB00000000000000000000000000000000000D2
:106EC00000000000000000000000000000000800BA
:106ED00000002000000080000000200000000800EA
:106EE00000000000000000000000000000000000A2
:106EF00000000000540100005401000000000000E8
:106F00000000000000000000000000000000800001
:106F100000002000000008000000200000008000A9
:106F20000000000000000000000000000000000061
:106F30000000000000000000000000000000000051
:106F40000000000000000000000000000000000041
:106F50000000000000000000000000000000000031
:106F600000000000000000000000A0000000080277
:106F7000000008020000A802000008020000080249
:106F800000000802000000000000A002000008024B
:106F9000000008020000A002000008020000080231
:106FA0000000A002000000000000500004010000EA
:106FB00000020000000200000002000000020000C9
:106FC00004015000000000000000A00208000002C0
:106FD0000400000204000002040000020400000299
:106FE0000800A002000000000000A802000000024B
:106FF000000000020000A0020000000200000002E9
:107000000000A802000000000000A802000000022A
:10701000000000020000A0020000000200000002C8
:107020000000000200000000000050000401000009
:1070300000020000000200002A020000020200001C
:1070400004015000000000000000080200000802D7
:10705000000008020000A802000008020000080268
:1070600000000802000000000000500020000000A6
:107070002000000020000000200000002000000090
:1070800020005000000000000000A80200000800DE
:1070900000000800000008000000080000000802CE
:1070A0000000A00000000000000002010000080134
:1070B0000000200100004001000020010000080144
:1070C00000000201000000000000000200000002B9
:1070D00000000002000000020000000200000002A8
:1070E0000000A80200000000000002028800020266
:1070F0005000020220000202000002020000020210
:10710000000002020000000000000402000004026F
:107110008000040240000402200004021000040267
:107120000000040200000000000050000401000004
:10713000020200000202000002020000020200003F
:1071400004015000000000000000A002080000023E
:1071500004000002040000020800A0020000000277
:1071600000000002000000000000500004010000C8
:1071700002020000020200000202000002020800F7
:1071800004015200000000000000A00208000002FC
:1071900004000002040000020800A0020000100227
:1071A0000000040200000000000050000401000084
:1071B000000200000002A80002000000020000001F
:1071C00004015000000000000000AA02000020009E
:1071D000000020000000200000002000000020002F
:1071E0000000200000000000000002020202000077
:1071F000020200000202000002020000020200007F
:107200000401500000000000000002020000020221
:10721000000002020000040100008800000050008D
:107220000000200000000000000002020000020236
:10723000000002020000020200000202000024011D
:1072400000008800000000000000020200000202AE
:1072500000008800000020000000880000000202FA
:107260000000020200000000000002020000020212
:107270000000880000002000000020000000200026
:1072800000002000000000000000A8020000100024
:10729000000020000000400000008000000000010D
:1072A0000000A80200000000000000000000000034
:1072B00000000000000000000000000000000000CE
:1072C00000000000000000000000000000000000BE
:1072D00000000000000000000000000000000000AE
:1072E000000000000000000000000000000000009E
:1072F000000000000000000000000000000000008E
:10730000000000000000000000000000000000007D
:10731000000000000000000000000000000000006D
:10732000000000000000000000000000000000005D
:10733000000000000000000000000000000000004D
:10734000000000000000000000000000000000003D
:10735000000000000000000000000000000000002D
:10736000000000000000000000000000000000001D
:10737000000050000001040050000401000004015E
:1073800000005400000000000000000000000001A8
:10739000000050010000040100000401000004018D
:1073A000000050010000000000000000000000008C
:1073B0000000500004000001000000010000000176
:1073C0000400500000000000000000000000040065
:1073D000000054000000040100000401000004014A
:1073E0000000540000000000000000000000000049
:1073F00000005000000004010000540100000001E2
:1074000000005000000000000000000000005000DC
:107410000000480000005001000040000000400053
:10742000000040000000000000000000000000001C
:10743000000050000000040100000401500088001A
:107440003400C8000000000000000000000000013F
:1074500000001001400004010000040100000401CC
:107460000000040100000000000000000000000017
:10747000200000000000A00000002000000020000C
:10748000000050000000000000000000100000009C
:10749000000050000000100000001000000010006C
:1074A0000000A0000000000000000000000000013B
:1074B0000000040100001001000040010000100164
:1074C0000000040100000000000000000000A00017
:1074D000000020000000200000002000000020002C
:1074E000000050000000000000000000000000004C
:1074F00000005001000024010000240100002401CC
:107500000000240100000000000000000000000056
:10751000000010014000040100000401000004010B
:107520000000040100000000000000000000000056
:1075300000005000000004010000040100000401EC
:1075400000005000000000000000000000000000EB
:10755000000050010000040100000401000050017F
:10756000000000010000000000000000000000001A
:10757000000050000000040100000401000014019C
:1075800000005400000000000000000000000000A7
:107590000000100140000401000000010000000193
:1075A00000000001000000000000000000000000DA
:1075B0000000540000010000000150000400000021
:1075C0000400500100000000000000000000400026
:1075D000000040001001400000004000000040009A
:1075E0000000280000000000000000000000000073
:1075F0000000040100000401000004010000040177
:107600000000520000000000000000000000000028
:1076100000000401000004010000040100008800D3
:10762000000020000000000000000000000000003A
:107630000000040100000401000004010000240116
