:020000040800F2
:10000000D0200020350200083D0200083F02000811
:1000100041020008430200084502000800000000F9
:10002000000000000000000000000000470200087F
:1000300049020008000000004B0200084D020008C1
:100040004F0200084F0200084F0200084F0200084C
:100050004F0200084F0200084F0200084F0200083C
:100060004F0200084F0200084F0200084F0200082C
:100070004F0200084F0200084F0200084F0200081C
:100080004F0200084F0200084F0200084F0200080C
:100090004F0200084F0200084F02000881090008C3
:1000A0004F0200084F0200084F0200084F020008EC
:1000B000150B00084F020008F50900084F02000860
:1000C0004F0200084F0200084F0200084F020008CC
:1000D0004F020008353700084F0200084F020008A1
:1000E0004F0200084F0200084F02000800F002F81B
:1000F00000F090F80AA090E8000C82448344AAF132
:100100000107DA4501D100F085F8AFF2090EBAE82F
:100110000F0013F0010F18BFFB1A43F0010318473B
:10012000B0990000D0990000103A24BF78C878C177
:10013000FAD8520724BF30C830C144BF04680C60ED
:10014000704700000023002400250026103A28BF35
:1001500078C1FBD8520728BF30C148BF0B60704739
:100160006E2903F0DF84702903F02186662905F0EB
:100170001C84652905F01984672905F01684612916
:1001800005F0158403681B0A28BF41F08001692926
:1001900003F08C84642903F08984752903F0868434
:1001A0006F2903F0AF85782903F0ED85E92903F085
:1001B0004985E42903F04685F52903F04385EF29B5
:1001C00003F0AC85F82903F0EC850368DB0928BF50
:1001D00041F08001632904F0ED82732904F0F2827A
:1001E000E32904F0FD82F32904F002830020704724
:1001F0001FB504F053FB04000020002105F054F863
:10020000401C60600020002105F038F8E0601FBD50
:1002100010B510BD04F014FB1146FFF7E9FF01F023
:1002200061F804F0F1FB03B4FFF7F2FF03BC04F044
:1002300039FC00000948804709480047FEE7FEE70F
:10024000FEE7FEE7FEE7FEE7FEE7FEE7FEE7FEE786
:1002500004480549054A064B70470000BD300008B8
:10026000ED000008D0100020D0200020D018002081
:10027000D018002083B045F20000C0F600000190C5
:1002800041F2B800C2F2000000900020ADF80A0070
:10029000FFE7BDF80A00012811D8FFE70198BDF873
:1002A0000A1050F821000099BDF80A2041F82200F8
:1002B000FFE7BDF80A000130ADF80A00E9E703B036
:1002C000704700BF80B584B045F20000C0F6000062
:1002D000029041F2B800C2F20000019001F04AFB26
:1002E000029801F07BFB00208DF80F00FFE79DF8DE
:1002F0000F00012811D8FFE702989DF80F2000EBAE
:100300008200019951F8221001F0F4FCFFE79DF8FA
:100310000F0001308DF80F00E9E701F04BFB04B04E
:1003200080BD00BF81B000900098006801B07047A8
:1003300080B58AB0099008910998006808998842A8
:1003400001D1FFE7E6E042F20401C4F2020140F20B
:100350002310C4F26750086048F6AB10CCF6EF509B
:10036000086045F20000C0F600000190FFF7DAFFD8
:10037000039045F20400C0F60000FFF7D3FF04909D
:1003800045F20800C0F60000FFF7CCFF059045F2EB
:100390000C00C0F60000FFF7C5FF069045F2100004
:1003A000C0F60000FFF7BEFF019907900998884248
:1003B00003D1FFE7089803902FE0099845F2040164
:1003C000C0F60001884203D1FFE70898049023E0BB
:1003D000099845F20801C0F60001884203D1FFE701
:1003E0000898059017E0099845F20C01C0F6000145
:1003F000884203D1FFE7089806900BE0099845F280
:100400001001C0F60001884203D1FFE70898079069
:10041000FFE7FFE7FFE7FFE7FFE7FFE742F20C0038
:10042000C4F202000068C00708B1FFE7F6E742F235
:100430001001C4F20201086840F00200086042F2B4
:100440001402C4F2020245F20000C0F6000010607F
:10045000086840F040000860FFE742F20C00C4F278
:1004600002000068C00708B1FFE7F6E742F210019A
:10047000C4F20201086820F002000860086840F039
:100480000100086000208DF80B00FFE79DF80B00CD
:10049000042832DCFFE79DF80B2003A850F8220067
:1004A00045F20001C0F6000121F82200FFE742F208
:1004B0000C00C4F202000068C00708B1FFE7F6E7CD
:1004C0009DF80B2003A800EB8200408845F2020152
:1004D000C0F6000121F82200FFE742F20C00C4F24E
:1004E00002000068C00708B1FFE7F6E7FFE79DF8E4
:1004F0000B0001308DF80B00C8E742F21001C4F286
:100500000201086820F001000860086840F08000DF
:100510000860FFE70AB080BD41F21C01C4F202018D
:10052000086840F48000086041F21801C4F202013A
:10053000086840F00800086040F60441C4F2010178
:10054000086820F470600860086840F41060086073
:10055000086820F470400860086840F410400860A3
:1005600045F60001C4F20001088840F4004008800C
:1005700008886FF3DF30088045F61C02C4F20002E1
:10058000B420108045F62002C4F20002132010802F
:1005900045F60402C4F20002108840F038001080D2
:1005A000088840F001000880704700BF81B08DF8D6
:1005B00003008DF8021045F60001C4F2000108881E
:1005C00040F480700880FFE745F61400C4F2000094
:1005D0000088C00708B9FFE7F6E79DF80300400070
:1005E00045F61001C4F200010880FFE745F614004B
:1005F000C4F2000000888007002801D4FFE7F5E777
:1006000045F61800C4F2000000889DF8020045F687
:100610001001C4F200010880FFE745F61400C4F29F
:10062000000000880006002801D4FFE7F5E745F642
:100630000001C4F20001088840F40070088001B095
:10064000704700BF80B586B040F28D00C2F2000056
:10065000007801460191032855D80199DFE801F09F
:10066000020F384540F21D00C2F20000027849F640
:10067000B811C0F6000102A803F09CF943E040F273
:100680001400C2F20000007840B9FFE749F67F117C
:10069000C0F6000102A803F08DF918E040F2140042
:1006A000C2F200000078012808D1FFE749F6711175
:1006B000C0F6000102A803F07DF907E049F68D11AC
:1006C000C0F6000102A803F075F9FFE7FFE71AE0A2
:1006D00040F29000C2F20000027849F6A911C0F67B
:1006E000000102A803F066F90DE040F28100C2F2B9
:1006F000000090F9002049F69B11C0F6000102A805
:1007000003F058F9FFE7002000902C21012202ABF2
:1007100002F014FA00981F2102F08AFB06B080BD97
:1007200084B08DF80F009DF80F00002846D0FFE739
:1007300040F28D00C2F2000000780146029140B103
:10074000FFE70298012815D0FFE70298022823D07E
:1007500033E040F20100C2F200000078632808DCB8
:10076000FFE740F20101C2F2000108780130087091
:10077000FFE722E040F20001C2F2000108780130F8
:100780004AF6AB22CAF6AA22A0FB0232520802EBBA
:100790004202801A087010E040F28000C2F20000AD
:1007A0000078062808DCFFE740F28001C2F2000171
:1007B000087801300870FFE7FFE74CE040F28D0059
:1007C000C2F2000000780146019140B1FFE70198B4
:1007D000012815D0FFE7019802282AD03AE040F21C
:1007E0000100C2F200000078012808DBFFE740F2B8
:1007F0000101C2F20001087801380870FFE729E022
:1008000040F20000C2F20000007818B9FFE70220B1
:10081000009007E040F20000C2F2000000780138CA
:100820000090FFE7009840F20001C2F2000108705A
:1008300010E040F28000C2F200000078012808DBDE
:10084000FFE740F28001C2F2000108780138087029
:10085000FFE7FFE7FFE740F2B501C2F20001012028
:10086000087004B0704700BF80B584B040F2B60095
:10087000C2F20000007878B1FFE7AF2001F024FF5A
:1008800040F2B601C2F200010020087040F294016B
:10089000C2F20001086071E040F62400C4F20000DA
:1008A0000088ADF80E0000208DF80D00FFE740F63F
:1008B0000800C4F201000068400600282ED4FFE7BB
:1008C00040F62400C4F200000088ADF80A00BDF82C
:1008D0000A00BDF80E10884207DBFFE7BDF80A00EA
:1008E000BDF80E10401A019009E0BDF80A00BDF8ED
:1008F0000E10401A42F2107108440190FFE701986F
:10090000ADF80800BDF8080040F2DC51884204DB75
:10091000FFE701208DF80D0000E0C8E79DF80D000D
:1009200068B1FFE7FFE740F60800C4F20100006885
:100930004006002802D4FFE700BFF4E71EE040F2C3
:10094000B401C2F200010120087040F28D00C2F231
:1009500000000178013101700078042807DBFFE70F
:1009600040F28D01C2F2000100200870FFE740F262
:10097000B501C2F2000101200870FFE704B080BD9C
:1009800080B540F21440C4F201000068400600281F
:1009900017D5FFE740F21441C4F20101402008607E
:1009A00040F62400C4F20000008840F28401C2F244
:1009B0000001088040F28301C2F2000101200870AA
:1009C000FFE740F21440C4F20100006880060028EE
:1009D0000FD5FFE740F21441C4F201012020086066
:1009E00040F2A401C2F200010120087002F0E0FE12
:1009F000FFE780BD80B582B040F61000C4F2000071
:100A00000088C007002800F08380FFE740F610014F
:100A1000C4F20001088820F00100088040F2940030
:100A2000C2F200000068A8B1FFE740F29400C2F2F1
:100A30000000006840F21001C2F20001096888421B
:100A400008D2FFE740F29401C2F2000108680130C9
:100A50000860FFE740F2B000C2F200000068A8B1F1
:100A6000FFE740F2B000C2F20000006840F2180157
:100A7000C2F200010968884208D2FFE740F2B001E3
:100A8000C2F20001086801300860FFE740F283000D
:100A9000C2F200000078D0B3FFE740F62400C4F2B1
:100AA00000000088ADF80600BDF8060040F28401A1
:100AB000C2F20001098888420ADBFFE7BDF80600A0
:100AC00040F28401C2F200010988401A00900CE053
:100AD000BDF8060040F28401C2F200010988401A04
:100AE00042F2107108440090FFE70098ADF804004E
:100AF000BDF80400012809DBFFE740F28301C2F2E0
:100B0000000100200870FFF7AFFEFFE7FFE7FFE7F7
:100B100002B080BD80B58AB01020C4F20000008809
:100B2000C007002800F07281FFE71021C4F2000125
:100B3000088820F00100088040F2B600C2F20000F0
:100B4000007878B1FFE7AF2001F0BEFD40F2B601BA
:100B5000C2F200010020087040F29401C2F20001CC
:100B6000086052E140F29401C2F2000100200860E6
:100B700002F0B2FC40F28F01C2F20001087040F2B4
:100B8000B400C2F200000078002800F0C280FFE745
:100B900040F28F00C2F200000078002855D0FFE735
:100BA00040F28D00C2F2000000780146099103284E
:100BB0004AD80999DFE801F00213253640F21D00FA
:100BC000C2F200000078632808DCFFE740F21D0154
:100BD000C2F20001087801300870FFE734E040F20B
:100BE0001401C2F20001087801304AF6AB22CAF6BD
:100BF000AA22A0FB0232520802EB4202801A0870BD
:100C000022E040F29000C2F200000078032808DCE5
:100C1000FFE740F29001C2F200010878013008704D
:100C2000FFE711E040F28100C2F2000090F90000FD
:100C3000092808DCFFE740F28101C2F200010878D0
:100C400001300870FFE7FFE75CE040F28D00C2F280
:100C50000000007801460891032852D80899DFE87F
:100C600001F002132C3D40F21D00C2F2000000789A
:100C7000012808DBFFE740F21D01C2F200010878FD
:100C800001380870FFE73CE040F21400C2F20000B7
:100C9000007818B9FFE70220079007E040F214003F
:100CA000C2F20000007801380790FFE7079840F291
:100CB0001401C2F20001087023E040F29000C2F279
:100CC00000000078012808DBFFE740F29001C2F243
:100CD0000001087801380870FFE712E040F2810057
:100CE000C2F2000090F9000010F1090F08DBFFE7E5
:100CF00040F28101C2F20001087801380870FFE774
:100D0000FFE7FFE740F2B501C2F2000101200870E1
:100D10007AE040F28F00C2F200000078002846D14D
:100D2000FFE740F28E00C2F2000000780146069113
:100D300003283BD80699DFE801F002101D2B40F292
:100D40008E01C2F20001012005900870002002F01F
:100D500033FC059802F040FC28E040F28E01C2F21C
:100D6000000102200870012002F026FC002002F0A1
:100D700033FC1BE040F28E01C2F200010320087038
:100D80000020049002F018FC049802F025FC0DE00D
:100D900040F28E01C2F20001002008700120039091
:100DA00002F00AFC039802F017FCFFE72BE040F288
:100DB0009A00C2F2000000780146029120B1FFE7DC
:100DC000029801280FD01DE040F29A00C2F2000004
:100DD000019001210170007802F0BEFB01980078BB
:100DE00001F0CEFB0EE040F29A00C2F2000000904B
:100DF00000210170007802F0AFFB0098007801F04C
:100E0000BFFBFFE7FFE7FFE7FFE7FFE70AB080BDB3
:100E100081B08DF803008DF802108DF80120FFE7F6
:100E200045F61800C4F2000000888007002801D5AC
:100E3000FFE7F5E745F60001C4F20001088840F439
:100E400080700880FFE745F61400C4F200000088B7
:100E5000C00708B9FFE7F6E79DF80300400045F634
:100E60001001C4F200010880FFE745F61400C4F247
:100E7000000000888007002801D4FFE7F5E745F669
:100E80001800C4F2000000889DF8020045F6100129
:100E9000C4F200010880FFE745F61400C4F2000028
:100EA00000880006002801D4FFE7F5E79DF801005F
:100EB00045F61001C4F200010880FFE745F6140072
:100EC000C4F2000000880006002801D4FFE7F5E71F
:100ED00045F60001C4F20001088840F40070088063
:100EE00001B0704780B58AB00990089109980790C1
:100EF000099806900898002104F063FA60B9FFE7AA
:100F00000898069904914FF07C5104F00DFC049967
:100F100004F0E0F9069013E00898002104F058FA74
:100F200068B9FFE70898079903914FF03F4104F033
:100F3000FBFB0146039804F0CDF90790FFE7FFE7BC
:100F400007984FF04041019104F0EEFB04F050FB94
:100F500001998DF81700069804F0E6FB04F048FBB1
:100F60008DF816009DF81720482002900F21FFF7FA
:100F70004FFF02989DF816201021FFF749FF0AB095
:100F800080BD00BF80B582B08DF8070000208DF8CD
:100F900006009DF8070040018DF806009DF8060048
:100FA00040F00C008DF806009DF8070040F28C011F
:100FB000C2F2000108709DF8062048200721FFF7C3
:100FC00027FF02B080BD00BF80B582B08DF807005A
:100FD00000208DF806009DF80700014600910128C9
:100FE00008D0FFE70098022808D0FFE70098032800
:100FF00008D00BE000208DF806000BE040208DF8B3
:10100000060007E050208DF8060003E000208DF870
:101010000600FFE79DF8070040F20801C2F2000158
:1010200008709DF8062048200121FFF7F1FE02B06C
:1010300080BD00BF80B540F21C00C2F20000007805
:1010400048B9FFE740F21C01C2F20001012008701C
:1010500001F0DAFBFFE7322001F0CAF949F6182364
:10106000C0F6000305210022104601F067FD80BD97
:1010700080B584B08DF80F008DF80E10ADF80C20FF
:10108000152001F021FB9DF80F0001F013FB9DF8E6
:101090000F003130C0B201F00DFB752001F014FBE0
:1010A0009DF80E0001F006FB9DF80E001730C0B24F
:1010B00001F000FB5C2001F007FB00208DF80B0025
:1010C000FFE79DF80B00172861DCFFE700208DF893
:1010D0000A00FFE79DF80A00042851DCFFE79DF8AD
:1010E0000A0049F22042C0F600029C2100FB0120C8
:1010F0000430019000208DF80300FFE79DF8030005
:10110000122833DCFFE700208DF8020001989DF8DB
:10111000031050F831009DF80B10C840C00738B1DB
:10112000FFE79DF8020040F0F0008DF80200FFE7B5
:1011300001989DF8031000EBC10040689DF80B106A
:10114000C840C00738B1FFE79DF8020040F00F002B
:101150008DF80200FFE79DF8020001F0ABFAFFE70F
:101160009DF8030001308DF80300C7E7002001F06F
:10117000A1FAFFE79DF80A0001308DF80A00A9E7FF
:10118000FFE79DF80B0001308DF80B0099E7BDF8E3
:101190000C0001F02DF901F037FB04B080BD00BF59
:1011A00080B582B041F21801C4F20201086840F033
:1011B0000800086040F60042C4F20102106820F402
:1011C00070001060106840F40000106040F60C429F
:1011D000C4F20102106840F020001060086840F07E
:1011E000010008600C21C4F20101086820F0F00041
:1011F0000860086840F01000086040F20041C4F246
:101200000101086840F02000086040F20C41C4F27F
:101210000101086840F02000086040F20841C4F273
:101220000101086820F0200008601720019000F0FC
:1012300025F80198012100F033F841F21C01C4F2B5
:101240000201086840F00200086040F22841C4F240
:10125000000140F2CF20088040F22C41C4F200018E
:101260004FF6FF70088040F20041C4F20001088888
:1012700040F00100088002B080BD00BF81B08DF851
:1012800003009DF9031001F01F02012090404A095C
:101290004EF20011CEF2000141F8220001B0704779
:1012A00082B08DF8070000919DF90700B0F1FF3F73
:1012B0000CDCFFE7009800019DF8071001F00F011A
:1012C0004EF61452CEF20002885409E00098000154
:1012D0009DF907104EF20042CEF200028854FFE75B
:1012E00002B0704780B590B000200B900F90FEF7D1
:1012F000C1FF0B9941F2B800C2F200000890012230
:101300000A92028041808F2282804FF67062C280F2
:101310000181018840F20802C2F200021170418886
:1013200040F28C02C2F200021170B0F9060004F023
:101330007BF90021C4F22011099104F063F8014601
:10134000089840F20C02C2F200021160B0F90800E5
:1013500004F06AF9099904F055F840F28801C2F2E4
:101360000001086001F002F801F06AF802F002F8EA
:1013700002F0BCF802F040F9FFF7CEF8FFF710FFDB
:1013800001F0DAF941F21C01C4F20201086840F0F0
:101390000400086040F20400C2F20000006841F25C
:1013A0005971CDF2B711A0FB01014FF0FF3000EBF6
:1013B000513040F62801C4F20001088040F62C01AB
:1013C000C4F2000142F21070088040F60C01C4F231
:1013D0000001088840F00100088040F60001C4F2D6
:1013E0000001088840F0010008801E20FFF746FF3A
:1013F0000A9841F21802C4F20202116841F0100189
:10140000116041F20402C4F20102116821F470017A
:101410001160116841F48011116041F20C02C4F2B4
:101420000102116821F40051116001F099F82320A4
:1014300014214FF47A72FFF71BFE0B9A49F6C5137D
:10144000C0F600031046114601F078FBFFE740F2BA
:10145000B500C2F200000078002800F03881FFE7F4
:1014600040F2B501C2F2000100200870FFF7EAF86F
:1014700040F62400C4F200000088ADF83A00BDF840
:101480003A0040F2A601C2F20001098888420ADB54
:10149000FFE7BDF83A0040F2A601C2F20001098858
:1014A000401A07900CE0BDF83A0040F2A601C2F2E3
:1014B00000010988401A42F2107108440790FFE7C2
:1014C0000798ADF83800BDF83800B0F5FA6F10DDB8
:1014D000FFE740F29800C2F200000088012807DB15
:1014E000FFE740F29801C2F2000100200880FFE708
:1014F000FFE741F2C200C2F2000002F02BFA00281E
:1015000000F0D480FFE741F2C200C2F2000081780F
:1015100040F29C00C2F20000017000780146069182
:101520001E2809D0FFE706981F284BD0FFE7069832
:10153000202800F09280B8E040F29800C2F200004B
:10154000008806280DDBFFE740F20C00C2F2000025
:10155000059000684FF07E5103F0BCFE05990860CD
:101560000CE040F20C00C2F20000049000684FF062
:101570007C5103F0AFFE04990860FFE740F20C00D5
:10158000C2F200000068002103F022FF38B9FFE733
:1015900040F20C01C2F2000100200860FFE740F2B7
:1015A0000C00C2F2000040F28801C2F200010068A3
:1015B0000968FFF797FC40F2B501C2F20001012073
:1015C000087072E040F29800C2F20000008806281D
:1015D0000EDBFFE740F20C00C2F20000039000684F
:1015E0000021CBF6807103F075FE039908600CE0D2
:1015F00040F20C00C2F20000029000684FF03F4140
:1016000003F068FE02990860FFE740F20C00C2F2A6
:10161000000000680021CCF2FF2103F0D2FE48B99F
:10162000FFE740F20C01C2F200010020CCF2FF20E3
:101630000860FFE740F20C00C2F2000040F28801AF
:10164000C2F2000100680968FFF74CFC40F2B501E6
:10165000C2F200010120087027E040F29800C2F2B7
:101660000000008800BBFFE740F20800C2F2000063
:101670000178013101700078042807DBFFE740F2B0
:101680000801C2F2000101200870FFE740F20800E3
:10169000C2F200000078FFF797FC40F2B501C2F2F9
:1016A000000101200870FFE7FFE7FFE740F2B50007
:1016B000C2F20000007848B1FFE740F2B501C2F283
:1016C000000100200870FEF7BDFFFFE7FFE740F6CE
:1016D0002400C4F200000088ADF83600BDF83600E2
:1016E00040F2A601C2F20001098888420ADBFFE746
:1016F000BDF8360040F2A601C2F200010988401A86
:1017000001900CE0BDF8360040F2A601C2F20001E3
:101710000988401A42F2107108440190FFE70198CD
:10172000ADF83400BDF83400B0F5FA6F10DDFFE716
:1017300040F29800C2F200000088012807DBFFE7B2
:1017400040F29801C2F2000100200880FFE7FFE7A5
:1017500040F20C00C2F2000040F28801C2F2000127
:1017600000680968FFF7BEFB01F0DEFF8DF833006B
:101770009DF83300002800F0C680FFE79DF8330095
:101780000138014600911C2800F2BC800099DFE876
:1017900001F00F19232D37414B555F69737DB9B99E
:1017A000B9B9B9B9B9B9B9B9B9B987919BA5AF00F8
:1017B00049F62623C0F6000305210022104601F059
:1017C000BDF99FE049F6B423C0F6000305210022CD
:1017D000104601F0B3F995E049F64323C0F6000343
:1017E00005210022104601F0A9F98BE049F6982363
:1017F000C0F6000305210022104601F09FF981E0A8
:1018000049F65F23C0F6000305210022104601F0CF
:1018100095F977E049F65123C0F60003052100222F
:10182000104601F08BF96DE049F6A623C0F60003DF
:1018300005210022104601F081F963E049F66D238D
:10184000C0F6000305210022104601F077F959E0A7
:1018500049F67B23C0F6000305210022104601F063
:101860006DF94FE049F6C223C0F6000305210022BE
:10187000104601F063F945E049F63423C0F6000351
:1018800005210022104601F059F93BE049F6892371
:10189000C0F6000305210022104601F04FF931E0A7
:1018A00049F6D213C0F6000305210022104601F0CC
:1018B00045F927E049F6E013C0F6000305210022B0
:1018C000104601F03BF91DE049F60A23C0F600037B
:1018D00005210022104601F031F913E049F6FC130E
:1018E000C0F6000305210022104601F027F909E0A7
:1018F00049F6EE13C0F6000305210022104601F060
:101900001DF9FFE7FFE7A2E582B0019000200090FB
:1019100042F20001C4F2020108680090009800F051
:1019200038000090019A00981043009000980860D9
:1019300002B0704781B0009042F20001C4F202018F
:10194000086820F008000860009A086810430860E2
:1019500001B0704781B0009042F20001C4F2020170
:10196000086820F010000860009A086810430860BA
:1019700001B0704742F20401C4F2020140F22310A8
:10198000C4F26750086048F6AB10CCF6EF50086020
:10199000704700BF42F20401C4F2020140F223107A
:1019A000C4F26750086048F6AB10CCF6EF50086000
:1019B000704700BF42F21001C4F20201086840F013
:1019C00080000860704700BF42F21001C4F20201BB
:1019D000086840F080000860704700BF80B584B0A0
:1019E000039004208DF80B004FF4302000F02CF809
:1019F0008DF80B009DF80B00042820D1FFE742F280
:101A00001001C4F202010191086840F00200086070
:101A1000039842F21402C4F202021060086840F017
:101A2000400008604FF4302000F00EF801998DF866
:101A30000B00086841F6FD7210400860FFE79DF852
:101A40000B0004B080BD00BF80B584B003900420BB
:101A50008DF80B0000F056FC8DF80B00FFE79DF8A9
:101A60000B1000200129019006D1FFE70398002800
:101A700018BF01200190FFE70198C00740B1FFE7C0
:101A800000F040FC8DF80B00039801380390E6E766
:101A9000039820B9FFE705208DF80B00FFE79DF8BC
:101AA0000B0004B080BD00BF80B582B004208DF86B
:101AB00007004FF43020FFF7C7FF8DF807009DF8AF
:101AC000070004281AD1FFE742F21001C4F2020114
:101AD0000091086840F004000860086840F0400089
:101AE00008604FF43020FFF7AFFF00998DF8070032
:101AF000086841F6FB7210400860FFE79DF8070098
:101B000002B080BD80B582B004208DF807004FF48C
:101B1000302000F025F88DF807009DF80700042814
:101B20001AD1FFE742F21001C4F2020100910868E5
:101B300040F004000860086840F0400008604FF47E
:101B4000302000F00DF800998DF80700086841F684
:101B5000FB7210400860FFE79DF8070002B080BDEF
:101B600080B584B0039004208DF80B0000F0CAFB10
:101B70008DF80B00FFE79DF80B1000200129019064
:101B800006D1FFE70398002818BF01200190FFE766
:101B90000198C00740B1FFE700F0B4FB8DF80B00DF
:101BA000039801380390E6E7039820B9FFE7052082
:101BB0008DF80B00FFE79DF80B0004B080BD00BF5F
:101BC00080B582B0A520ADF8060004208DF8050090
:101BD00000F076F820B1FFE70020ADF80600FFE73F
:101BE0004FF43020FFF730FF8DF805009DF8050019
:101BF000042860D1FFE742F20801C4F2020140F27A
:101C00002310C4F26750086048F6AB10CCF6EF50D2
:101C1000086042F21001C4F20201086840F020009E
:101C20000860086840F0400008604FF43020FFF77B
:101C30000BFF8DF805009DF8050004282AD1FFE769
:101C400042F21001C4F20201086841F6DF7210404E
:101C50000860086840F010000860BDF806004FF604
:101C60000001C1F6FF7108804FF40050FFF7ECFE51
:101C70008DF805009DF8050005280AD0FFE742F21F
:101C80001001C4F20201086841F6EF7210400860CA
:101C9000FFE70FE09DF8050005280AD0FFE742F2B4
:101CA0001001C4F20201086841F6EF7210400860AA
:101CB000FFE7FFE7FFE79DF8050002B080BD00BF2A
:101CC00081B000208DF8030042F21C00C4F2020033
:101CD00000688007002804D5FFE701208DF8030085
:101CE00003E000208DF80300FFE79DF8030001B03A
:101CF000704700BF80B584B00390029104208DF836
:101D00000700002000904FF40050FFF79DFE8DF873
:101D100007009DF80700042838D1FFE742F21001C0
:101D2000C4F20201086840F00100086002980399BB
:101D300008804FF40050FFF787FE8DF807009DF8EC
:101D40000700042817D1FFE7039802300090BDF880
:101D50000A00009908804FF40050FFF775FE8DF8D7
:101D6000070042F21001C4F20201086841F6FE7257
:101D70001040086009E042F21001C4F20201086854
:101D800041F6FE7210400860FFE7FFE79DF807008C
:101D900004B080BD80B584B00390ADF80A10042073
:101DA0008DF809004FF40050FFF74EFE8DF8090042
:101DB0009DF8090004281AD1FFE742F21001C4F28D
:101DC00002010191086840F001000860BDF80A00B6
:101DD000039908804FF40050FFF736FE01998DF803
:101DE0000900086841F6FE7210400860FFE79DF8A0
:101DF000090004B080BD00BF80B582B001908DF8AD
:101E0000031004208DF802004FF40050FFF71CFE71
:101E10008DF802009DF80200042830D1FFE742F25D
:101E20000801C4F2020140F22310C4F267500860B6
:101E300048F6AB10CCF6EF50086042F21001C4F245
:101E40000201086840F0100008609DF80300019945
:101E500008804FF40050FFF7F7FD8DF802009DF861
:101E6000020005280AD0FFE742F21001C4F2020185
:101E7000086841F6EF7210400860FFE7FFE79DF841
:101E8000020002B080BD00BF80B584B003904FF661
:101E9000FF70ADF80A00ADF80800ADF80600ADF827
:101EA000040004208DF803000398C04303909DF8BC
:101EB0000C00ADF80A009DF80D00ADF808009DF883
:101EC0000E00ADF806009DF80F00ADF804004FF4C9
:101ED0000050FFF7B9FD8DF803009DF803000428BA
:101EE00040F08280FFE742F20801C4F2020140F2B2
:101EF0002310C4F26750086048F6AB10CCF6EF50E0
:101F0000086042F21001C4F20201086840F01000BB
:101F10000860BDF80A00FF280ED0FFE7BDF80A00F0
:101F20004FF60801C1F6FF7108804FF40050FFF72B
:101F30008BFD8DF80300FFE79DF80300042813D103
:101F4000FFE7BDF80800FF280ED0FFE7BDF8080046
:101F50004FF60A01C1F6FF7108804FF40050FFF7F9
:101F600073FD8DF80300FFE79DF80300042813D1EB
:101F7000FFE7BDF80600FF280ED0FFE7BDF806001A
:101F80004FF60C01C1F6FF7108804FF40050FFF7C7
:101F90005BFD8DF80300FFE79DF80300042813D1D3
:101FA000FFE7BDF80400FF280ED0FFE7BDF80400EE
:101FB0004FF60E01C1F6FF7108804FF40050FFF795
:101FC00043FD8DF80300FFE79DF8030005280AD0C4
:101FD000FFE742F21001C4F20201086841F6EF7215
:101FE00010400860FFE7FFE79DF8030004B080BDE4
:101FF00080B582B08DF8070004208DF806004FF4FC
:102000003020FFF721FD8DF806009DF8060004281A
:102010006BD1FFE742F20801C4F2020140F2231043
:10202000C4F26750086048F6AB10CCF6EF50086079
:1020300042F21001C4F20201086840F0200008607A
:10204000086840F0400008604FF43020FFF7FCFCC7
:102050008DF806009DF80600042835D1FFE742F20E
:102060001001C4F20201086841F6DF7210400860F6
:10207000086840F0100008609DF8070038B1FFE7DD
:102080004FF60001C1F6FF710020088006E04FF610
:102090000001C1F6FF71A5200880FFE74FF4302052
:1020A000FFF7D2FC8DF806009DF8060005280AD03F
:1020B000FFE742F21001C4F20201086841F6EF7234
:1020C00010400860FFE70FE09DF8060005280AD0E1
:1020D000FFE742F21001C4F20201086841F6DF7224
:1020E00010400860FFE7FFE7FFE79DF8060002B039
:1020F00080BD00BF80B582B0ADF80600ADF8041019
:10210000ADF8022004208DF8010042F20801C4F26B
:10211000020140F22310C4F26750086048F6AB1089
:10212000CCF6EF5008604FF40050FFF78DFC8DF8AF
:1021300001009DF8010004282DD1FFE742F21001B3
:10214000C4F20201086840F010000860BDF80610F3
:10215000BDF80420BDF802001043084340F0F80029
:102160004FF60201C1F6FF7108804FF40050FFF7EF
:102170006BFC8DF801009DF8010005280AD0FFE7EF
:1021800042F21001C4F20201086841F6EF721040F9
:102190000860FFE7FFE79DF8010002B080BD00BFC7
:1021A00042F21C00C4F2020000688008704700BFC1
:1021B00042F22000C4F202000068704781B00020A3
:1021C0008DF8030042F20000C4F2020000688006AD
:1021D000002804D5FFE701208DF8030003E000206C
:1021E0008DF80300FFE79DF8030001B0704700BFC2
:1021F00082B001908DF803109DF8030048B1FFE70D
:10220000019A42F21001C4F202010868104308600A
:1022100008E0019A42F21001C4F2020108689043FA
:102220000860FFE702B0704782B0019000208DF88F
:1022300003000198012811D1FFE742F21C00C4F20B
:1022400002000068C00720B1FFE701208DF80300FD
:1022500003E000208DF80300FFE711E042F20C00DC
:10226000C4F2020000680199084204D0FFE701208F
:102270008DF8030003E000208DF80300FFE7FFE77F
:102280009DF8030002B0704781B00090009842F2C0
:102290000C01C4F20201086001B0704781B0042053
:1022A0008DF8030042F20C00C4F202000068C0077F
:1022B00020B1FFE701208DF803001FE042F20C007F
:1022C000C4F2020000684007002804D5FFE702209E
:1022D0008DF8030011E042F20C00C4F20200006825
:1022E000C006002804D5FFE703208DF8030003E0B3
:1022F00004208DF80300FFE7FFE7FFE79DF80300E8
:1023000001B0704781B004208DF8030042F20C0048
:10231000C4F202000068C00720B1FFE701208DF879
:1023200003001FE042F20C00C4F202000068400704
:10233000002804D5FFE702208DF8030011E042F2E7
:102340000C00C4F202000068C006002804D5FFE7B4
:1023500003208DF8030003E004208DF80300FFE75D
:10236000FFE7FFE79DF8030001B070474EF6FC5110
:10237000CEF20001086840F08070086041F2000170
:10238000CEF20001086840F001000860704700BF0D
:1023900080B584B0039041F20400CEF200000068E2
:1023A0000290039840F20401C2F2000109684DF660
:1023B0008362C4F21B32A1FB0221890C48430190C5
:1023C000FFE7029841F20401CEF20001096800F033
:1023D00007F80199884201D2FFE7F2E704B080BD17
:1023E00082B00190009100980199401A02B07047A4
:1023F00080B584B0039041F20400CEF20000006882
:102400000290039840F20401C2F20001096844F608
:10241000D352C1F26202A1FB022189094843019013
:10242000FFE7029841F20401CEF200010968FFF7CC
:10243000D7FF0199884201D2FFE7F2E704B080BDDF
:1024400041F21801C4F20201086840F00800086077
:102450000421C4F20101086840F00070086040F6F1
:102460001043C4F201030220186040F60041C4F298
:10247000010108684FF0080C6CF30710086040F683
:102480001442C4F201024020106008686CF31B6023
:1024900008600420106008686CF30B20086020209E
:1024A000106008686CF317500860C2F800C0086834
:1024B0006CF30F3008601020106008686CF3134054
:1024C0000860012010600868032262F303000860BE
:1024D00080201860086862F31F700860704700BFB2
:1024E00080B582B040F60840C4F201000068C0F335
:1024F000400001901E20FFF77BFF9DF8040002B012
:1025000080BD00BF40F60840C4F201000068C0F37F
:102510008010704740F60840C4F201000068C0F324
:102520008000704740F60840C4F201000068C0F324
:102530004010704740F60840C4F201000068C0F344
:10254000C000704740F60840C4F201000068C0F3C4
:102550000010704740F2AE00C2F2000000787047F1
:1025600081B000900098B0FA80F0410901208840C5
:1025700040F61041C4F20101086001B0704700BF8D
:1025800081B000900098B0FA80F040090001C11DB0
:102590000120884040F61041C4F20101086001B0FA
:1025A0007047000080B541F21803C4F202031868B6
:1025B00040F00500186040F6000CC4F2010CDCF895
:1025C00000000B2161F31750CCF80000DCF800008C
:1025D00061F31F70CCF8000040F61001C4F2010155
:1025E00004200860DCF800204FF0030E6EF30B228D
:1025F000CCF8002010220A60DCF800206EF31342B1
:10260000CCF8002008220A60DCF800206EF30F32BC
:10261000CCF800201A6842F480521A60086043F235
:102620000001C4F20101088840F010000880088809
:1026300040F002000880088840F001000880088807
:1026400020F400600880088820F080000880088856
:1026500040F440700880088840F004000880088832
:1026600040F04000088080BD80B582B0ADF8060023
:1026700040F61001C4F2010100914FF4802008607F
:10268000BDF8060043F20C01C4F2010108800120EC
:10269000FFF77EFE009904200860FFE743F2080080
:1026A000C4F2010000888007002801D4FFE7F5E7A5
:1026B00002B080BD80B582B08DF807009DF807009C
:1026C000FFF7D2FF02B080BD80B582B08DF8070061
:1026D00040F61001C4F2010100914FF4801008602F
:1026E0009DF80700FFF7C0FF00991020086002B0B6
:1026F00080BD00BF80B582B08DF807008DF8061050
:102700009DF80700FFF7E0FF9DF80600FFF7D2FFF6
:1027100002B080BD80B582B040F61001C4F2010164
:1027200001914FF4002008609620FFF731FE0199D7
:102730000820086002B080BD80B586B0FFF732FF88
:10274000FFF7E8FFFD2003901221FFF7D3FFAE2033
:10275000FFF7BAFFB3209121FFF7CCFFCA203F213A
:10276000FFF7C8FFA220049000210191FFF7C2FFEC
:102770000199A120FFF7BEFFA02002901421FFF7CE
:10278000B9FF1120FFF796FFAB200121FFF7B2FF41
:102790000299B420FFF7AEFF0398FFF78BFF41F2D9
:1027A000B800C2F200008178C120FFF7A3FFC72064
:1027B0000F210591FFF79EFFB920FFF785FFB1209C
:1027C000E221FFF797FF0499D120FFF793FF202024
:1027D000FFF770FF0599BB20FFF78CFFB62008219B
:1027E000FFF788FFBE200721FFF784FFA620FFF731
:1027F0006BFFA920FFF768FF00F006F8AF20FFF796
:1028000063FF06B080BD00BF80B584B01520FFF720
:102810005BFF00200190FFF74DFF7720FFF74AFF95
:102820007520FFF751FF0198FFF744FF7F20FFF766
:1028300041FF5C20FFF748FF01980390FFE70398F2
:102840007F2814DCFFE700200290FFE7029877283A
:1028500008DCFFE70020FFF72DFFFFE702980130BB
:102860000290F3E7FFE7039801300390E7E704B035
:1028700080BD00BF80B582B08DF807009DF80700CD
:1028800000F03F008DF807007520FFF71DFF9DF851
:102890000700FFF70FFF3F20FFF70CFF02B080BDDE
:1028A00080B582B08DF807009DF8070000F03F006A
:1028B0008DF807001520FFF707FF9DF807001C3073
:1028C000C0B2FFF7F7FE5B20FFF7F4FE02B080BD59
:1028D00080B586B08DF817009DF8170000F08000D5
:1028E0008DF816009DF8170000F04000C0088DF824
:1028F00015009DF8170000F0200080008DF81400EE
:102900009DF8170000F0100040088DF813009DF8A6
:10291000170000F0080000018DF812009DF8170064
:1029200000F0040040008DF811009DF8170000F041
:10293000020080018DF810009DF8170000F00100E2
:10294000C0008DF80F009DF8161041EA510040EAD2
:10295000910040EAD1008DF80E009DF8151041EA73
:10296000510040EA910040EAD1008DF80D009DF839
:10297000141041EA510040EA910040EAD1008DF87C
:102980000C009DF8131041EA510040EA910040EA22
:10299000D1008DF80B009DF8121041EA510040EA79
:1029A000910040EAD1008DF80A009DF8111041EA2B
:1029B000510040EA910040EAD1008DF809009DF8ED
:1029C000101041EA510040EA910040EAD1008DF830
:1029D00008009DF80F1041EA510040EA910040EADA
:1029E000D1008DF807009DF80E009DF80D100843EA
:1029F0008DF806009DF80C009DF80B1008438DF82B
:102A000005009DF80A009DF8091008438DF80400A0
:102A10009DF808009DF8071008438DF803009DF805
:102A20000600FFF747FE9DF80500FFF743FE9DF8FF
:102A30000400FFF73FFE9DF80300FFF73BFE06B0E2
:102A400080BD00BF80B588B0ADF81E00ADF81C1089
:102A50008DF81B2005939DF81B0001280DD1FFE781
:102A6000059801784FF60060CFF6FF7000EB01107B
:102A7000ADF812001020039009E0059801781A20A3
:102A80004143A1F55071ADF812100390FFE700200B
:102A90000290FFE70298039988424CDAFFE79DF81D
:102AA0001B00012816D1FFE7BDF81200029901446E
:102AB00048F64000C0F6000000EB410149788DF86F
:102AC0000710BDF81210029A114430F811008DF869
:102AD000060015E0BDF812000299014445F6C02039
:102AE000C0F6000000EB410149788DF80710BDF8F1
:102AF0001210029A114430F811008DF80600FFE719
:102B0000BDF81C0002990844C0B2FFF7B3FE9DF85F
:102B10001E00FFF7C5FE5C20FFF7D6FD9DF80700FD
:102B2000FFF7D6FE9DF80600FFF7D2FEFFE70298FA
:102B300001300290AEE708B080BD00BF80B584B020
:102B4000ADF80E00ADF80C108DF80B200193FFE7E7
:102B50000198007850B3FFE701980078812812DBD4
:102B6000FFE7BDF80E00BDF80C109DF80B20019B8F
:102B7000FFF768FFBDF80E000430ADF80E000198B5
:102B80000230019011E0BDF80E00BDF80C109DF868
:102B90000B20019BFFF756FFBDF80E000530ADF886
:102BA0000E00019801300190FFE7D1E704B080BD2D
:102BB00080B582B08DF807008DF806108DF80520DD
:102BC0009DF80500202805DBFFE79DF805007F281C
:102BD00004DBFFE720208DF80500FFE71520FFF755
:102BE00073FD9DF80700FFF765FD9DF807000530B0
:102BF000C0B2FFF75FFD7520FFF766FD9DF8060088
:102C0000FFF758FD9DF806000730C0B2FFF752FDF0
:102C10005C20FFF759FD00200090FFE7009807288F
:102C200015DCFFE79DF8050000EB400149F22C7030
:102C3000C0F6000000EB41000099084410F8C00CF9
:102C4000FFF738FDFFE7009801300090E6E702B09B
:102C500080BD00BF80B582B08DF807008DF80610EA
:102C60000092FFE70098007888B1FFE79DF8070021
:102C70009DF80610009A1278FFF79AFF9DF807005A
:102C800006308DF80700009801300090EAE702B0A6
:102C900080BD00BF80B586B0ADF81600ADF8141049
:102CA0008DF813209DF81300202805DBFFE79DF821
:102CB00013007F2804DBFFE720208DF81300FFE7D7
:102CC00000200390FFE70398072836DCFFE7002089
:102CD0000290FFE7029805282ADCFFE79DF8130021
:102CE00000EB400149F22C70C0F6000000EB4100FF
:102CF0000299084410F8C00C8DF807009DF80700F1
:102D00000399C840C00770B1FFE7BDF816000299EB
:102D10000844BDF81410039A114480B289B20F22FE
:102D200000F00EF8FFE7FFE7029801300290D1E7CC
:102D3000FFE7039801300390C5E706B080BD00BFF0
:102D400082B0ADF80600ADF804108DF80320BDF890
:102D50000600FF2805DCFFE7BDF80400402801DB82
:102D6000FFE72AE0BDF80400C001BDF8061000EB43
:102D70005100ADF800009DF80600C00778B9FFE7E4
:102D8000BDF8002040F2B801C2F20001885C00F0FA
:102D90000F009DF8033040EA031088540DE0BDF8A1
:102DA000002040F2B801C2F20001885C00F0F0009F
:102DB0009DF8033018438854FFE702B0704700BF06
:102DC00080B582B0ADF80600ADF804100092FFE7C0
:102DD0000098007888B1FFE7BDF80600BDF8041040
:102DE000009A1278FFF756FFBDF806000630ADF8DE
:102DF0000600009801300090EAE702B080BD00BFF5
:102E000081B000200090FFE70098B0F5805F0CDAF9
:102E1000FFE7009A40F2B801C2F200010020885496
:102E2000FFE7009801300090EEE701B0704700BF67
:102E300080B582B08DF807008DF806101520FFF7D9
:102E400043FC2520FFF736FC5B20FFF733FC7520A1
:102E5000FFF73AFC9DF80700FFF72CFC9DF80600F1
:102E6000FFF728FC5C20FFF72FFC00200090FFE715
:102E70000098B0F5805F0DDAFFE7009940F2B800E6
:102E8000C2F20000405CFFF715FCFFE7009801303C
:102E90000090EDE702B080BD82B08DF80700002001
:102EA0000090FFE70098B0F5805F0DDAFFE79DF82E
:102EB0000700009A40F2B801C2F200018854FFE70F
:102EC000009801300090EDE702B0704780B584B003
:102ED000039000200090FFF7CDFC0098FFF7E0FC86
:102EE0005C20FFF7F1FB00980290FFE702983F2873
:102EF00019DCFFE700200190FFE701981F280DDC97
:102F0000FFE70398029A019901EB4211405CFFF739
:102F1000DFFCFFE7019801300190EEE7FFE7029840
:102F200001300290E2E704B080BD00BF80B588B0F8
:102F300000200090FFF79EFC0098FFF7B1FC5C209A
:102F4000FFF7C2FB00988DF81F000690FFE7069878
:102F50001F2829DCFFE700200590FFE705980F28D0
:102F60001ADCFFE700200490FFE70498072809DC3B
:102F7000FFE79DF81F00FFF79DFBFFE70498013076
:102F80000490F2E79DF81F0011308DF81F00FFE755
:102F9000059801300590E1E700208DF81F00FFE75C
:102FA000069801300690D2E7FF208DF81F00002020
:102FB0000390FFE703981F2829DCFFE70020029019
:102FC000FFE702980F281ADCFFE700200190FFE7D7
:102FD0000198072809DCFFE79DF81F00FFF76AFB4F
:102FE000FFE7019801300190F2E79DF81F001138CA
:102FF0008DF81F00FFE7029801300290E1E7FF2003
:103000008DF81F00FFE7039801300390D2E708B066
:1030100080BD00BF80B588B055208DF810004120DC
:103020008DF8110052208DF8120054208DF81300F5
:103030003A208DF8140020208DF8150041F2C600CA
:10304000C2F200000190007804A90291063100F05C
:103050001BF8019802994078093100F015F80198A1
:10306000029980780C3100F00FF8029A0021039148
:103070008DF81F100846FFF7A3FE03981F21FFF7E6
:10308000D7FE08B080BD00BF82B08DF80700009168
:103090009DF80700010949F66010C0F60000415C88
:1030A000009A11709DF8071001F00F01405C009923
:1030B000487000992020887002B0704780B541F2B6
:1030C0000002C4F20202106840F00100106041F2F8
:1030D0000401C4F2020108680023CFF6FF03184080
:1030E000086010684FF6FF73CFF6F6631840106063
:1030F000106820F480201060086820F4FE0008604A
:1031000041F20801C4F202014FF41F00086000F010
:1031100009F84EF60851CEF200014FF00060086049
:1031200080BD00BF80B500F093F880BD84B0002062
:1031300003900290019041F20400C4F20200006882
:1031400000F00C0003900398009040B1FFE7009856
:1031500004280ED0FFE70098082814D056E040F26B
:103160000401C2F2000141F20020C0F27A000860BE
:1031700056E040F20401C2F2000141F20020C0F228
:103180007A0008604CE041F20400C4F202000168D9
:1031900001F470110291006800F4803001900299EE
:1031A000022000EB91400290019860B9FFE702987D
:1031B00040F60011C0F23D01484340F20401C2F262
:1031C0000001086021E041F20400C4F2020000683E
:1031D000800300280CD5FFE7029840F60011C0F2EA
:1031E0003D01484340F20401C2F2000108600BE0D7
:1031F000029841F20021C0F27A01484340F20401F2
:10320000C2F200010860FFE7FFE709E040F20401B5
:10321000C2F2000141F20020C0F27A000860FFE72C
:1032200041F20400C4F202000068C0B2010945F690
:10323000B020C0F60000405C0390039A40F2040105
:10324000C2F200010868D040086004B0704700BFB7
:1032500084B000200390029041F20001C4F2020108
:10326000086840F480300860FFE741F20000C4F2D3
:103270000200006800F400300290039801300390CF
:10328000FFE702990020019039B9FFE70398B0F5F4
:10329000A06018BF01200190FFE70198C007002837
:1032A000E3D1FFE741F20000C4F2020000688003AE
:1032B000002803D5FFE70120029002E000200290E1
:1032C000FFE70298012851D1FFE742F20001C4F262
:1032D0000201086840F010000860086820F0030050
:1032E0000860086840F00200086041F20401C4F27E
:1032F000020100910868086008680860086840F4E6
:1033000080600860086820F47C100860086840F459
:10331000E810086041F20001C4F20201086840F0C0
:1033200080700860FFE741F20000C4F2020000680C
:103330008001002801D4FFE7F5E741F20401C4F25F
:103340000201086820F003000860086840F00200ED
:103350000860FFE741F20400C4F20200006800F0D8
:103360000C00082801D0FFE7F4E700E0FFE704B015
:103370007047000080B582B041F21801C4F202012A
:10338000086840F00400086040F6100CC4F2010C1C
:103390000120CCF8000040F60002C4F201021168DE
:1033A000082363F3030111600221CCF800101168B7
:1033B00063F3071111604021CCF80010116863F32A
:1033C0001B61116041F21C01C4F202010860182265
:1033D000C4F2000240F2011111802023C4F2000364
:1033E000222119800823C4F20003032119802C2311
:1033F000C4F20003198011884FF2F00319431180C1
:103400004FF080410A884FF67F731A430A80088084
:103410000821C4F201010868086040F20041C4F2CA
:103420000101086840F04000086040F20C41C4F21D
:103430000101086840F0400008601720019000F08A
:1034400011F801980F2100F01FF80C21C4F20001BF
:10345000088840F0010008801C2000F003F802B04A
:1034600080BD00BF81B08DF803009DF9031001F00D
:103470001F02012090404A094EF20011CEF20001D5
:1034800041F8220001B0704782B08DF8070000912A
:103490009DF90700B0F1FF3F0CDCFFE70098000149
:1034A0009DF8071001F00F014EF61452CEF2000203
:1034B000885409E0009800019DF907104EF200427F
:1034C000CEF200028854FFE702B070472420C4F215
:1034D00000000088704700BF4FF08040008800F077
:1034E0001001012080EA11107047000041F218011C
:1034F000C4F20201086840F00400086040F61403BA
:10350000C4F201034FF48070186040F60401C4F265
:1035100001010868032262F3030008604FF40070A1
:103520001860086862F3071008604FF48060186044
:10353000086862F30B2008604FF480501860086838
:1035400062F3134008604FF400601860086862F38B
:103550000F300860704700BF81B0009000980001F4
:1035600000F10A010120884040F61001C4F2010177
:10357000086001B0704700BF81B000900098000162
:1035800000F10C010120884040F61001C4F2010155
:10359000086001B0704700BF81B000900098000142
:1035A00000F10B010120884040F61001C4F2010136
:1035B000086001B0704700BF81B000900098000122
:1035C00000F108010120884040F61001C4F2010119
:1035D000086001B0704700BF81B000900098000102
:1035E00000F109010120884040F61001C4F20101F8
:1035F000086001B07047000080B582B041F2180148
:10360000C4F20201086844F204021043086040F664
:103610000401C4F20101086820F4706008600868C1
:1036200040F40060086043F60801C4F2010140F272
:103630007120088043F60C01C4F20101088820F4CF
:103640008050088043F61002C4F20102108820F472
:1036500040501080088820F480600880088842F27A
:10366000040210430880088840F0200008802520CC
:10367000019000F007F80198002100F015F802B061
:1036800080BD00BF81B08DF803009DF9031001F0EB
:103690001F02012090404A094EF20011CEF20001B3
:1036A00041F8220001B0704782B08DF80700009108
:1036B0009DF90700B0F1FF3F0CDCFFE70098000127
:1036C0009DF8071001F00F014EF61452CEF20002E1
:1036D000885409E0009800019DF907104EF200425D
:1036E000CEF200028854FFE702B0704782B000902B
:1036F00043F60000C4F201000088800600280BD5C4
:10370000FFE743F60400C4F2010000880099087046
:1037100001208DF8070003E000208DF80700FFE787
:103720009DF8070002B0704740F2AE00C2F2000000
:103730000078704781B043F60000C4F201000088B1
:103740008006002831D5FFE743F60400C4F20100EB
:1037500000888DF803009DF8031040F28200C2F249
:10376000000003785A1C027041F2C602C2F2000245
:10377000D1540078032817DBFFE740F28201C2F240
:1037800000010020087040F2B701C2F200010120E0
:10379000087041F2C600C2F20000407840F2AE016B
:1037A000C2F200010870FFE7FFE701B070470000B8
:1037B00082B040F22441C4F2000108880190002048
:1037C0000880019842F21D5188421FD3FFE70198FB
:1037D00042F63B01884219D8FFE740F2AD00C2F241
:1037E0000000007890B9FFE740F29801C2F20001B2
:1037F00008880130088040F62400C4F200000088E8
:1038000040F2A601C2F200010880FFE740F2AD00DD
:10381000C2F2000000780146009120B1FFE7009855
:1038200001283DD08CE00198B0F5966F18D9FFE7DC
:10383000019840F2DB51884212D8FFE740F2AD0117
:10384000C2F200010120087040F29B01C2F20001A7
:103850000020087040F2A001C2F20001086076E08A
:10386000019840F21B41884219D3FFE7019840F2CA
:103870009B41884213D8FFE740F2A901C2F2000140
:10388000EE20087040F2A801C2F200010120087089
:1038900040F2AD01C2F2000100200870FFE756E0DF
:1038A0000198502805D3FFE70198B0F58C7F07D920
:1038B000FFE740F2AD01C2F200010020087046E0CF
:1038C00040F2A001C2F200010868400808600198B7
:1038D000A12809D3FFE740F2A001C2F20001086865
:1038E00040F000400860FFE740F29B00C2F2000099
:1038F0000178013101700078202820DBFFE740F2D9
:10390000A000C2F20000026840F2A901C2F2000168
:103910000A700268120A4A700268120C8A70006803
:10392000000EC87040F2A801C2F200010120087028
:1039300040F2AD01C2F2000100200870FFE706E08E
:1039400040F2AD01C2F2000100200870FFE702B0B2
:10395000704700BF83B0019040F2A800C2F200009F
:103960000078F0B1FFE740F2A801C2F200010020A8
:1039700008700090FFE7009803280EDCFFE700992D
:1039800040F2A900C2F20000405C0199009A8854FC
:10399000FFE7009801300090EDE701208DF80B0063
:1039A00003E000208DF80B00FFE79DF80B0003B04B
:1039B000704700000FB41CB5084B06AA7B4469464B
:1039C0000090059800F0C7F804460020694600F012
:1039D000D5F820461CBC5DF814FB0000BD010000BA
:1039E00070477047704770B5044685690068C10626
:1039F00001D5302600E02026C00707D070BDD4E9ED
:103A0000012130469047206A401C20626D1EF6D589
:103A100070BD70B5044685690078C00707D170BDD8
:103A2000D4E9012120209047206A401C20626D1EAD
:103A3000F6D570BD09684A0501D540B27047C90581
:103A4000FCD500B2704709684A0501D5C0B270477D
:103A5000C905FCD580B2704770B50C460546012AF1
:103A600005D02878800600D5EA69002302E001230A
:103A700005E05B1C934202D2E05C0028F9D1A86902
:103A8000E618C01AA861286A184428622846FFF779
:103A9000AAFF04E0D5E9012114F8010B9047B442D4
:103AA000F8D32846FFF7B5FF70BD00002DE9F041BF
:103AB0000646002410687529314616A510D0FFF778
:103AC000B9FF002802DA404213A507E031688A07EF
:103AD00001D512A502E0490704D511A5012401E092
:103AE000FFF7B1FF00210A2206F1240709E0B0FB2D
:103AF000F2FCB0FBF2F302FB1C00303078541846A5
:103B0000491C0028F3D123462A463046BDE8F0413F
:103B100000F061BA000000002D0000002B00000042
:103B20002000000011680268006A530501D5087082
:103B30000AE0D30501D5088006E0130603D5C217B5
:103B4000C1E9000200E008600120704701694A1CD9
:103B500002610878704700B58FB0CDE901310021CE
:103B6000059105497944CDE903101146684600F0F6
:103B700029F90FB000BD0000E5FFFFFF0A6802F859
:103B8000010B0A60704700002DE9FF5F15468A4669
:103B90000446DFF8AC80F8440027D8E900103E4620
:103BA000CDE9001010E03AF816106A4602A800F0BD
:103BB00023FE411C07D02178890603D5E269391814
:103BC00091420DD80744761C2078800602D5E06922
:103BD000B84205DDAE42E6DB3AF816000028E2D135
:103BE000A069C01BA0612046FFF7FDFED8E90010C8
:103BF000CDE90010002017E03AF818106A4602A834
:103C000000F0FAFDB0F1FF3F81460BD000250DF129
:103C1000080B05E0D4E901211BF8050090476D1C55
:103C20004D45F7D308F10100B0428046E4DB206A3D
:103C3000384420622046FFF7ECFEBDE8FF9F0000FD
:103C40001A1E00002DE9F0418046D21D22F0070225
:103C50000025D2E90002F52915A614D0011E72F143
:103C6000000106DA0023D0EB030063EB020211A689
:103C700008E0D8F800108B0701D50FA602E049072D
:103C800001D50EA601251146002408F1240704E001
:103C900000F05CF930323A55641C50EA0102F7D169
:103CA0002B46324621464046BDE8F04100F093B92C
:103CB000000000002D0000002B000000200000008C
:103CC00030B4002100F1240408E002F00705D20816
:103CD000303542EA4372DB086554491C52EA030559
:103CE000F3D10468002310A2250708D504F02004AE
:103CF0000C4304D0C46901230CA2641EC46130BC0F
:103D000000F069B910B5044621461068FFF79BFE24
:103D100002462046BDE810400023D1E7D21D22F024
:103D20000701D1E90023CBE70000000030000000CC
:103D3000F0B40D460188090502D5214C7C4402E00F
:103D40001F4C7C440E34002100F1240608E002F0F0
:103D50000F071209E75D42EA03721B097754491CF9
:103D600052EA0307F3D102780023120704D5702D1D
:103D700006D009B1022311342246F0BC00F02BB961
:103D800001231034F8E770B504460D46214610684B
:103D9000FFF759FE024629462046BDE87040002341
:103DA000C6E7D21D22F00703D3E90023C0E703686A
:103DB000126843F0200303600823C3610023B7E7C0
:103DC0007C1C00002DE9F05F894604464FF0000A94
:103DD000DFF874B1FB44C0F820A02046E1688847B2
:103DE000002874D0252806D0D4E901219047206A04
:103DF000401C2062F1E700265F462046E1688847C4
:103E00002028054607DB312D05D2781910F8200C43
:103E100008B10643F1E7B00701D526F00406C4F85F
:103E20001CA00027C4F818A02A2D09D0284601F0AC
:103E30001DFA38B304EB8708303DC8F8185019E074
:103E400059F8041B204604EB87029161E16888471A
:103E5000012F054618D1E069002820DA26F0200657
:103E60001DE0D8F8180000EB800005EB400030386A
:103E7000C8F818002046E1688847054601F0F6F9C1
:103E80000028EED1012F0AD02E2D08D12046E1685E
:103E900088477F1C0546022F46F02006C4DBA06938
:103EA000002803DA404246F00106A061F00701D085
:103EB00026F010066C2D0BD0682D09D04C2D39D072
:103EC0006A2D35D0742D35D07A2D33D016E038E0F8
:103ED000E1682F4620468847B842054609D16C2F35
:103EE00026D04FF48060E1680643204688470546A7
:103EF00004E06C2F1AD04FF4807006430DB3A5F187
:103F00004100192802D8203546F400664A46294661
:103F1000204626604E46FCF723F980B101280BD0DD
:103F2000F61D26F0070000F1080956E74020E4E7F7
:103F30008020D8E70020D6E706F104094DE728469F
:103F400052E7206ABDE8F09F0C1C000030B5B0F1CC
:103F50000A0271F100034FEA900E4EEA817EB0EB47
:103F60000E0061EB91014FEA101E4EEA017E10EB4C
:103F70000E0041EB11114FEA102E4EEA016E10EBCC
:103F80000E0041EB11214FEA104E4EEA014E10EBAC
:103F90000E0041EB1141401841F100014FEAD00001
:103FA00040EA41704FEAD1014FEA810444EA90743B
:103FB00010EB800544EB01046D1944EB0404521B23
:103FC000A3414FF0000348BF0A3200D530BD401C6A
:103FD00041F1000130BD2DE9F0470D46994692466A
:103FE000044600F124080168880604D5E06921F040
:103FF0001001216000E00120A84201DD471B00E024
:104000000027A1697A1902EB0900081AA06120783B
:10401000C00602D42046FFF7E6FC002608E0D4E9FB
:1040200001211AF806009047206A401C761C206285
:104030004E45F4DB2078C0060AD52046FFF7D3FCB6
:1040400006E0D4E9012130209047206A401C20621C
:10405000381EA7F10107F4DC07E0D4E9012118F8C4
:1040600005009047206A401C2062281EA5F101052A
:10407000F3DC2046FFF7CDFC2078000602D50220B5
:10408000BDE8F0870120FBE72DE9FF4F0C461E46F7
:104090004FF0FF378BB0D2E90001DDF860800A9065
:1040A0008A46C1F30A5505B93D46002108464FF03E
:1040B0000000BAF1000F00F4400005DA00EB8000C8
:1040C0004FF4400101EA50004FEA9059B9F1010F55
:1040D00000DDB9460A9850EA4A000ED044F6105066
:1040E000A5F2FF3545432F14B8F1000F1ED07542DD
:1040F000291E1EDDC9F100021CE0B8F1010F4FF0CE
:10410000000001D0302103E0F24305E02154401CBF
:10411000B042FBDB30460022002121540B99C1F84C
:104120000880C1E900200FB0BDE8F08FBD1B6D1CF9
:10413000DEE74A4600DA694206A800F0F3FB06AB68
:1041400093E8070003AB83E8070050460A9900F0A4
:10415000B0FC8DE80700A0F500501F3800900398D0
:10416000002D0ADD42F21F014A460844002303A93C
:104170000390684600F01AFF09E0A0F500504A4697
:104180001F38002303A90390684600F024FF8DE840
:1041900007000004000C03D04FF0FF30410800E09E
:1041A0001046B8F1000F03D00022009215461EE021
:1041B000751E05D4FFF7CAFE303262556D1EF9D563
:1041C000B3460122084302D000227F1C04E020787D
:1041D000302801D100227F1E002A099784D01DE0DB
:1041E000112D07DAFFF7B2FE303262556D1C50EA2E
:1041F0000102F5D1084302D00098C8B10EE00021B9
:10420000681E05E0235C625C63542254401E491C16
:104210008142F7DBAB46A81B401E0990002004F842
:104220000B000B98099AC0F80880C0E9002B7AE7C8
:1042300011264FF0000857E72DE9F04F8846044655
:10424000D21D22F0070191B0D1E90001CDE90A01A8
:1042500000F0F8FF02460B98C00F01D02D2007E0B8
:104260002068810701D52B2002E0202101EAC0004F
:10427000032A099001D0072A05DB03464146204660
:1042800000F010FB0BE12078800601D5E06900E02A
:104290000620B8F1650F814606D0B8F1660F18D038
:1042A000B8F1670F70D131E00020B9F1110F009023
:1042B00001DB112301E009F101030AAA01A90CA8FD
:1042C000FFF7E2FEDDE90C70002609F101058346E7
:1042D00047E001204B4600904FF000470AAA01A991
:1042E0000CA8FFF7D1FEDDE90DB00C995D46002664
:1042F00010B909F101000D18B9EB050003D4C0F1A4
:10430000FF3609F10105A5EB09002BE0B9F1010F1A
:1043100001DA4FF001090020B9F1110F0090484671
:1043200001DD112300E003460AAA01A90CA8FFF74A
:10433000ABFEDDE90C704D46002683462078000771
:104340000AD4AB4500DA5D4601A8012D04DD411910
:1043500011F8011C302907D04F4502DA17F1040F7C
:1043600004DA012082460FE06D1EEEE7002F02DC2A
:10437000ED1B3E4403E0781CA84200DD7D1CB81B09
:1043800000F1010A4FF000472078000703D4AA4546
:1043900001DB4FF0FF3A0021B7F1004F0DF1430868
:1043A0008DF8431024D002202B23002F01DA7F4206
:1043B0002D230A21021EA0F1010000DC5FB197FB52
:1043C000F1FC97FBF1F201FB1C7C17460CF1300C61
:1043D00008F801CDEEE7A8F1010003702188090576
:1043E00001D5452100E06521A0F1010800F8011C7C
:1043F00009980FA9A1EB0807FF1D00B10120411981
:1044000001EBEA70A1693844081A401EA0612078C7
:10441000C00602D42046FFF7E6FA099828B1D4E98D
:1044200001219047206A401C20622078C00622D5D6
:104430002046FFF7D8FA1EE0002E04DBB34502DD6C
:1044400001A8805D00E03020D4E901219047206A76
:10445000401C2062761CAAF101005FEA000A0AD122
:1044600000F01CFAC0680168405CD4E90121904763
:10447000206A401C2062281EA5F10105DCDC07E053
:10448000D4E9012118F8010B9047206A401C2062F2
:10449000381EA7F10107F3DC2046FFF7BAFA032024
:1044A00011B041E62DE9F04F04460D46D21D22F031
:1044B000070089B0D0E900974846394600F0C2FEAF
:1044C0000246F80F01D02D2307E02068810701D5AF
:1044D0002B2302E0202101EAC0038DF820300BB12C
:1044E000012000E00020032A824601D0072A04DBD5
:1044F0002946204600F0D6F93FE12078800601D415
:104500000D2500E0E569C7F30A560D2D49DA0021B3
:104510004FEA175B08464FF00000002F00F4400000
:1045200007DA00EB80004FF4400100EBD07001EAA5
:1045300060008115012901DD4FF0FF3100224FEAB3
:10454000850CBCF1180F06D31346ACF118004FF0E0
:104550008052C24003E04FF4801323FA0CF30CF1B5
:104560000C0CBCF1200F04D3ACF1200C09FA0CF0B8
:1045700001E007FA0CF000294FF0004801DD18B9FE
:104580000FE00ED140450CD319EB02095F4121B970
:10459000404502D19F4329EA0209BBEB175F00D0D7
:1045A000761C2088000502D57B48784402E07A48D2
:1045B0007844193808AA302302F80A30037C0AF13B
:1045C0000101002E0AF1020A53546A4602DC4FF040
:1045D000300101E04FF031014FF001088DF800107B
:1045E00002D0A6F2FF3603E059EA470100D06B4E35
:1045F000002D02DC2178090704D54FF002082E2196
:104600008DF80110C44600210BE0C7F303433F01BE
:10461000C35C491C6D1E02F80830052908F1010829
:1046200001DA002DF1DC00210CE000EB1973491CCC
:104630001B786D1E082902F808304FEA091908F1A5
:10464000010801DA002DF0DC21688B0602D516E0A6
:10465000A8F10108E04505DD02EB080313F8013C71
:10466000302BF5D0B8F1000F09DD02EB080313F889
:10467000013C2E2B03D1090701D4A8F10108002D1C
:1046800005DD3E2102F808106D1E08F10108407C8E
:10469000002E02F8080008F1010804DA2D20764205
:1046A00002F8080002E02B2002F808000A214FF46B
:1046B0007A70864208F101080BDB96FBF0F3303389
:1046C00002F8083096FBF0F308F1010800FB1366CE
:1046D00001E0642E0CDB642096FBF0F3303302F82B
:1046E000083096FBF0F308F1010800FB136601E0C7
:1046F0000A2E06DB96FBF1F0303002F8080008F1D4
:10470000010896FBF1F001FB1060303002F8080060
:10471000A16908F1010808EB050202EB0A00081A7A
:10472000A0612078C00602D42046FFF75CF9216A18
:1047300008AE01EB0A00206204E0D4E9012116F87A
:10474000010B9047BAF1010AF7D22078C00602D5D2
:104750002046FFF748F96E4609E016F8010B3E289F
:104760000FD0D4E901219047206A401C2062B8F1A3
:104770000108F2D22046FFF74CF909B00320BDE84A
:10478000F08F206A2844206203E0D4E90121302020
:1047900090476D1EEBD3F8E75A14000002FCFFFFB0
:1047A00010B5436913B1AFF3008001E0FFF754F98E
:1047B000012010BD127800F124010A7000224A7015
:1047C0000122EDE711684FF0FF32E9E710B54369C8
:1047D00013B1AFF3008001E0FFF7D6F9012010BD5F
:1047E000128800F1240182840022C2840122EDE7B4
:1047F00011684FF0FF32E9E72DE9F04116460C460B
:10480000054600F043F8036893F80101012807D03A
:10481000FF2C12D8185D80B101202C70BDE8F0810A
:10482000D3F807013246214603F20713C71828467A
:10483000BC46BDE8F041002360474FF0FF30EDE794
:10484000754600F0EBF8AE4605006946534620F089
:104850000700854618B020B5FBF7FAFCBDE82040FC
:104860004FF000064FF000074FF000084FF0000B2C
:10487000AC46ACE8C009ACE8C009ACE8C009ACE89B
:10488000C00921F007018D467047000010B500F007
:1048900005F8001D10BD00BF110A00000048704758
:1048A000400000202DE9F0411F4604460326016820
:1048B000072A01F4006004DB08B116A505E016A57F
:1048C00003E008B115A500E015A521F01000206057
:1048D000A069C01EA0610FB1401EA0612046FFF775
:1048E00082F84FB1D4E9012138469047206A401C34
:1048F0002062C01C206206E0206AFAE7D4E90121A8
:1049000015F8010B9047761EF8D22046FFF781F884
:10491000BDE8F0814E414E006E616E00494E46008A
:10492000696E66002DE9F047814616468AB0354823
:1049300078440DC88DE80D0032487844801C03ACE3
:104940000DC884E80D0041F69B300844372190FBE8
:10495000F1F290FBF1F5A5F1800501FB12041B3C7F
:1049600002D56442012000E00020DFF898A08046D4
:104970000027FA44AAF1BE0A0EE0E0070AD0324648
:10498000684607EB470101230AEB810100F023FB96
:104990008DE8070064107F1C002CEED1194F7F4476
:1049A000AE3F19E0E80715D007EB04100DF1180A27
:1049B00090E80E008AE80E00C068F04201D1981914
:1049C00008903246012306A903A800F004FB03ABBC
:1049D00083E807006D10641C002DE3D14FF0010344
:1049E00032466946B8F1000F03A802D000F0DEFAA3
:1049F00001E000F0F0FAC9E90001C9F808200AB0A6
:104A0000BDE8F0876411000010B50446AFF30080E4
:104A10002046BDE81040FBF706BC00000048704788
:104A2000200000204FF0013C50F8042B51F8043BCB
:104A30009A4221D1A2EB0C03934313EACC1317D172
:104A400050F8042B51F8043B9A4215D1A2EB0C0309
:104A5000934313EACC130BD150F8042B51F8043BC9
:104A60009A4209D1A2EB0C03934313EACC13DBD097
:104A70004FF00000704700BFD01A01BAB1FA81F1BF
:104A800001F0180122FA01F0CB40DBB2C0B2C01A2B
:104A9000C1F120012CFA01F3D11A914311EAC3119B
:104AA000E6D1704701491820ABBEFEE726000200A0
:104AB00070475FEA400C08BF91F0000F4FEA8C236B
:104AC0004FEAC12243EA51514FEA1C5018BF00F58A
:104AD000F0404FEA300018BF41F000415FEA6C5CE3
:104AE00000F02980BCF1FF3F08BF40F080407047D4
:104AF000130C06BF12044FF0100C4FF0000C130EF5
:104B000004BF12020CF1080C130F04BF12010CF1C8
:104B1000040C930F04BF92000CF1020CD30F04BFDE
:104B200052000CF1010C11464FF00002A0F11F00E1
:104B3000A0EB0C00704711F0004F08BF704731F038
:104B400000413FF4D5AF0B0C06BF09044FF0100C29
:104B50004FF0000C0B0E04BF09020CF1080C0B0FF8
:104B600004BF09010CF1040C8B0F04BF89000CF188
:104B7000020CCB0F04BF49000CF1010CCCF1200357
:104B800022FA03F341EA030102FA0CF2A0EB0C0053
:104B900000F101007047000023F07F4720F07F4CB8
:104BA00080EA030000F00040ACEB070303F57C5300
:104BB00003F1FF032DE9804909B44FEA144324EAC5
:104BC00003484FEA154B25EA0B4E0FF2042606EB7D
:104BD00013273E7803FB0667C7F5000707FB06F6B9
:104BE0004FEAD64606F102064FEA543707FB066C39
:104BF000CCF1005C4FEA1C472CEA074C0CFB06F595
:104C000007FB06F404EB15464FEA961649085FEADF
:104C1000320234BF00204FF000404FEAD13706FB8C
:104C200007FC4FEA1C4C0CFB0BF7D21B03FB0CF7E9
:104C300061EB07010CFB0EF7B0EB074072EB17427C
:104C40000CFB08F734BFA2EB0742B2EB074261EB63
:104C500017414FEA0C444FEA910706FB07FC4FEA65
:104C60001C4C0CFB0BF7B0EBC74072EB573203FB4D
:104C70000CF734BFA2EBC742B2EBC74261EB57312E
:104C80000CFB0EF7B0EBC70072EB57720CFB08F78A
:104C900034BFA2EBC702B2EBC70261EB57714FEA18
:104CA000816141EA92114FEA826242EA90124FEA30
:104CB000806004EBCC04039F4FEAD13706FB07FC6E
:104CC0004FEA1C4C0CFB0BF7D21B03FB0CF761EB00
:104CD00007010CFB0EF7B0EB074072EB17420CFB21
:104CE00008F734BFA2EB0742B2EB074261EB174172
:104CF0004FEA8C5504EB9C244FEA910706FB07FC16
:104D00004FEA1C4C0CFB0BF7B0EBC74072EB573271
:104D100003FB0CF734BFA2EBC742B2EBC74261EB17
:104D200057310CFB0EF7B0EBC70072EB57720CFB60
:104D300008F734BFA2EBC702B2EBC70261EB5771B1
:104D40004FEA816141EA92114FEA826242EA90128F
:104D50004FEA806015EB4C2544F100044FEAD1374F
:104D600006FB07FC4FEA1C4C0CFB0BF7D21B03FBAA
:104D70000CF761EB07010CFB0EF7B0EB074072EB91
:104D800017420CFB08F734BFA2EB0742B2EB074215
:104D900061EB17414FEA813141EA92414FEA823299
:104DA00042EA90424FEA80304FEA0C7615EB1C1530
:104DB00044F1000448EA03434EEA0B484FF0000E6A
:104DC000B2EB080C71EB030724BF624639464EEB89
:104DD0000E0E4FF0000B0018524149414BEB0B0BEC
:104DE000B2EB080C71EB03077BF1000B24BF6246AA
:104DF00039464EEB0E0E4FF0000B00185241494160
:104E00004BEB0B0BB2EB080C71EB03077BF1000BC8
:104E100024BF624639464EEB0E0E51EA020718BF18
:104E200046F0010616EB0E7655F1000254F1000132
:104E300003D5BDE88901BDE80088BDE88901BDE86A
:104E40000048B619524141EB0101A3F1010370473B
:104E500080807F7E7D7C7B7A7978777676757473B7
:104E6000727171706F6E6E6D6C6C6B6A6A69686876
:104E7000676666656464636362616160605F5F5E0C
:104E80005E5D5D5C5C5B5B5A5A5959585857575682
:104E900056555555545453535252525151505050E7
:104EA0004F4F4F4E4E4D4D4D4C4C4C4B4B4B4A4A39
:104EB0004A4949494848484747474746464645457D
:104EC00045444444444343434342424242414141B6
:104ED0009C46002B30D477002BD04FEA37071CB507
:104EE00003B44FF010004FF01001BAF1000F06D0DC
:104EF000BCF1000FDCBF40F0080040F008014FF0AB
:104F000000000FBCBDE810400BF1010BBBF1010F1D
:104F100008BF5FEA170722BF12F1010211F1010178
:104F20004FF0004143F1000300F0004043EA00006D
:104F30007047F9D35708D0E746EA06464FEA1646C7
:104F400013F1400F1FDD13F1200FDFBF16430A4698
:104F5000002120335B42BED0C3F1200746EA06465B
:104F60004FEA164602FA07F746EA070622FA03F264
:104F7000C3F1200701FA07F742EA070221FA03F119
:104F80004FF00003A7E746EA020646EA06464FEA64
:104F9000164646EA0106BCBF46EA0646360C4FF006
:104FA00000034FF000024FF0000194E72DE9804C20
:104FB00070B49A46934691E8380007C831EA400C2D
:104FC00048BF34EA430C03D5FFF7E6FDFFF780FF47
:104FD000F0BCBDE8008C2DE9804C70B49A46934635
:104FE00091E8380007C810F0804F08BF13F0804FD9
:104FF00003D100F005F8FFF76BFFF0BCBDE8008CB3
:1050000020F07F4723F07F4C80EA030000F000404F
:1050100007EB0C03A3F57C53A3F1FE0392F0000F02
:1050200000F0B38095F0000F00F077802DE9014982
:105030004FEA114021EA00484FEA144624EA0647A5
:1050400000FB06FC08FB06F607FB08F818EB064811
:105050004CEB164C00FB07F718EB07484CEB1740DE
:105060004FEA124B22EA0B4E4FEA154625EA064755
:105070000BFB06FC0EFB06F607FB0EFE1EEB064EB8
:105080004CEB164C0BFB07F71EEB074E4CEB174B8C
:1050900018EB0B0840F1000018EB0E0B58EB000862
:1050A00040F100008F1A4FF000014FF000063CBFA6
:1050B000C943661B14BFB5EB040C00213CBFC943B8
:1050C000F61B4FEA174427EA04454FEA1C472CEA2F
:1050D000074C04FB076205FB07F70CFB05F616EB14
:1050E000074642EB174204FB0CFC16EB0C4642EB66
:1050F0001C421BEB060658EB020241414EEA8E0EA3
:1051000046EA9E0601D5BDE80189B619524141EB38
:105110000101A3F10103BDE801894FEA144524EA26
:1051200005464FEA114721EA074C05FB07F406FB49
:1051300007F70CFB06F111EB074144EB174405FBA5
:105140000CFC11EB0C4144EB1C444FEA124722EAE1
:10515000074C05FB07F206FB07F70CFB06F616EB00
:10516000074642EB174205FB0CFC16EB0C4642EBE4
:105170001C456A1854F1000148BF7047B6195241E6
:1051800041EB0101A3F10103704795F0000F37D007
:105190004FEA114221EA02464FEA144724EA074C3B
:1051A00002FB07F106FB07F70CFB06F414EB0744C0
:1051B00041EB174102FB0CFC14EB0C4441EB1C418E
:1051C0004FEA154725EA074C02FB07F506FB07F7F0
:1051D0000CFB06F616EB074645EB174502FB0CFCED
:1051E00016EB0C4645EB1C42121951F1000148BF69
:1051F0007047B619524141EB0101A3F10103704719
:105200004FEA144524EA05464FEA114721EA074CC4
:1052100005FB07F106FB07F70CFB06F212EB074252
:1052200041EB174105FB0CFC12EB0C4251EB1C410E
:105230004FF0000648BF7047921841EB0101A3F1FF
:1052400001037047490050EAC12018BF04204A0DED
:1052500018BF40F0010040F2FF72B2EB515F08BF8F
:1052600040F00200012808BF0520704730380A28A6
:1052700001D20120704700207047000010B50029BE
:105280000AD00878002807D005487844FFF7CAFB01
:10529000002801D0002010BD0248784410BD000055
:1052A000664800005E48000010B500290AD0087862
:1052B000002807D005487844FFF7B4FB002801D048
:1052C000002010BD0248784410BD00005648000080
:1052D0004E48000090EA010F48BF81F0004100F104
:1052E000F682421A3CBF801A89184FEAD052A2EBCC
:1052F000D1534FF07F4C1CEA410F18BF9CEA026F5C
:1053000000F03B804FF0004C4CEA00204CEA0121B9
:1053100021FA03FC10EB0C0C1ED202F1FF325FEA03
:105320001C2040EBC25038BF70471CF07F0F4FEA83
:10533000400C18BFBCF17F4F38BF7047C3F120034A
:10534000994008BF20F00100BCF17F4F38BF704783
:10535000A0F1C04000F0AFBA4FEA3C00000A40EBB9
:10536000C25028BF1CF0FF0F4FEA400CE6D018BF18
:10537000BCF17F4F38BF7047EAE79CEA026F05D067
:1053800010EA5C0F08BF00F00040704710B500F055
:105390004CFA00BF64FBBE3E10B500F0F5F80CBF40
:1053A0000120002010BD10B500F0EEF814BF012060
:1053B000002010BD10B500F04FF98CBF0120002077
:1053C00010BD10B500F048F92CBF0120002010BD21
:1053D00010B500F075F994BF0120002010BD10B584
:1053E00000F06EF934BF0120002010BD401058BFFE
:1053F000C0F14040491058BFC1F140418142EFF334
:10540000008070474FF47F0C1CEAD0121EBF1CEACC
:10541000D11392EA0C0F93EA0C0F00F0858090EA0A
:10542000010F48BF42F4807240F4000C41F40000C8
:105430002CF07F4120F07F4000B5A2EB03028142B7
:105440000FF2081CACEB504E9EF800E0C0F10000DB
:105450004FEA4E0E00FB0EFC38BF49004FEA2C1CF1
:105460000CFB0EF34FEACE1E0EEB635E4FEA112CDF
:105470000EFB0CFC4FEAC1214FEA1C5300FB031149
:1054800002F5FA024FEA112C0EFB0CFC4FEA013137
:105490004FEADC4C00FB0C1142EB2242C14228BF18
:1054A00009184CEB03335DF804EB10EB410143EBBF
:1054B000C250B2F57C0F38BF704729D512F0F00FFB
:1054C0001CBF00F1C04000F00040704700818283A3
:1054D0008485868788898B8C8D8E8F919293959603
:1054E00097999A9C9D9FA0A2A3A5A7A8AAACAEB08D
:1054F000B2B3B5B7B9BCBEC0C2C5C7C9CCCED1D492
:10550000D7D9DCDFE2E6E9ECF0F3F7FAFE000000C1
:105510004FEA400C0CF1807CBCF17E4F28BF7047F5
:10552000B0F1C04000F0C7B90CEAD11390EA010F06
:1055300048BF42F48072624538BF634507D213F416
:105540007F0F16D080EA010000F00040704710B5D0
:1055500000F06BF9097EFC3E00F005B880EA01001E
:1055600000F00040704780EA010000F0004000F0C9
:10557000A2B912F47F0F04BF0248704780EA01000D
:1055800000F099B90000C07F50EA010C00F11380CF
:105590001CF5000F58BFBCF5000F01D488427047BE
:1055A00007D710F5000F58BF11F5000F15D488422A
:1055B0007047894270471CF5000F04D5BCF5000FF9
:1055C000F7D5814270474FF0807C1CEB400F38BF0D
:1055D0001CEB410F01D28142704710B500F025F954
:1055E000922449004FF000504FF08051FFF7FEBE6B
:1055F00041000B0ED3F19E0208D950F400034FEA8C
:10560000032323FA02F048BF4042704710B500F070
:105610000CF900BF49922480002070476FF00042CF
:1056200082EA20007047000010F0004148BF40426D
:10563000B0FA80F310FA03F2C3F19D030BD051EAE4
:10564000C35101EB1220530638BF704700F101002F
:1056500008BF20F00100704750EA010C00F11380F0
:105660001CF5000F58BFBCF5000F01D488427047ED
:1056700007D710F5000F58BF11F5000F15D4884259
:105680007047894270471CF5000F04D5BCF5000F28
:10569000F7D5814270474FF0807C1CEB400F38BF3C
:1056A0001CEB410F01D28142704710B500F0BDF8EC
:1056B000922449004FF080504FF00051FFF796BE02
:1056C00050EA010C00F113801CF5000F58BFBCF527
:1056D000000F01D48842704707D710F5000F58BF5C
:1056E00011F5000F15D488427047894270471CF5A8
:1056F000000F04D5BCF5000FF7D5814270474FF07D
:10570000807C1CEB400F38BF1CEB410F01D2814263
:10571000704710B500F089F8922449004FF000500E
:105720004FF08051FFF762BE4FF47F0C1CEAD0129D
:105730001EBF1CEAD11392EA0C0F93EA0C0F00F083
:10574000478090EA010F48BF42F480724FF0004C4E
:105750004CEA00204CEA012102EB0302A0FB0113FA
:10576000A2F50002002918BF43F001035B0028BF27
:105770004FEA330342EB22425FEA132C4CEBC25058
:105780002EBFBCEB436FB2F57C0F70474FEA036C42
:10579000BCF1004F08BF20F00100B2F57C0F38BF0C
:1057A00070470BD582F0FF0212F5803FC8BF7047EB
:1057B00000F1C040D8BF00F00040704700F5000C79
:1057C0005FEA4C0C48BF7047B0F1C04000F073B8BE
:1057D0000CEAD11390EA010F48BF42F4807262458F
:1057E00038BF634504D280EA010000F000407047F2
:1057F00010B500F01AF800BF8900013E00F007B8AC
:1058000000F009B85FEA410C5FEA1C6C08D080EA3E
:10581000010000F050B85FEA400C5FEA1C6CF6D162
:105820004FF00040A0F5800070470EF1020E2EF000
:10583000030E5EF8044B244204D44FEA4102B2F155
:105840007F4F11D84FEA4003B3F17F4F0CD80ED1F0
:105850004FEAD07C0CEB4C0C0CF1020CB2F17F4FF8
:1058600008BF4CEBD17C04E04FF0080C01E04FEA9C
:10587000D17C0CEB4C0324FA03F404F00704B4F1DC
:10588000040C06D20EEB840CBDE810404CF0010C69
:105890006047DFE80CF0070802024FF00040A0F577
:1058A000800010BD0846420018BFD2F1807288BF48
:1058B00000F0004010BDFF2141EAD050C005704704
:1058C00090EA010F48BF81F000413FF50AAD421A4E
:1058D00004D882F00042A0EB020011444FEAD052FB
:1058E000A2EBD1534FF07F4C1CEA410F18BF9CEA4A
:1058F000026F4AD04FF0004C4CEA00204CEA0121E4
:1059000021FA03FCB0EB0C0C0FD412F0FE0F36D0D2
:105910005FEA4C001DD5001240EBC25038BF704703
:105920001CF03F0F18BF70470BE05FEA1C20A2F18C
:10593000010240EBC25038BF70471CF07F0F18BF08
:105940007047C3F12003994014BF401E20F00100AE
:1059500070474FEA1223800808BF7047B0FA80FCF6
:10596000A2EB0C02CCF1280C60FA0CF093EA122F97
:1059700004BF00EBC25070474FEAC3707047130A70
:105980005FEADC1008BF7047F6E79CEA026F04D0BC
:1059900010EA5C0F08BF0020704710B5FFF745FF05
:1059A00040DFF63E81F000407047FEF745BCFEF751
:1059B00079BD0000000000000000000030313233EB
:1059C0003435363738394142434445464030580033
:1059D0003031323334353637383961626364656665
:1059E00040307800040000080000000000000002C1
:1059F0000001000010303132333435363738396128
:105A0000626364656678700030313233343536371E
:105A10003839414243444546585000000240000096
:105A2000000000A00000000005400000000000C8C9
:105A3000000000000C4000000000409C000000003E
:105A4000194000000020BCBE0000000034400000EF
:105A5000BFC91B8E00000004B5400000504BCFD0E2
:105A60006607E2CF010000006C4100003E8251AAAF
:105A7000DFEEA73401000000D9420000DCB5A0E24F
:105A80003A301F97FFFFFFFFB4450000FD25A0C877
:105A9000E9A3C14FFFFFFFFFFF3F000000000080B0
:105AA00000000000FF3F0000000000800000000038
:105AB00000000000000000000102030406070809BE
:105AC00000000000000000000000000000000000D6
:105AD00000000000000000000000000000000000C6
