:020000040800F2
:10000000B0200020350200083D0200083F02000831
:1000100041020008430200084502000800000000F9
:10002000000000000000000000000000470200087F
:1000300049020008000000004B0200084D020008C1
:100040004F0200084F0200084F0200084F0200084C
:100050004F0200084F0200084F0200084F0200083C
:100060004F0200084F0200084F0200084F0200082C
:100070004F0200084F0200084F0200084F0200081C
:100080004F0200084F0200084F0200084F0200080C
:100090004F0200084F0200084F020008C50E00087A
:1000A0004F0200084F0200084F0200084F020008EC
:1000B000AD1000084F020008390F00084F02000879
:1000C0004F0200084F0200084F0200084F020008CC
:1000D0004F020008313A00084F0200084F020008A2
:1000E0004F0200084F0200084F02000800F002F81B
:1000F00000F090F80AA090E8000C82448344AAF132
:100100000107DA4501D100F085F8AFF2090EBAE82F
:100110000F0013F0010F18BFFB1A43F0010318473B
:100120000C9F00002C9F0000103A24BF78C878C1B3
:10013000FAD8520724BF30C830C144BF04680C60ED
:10014000704700000023002400250026103A28BF35
:1001500078C1FBD8520728BF30C148BF0B60704739
:100160006E2903F0A786702903F0E987662905F058
:10017000E485652905F0E185672905F0DE856129BB
:1001800005F0DD8503681B0A28BF41F0800169295D
:1001900003F05486642903F05186752903F04E86D6
:1001A0006F2903F07787782903F0B587E92903F0F1
:1001B0001187E42903F00E87F52903F00B87EF2957
:1001C00003F07487F82903F0B4870368DB0928BFBC
:1001D00041F08001632904F0B584732904F0BA84E6
:1001E000E32904F0C584F32904F0CA840020704791
:1001F0001FB504F01BFD04000020002105F01CFACF
:10020000401C60600020002105F000FAE0601FBD86
:1002100010B510BD04F0DCFC1146FFF7E9FF01F05A
:1002200081FB04F0B9FD03B4FFF7F2FF03BC04F057
:1002300001FE00000948804709480047FEE7FEE745
:10024000FEE7FEE7FEE7FEE7FEE7FEE7FEE7FEE786
:1002500004480549054A064B70470000B9330008B9
:10026000ED000008B0100020B0200020B0180020E1
:10027000B018002080B58CB08DF82F008DF82E10AE
:100280000A9209939DF82F00C0F1640005F094FBD9
:100290000021CCF2FF21039105F00EFC0021C4F2F5
:1002A000C82105F077FA08909DF82E007F38ADF848
:1002B0001E00BDF91E0000EBD0704008ADF81C0018
:1002C00008980190BDF91C0005F076FB01460198E5
:1002D00005F0C8F903990022049200F025F8069071
:1002E00008980290BDF91C0005F066FB01460298D3
:1002F00005F0AEFC0399049A00F016F805900699F3
:1003000081F0004005F0A4FC05F03AFB0A99087062
:10031000059981F0004005F09BFC05F031FB09993F
:1003200008700CB080BD00BF80B584B00290019110
:1003300000920298019905F00CFA18B9FFE70198AC
:1003400003900BE00298009905F00AFA18B9FFE74C
:100350000098039002E002980390FFE7039804B02E
:1003600080BD00BF83B04FF60040C0F60000019092
:1003700041F2A200C2F2000000900020ADF80A0095
:10038000FFE7BDF80A00012811DCFFE70198BDF87E
:100390000A1050F821000099BDF80A2041F8220007
:1003A000FFE7BDF80A000130ADF80A00E9E703B045
:1003B000704700BF80B584B04FF60040C0F6000023
:1003C000029041F2A200C2F20000019001F0FAFB9B
:1003D000029801F02BFC00208DF80F00FFE79DF83C
:1003E0000F00012811DCFFE702989DF80F2000EBB9
:1003F0008200019951F8221001F0A4FDFFE79DF859
:100400000F0001308DF80F00E9E701F0FBFB04B0AD
:1004100080BD00BF80B586B040F28600C2F2000009
:10042000007841F2A201C2F20001087040F27F00A0
:10043000C2F200000078487040F21400C2F20000DE
:100440000078C87040F27800C2F2000000780871AD
:1004500040F20500C2F20000007888704FF60040BC
:10046000C0F60000039004A802900020ADF806003A
:10047000FFE7BDF80600012811DCFFE70398BDF88F
:10048000061050F821000299BDF8062041F822001C
:10049000FFE7BDF806000130ADF80600E9E740F2DD
:1004A0009D00C2F2000000780146009104282DD87A
:1004B0000099DFE801F0030B131B230041F2A200B7
:1004C000C2F20000C0788DF8130020E041F2A200D3
:1004D000C2F2000000788DF8100018E041F2A2008E
:1004E000C2F2000040788DF8110010E041F2A20045
:1004F000C2F2000000798DF8140008E041F2A20079
:10050000C2F2000080788DF8120000E00CE041F2A9
:10051000A201C2F200010498DDF81320C1F8032003
:100520000860FFF747FFFFE706B080BD41F21C01FE
:10053000C4F20201086840F48000086041F218012A
:10054000C4F20201086840F00800086040F6044167
:10055000C4F20101086820F470600860086840F483
:1005600010600860086820F470400860086840F473
:100570001040086045F60001C4F20001088840F40C
:100580000040088008886FF3DF30088045F61C02C1
:10059000C4F20002B420108045F62002C4F200022A
:1005A0001320108045F60402C4F20002108840F0C7
:1005B00038001080088840F001000880704700BFB4
:1005C00081B08DF803008DF8021045F60001C4F2E9
:1005D0000001088840F480700880FFE745F61400A9
:1005E000C4F200000088C00708B9FFE7F6E79DF8ED
:1005F0000300400045F61001C4F200010880FFE747
:1006000045F61400C4F2000000888007002801D4D9
:10061000FFE7F5E745F61800C4F2000000889DF8F2
:10062000020045F61001C4F200010880FFE745F61C
:100630001400C4F2000000880006002801D4FFE77F
:10064000F5E745F60001C4F20001088840F40070A7
:10065000088001B0704700BF80B59CB040F29D009B
:10066000C2F20000007840F20401C2F200010978F1
:1006700088420DD1FFE740F29F00C2F200000078EF
:1006800040F20C01C2F200010978884217D0FFE75E
:1006900002F0E2F940F29D00C2F20000007840F260
:1006A0000401C2F20001087040F29F00C2F2000093
:1006B000007840F20C01C2F200010870FFE740F23E
:1006C0009D00C2F20000007801460791042800F264
:1006D000A8820799DFE811F0050021015901F00116
:1006E000110240F29F00C2F20000007801280AD1F6
:1006F000FFE749F65473C0F60003142100221046A8
:1007000002F044FB41E040F21400C2F20000007825
:10071000C0F1640005F050F90021CCF2FF2105F092
:10072000CBF90021C4F2C82105F034F817901798CE
:100730004FF07C5104F096FF05F022F916901698C0
:1007400040B9FFE749F64461C0F6000112A803F082
:10075000F9FA08E0169A49F64C61C0F6000112A8B1
:1007600003F0F0FAFFE71E20142105910022069203
:1007700012AB02F00BFB0599069A49F64173C0F6DD
:100780000003104602F002FBFFE740F28600C2F2CF
:100790000000007848B9FFE749F60152C0F60002B0
:1007A0000720382102F02CFB1AE040F28600C2F24A
:1007B00000000078012809D1FFE749F6F052C0F6A1
:1007C00000020720382102F01BFB08E049F66C62AA
:1007D000C0F600020720382102F012FBFFE7FFE716
:1007E00040F27800C2F2000000787F381190119A30
:1007F00049F6FF51C0F600010DA8049003F0A2FADB
:10080000049A2720382102F0FBFA40F27F00C2F25E
:100810000000007848B9FFE749F6C372C0F600024D
:100820000120002102F0ECFA74E040F27F00C2F2F5
:1008300000000078012809D1FFE749F69572C0F65B
:1008400000020120002102F0DBFA62E040F27F00AA
:10085000C2F200000078022809D1FFE749F6E972E8
:10086000C0F600020120002102F0CAFA50E040F276
:100870007F00C2F200000078032809D1FFE749F6A3
:100880006E72C0F600020120002102F0B9FA3EE0CB
:1008900040F27F00C2F200000078042809D1FFE78F
:1008A0004AF20302C0F600020120002102F0A8FA79
:1008B0002CE040F27F00C2F200000078052809D148
:1008C000FFE749F6F672C0F600020120002102F0AF
:1008D00097FA1AE040F27F00C2F200000078062882
:1008E00009D1FFE74AF21002C0F600020120002100
:1008F00002F086FA08E049F62C72C0F600020120E8
:10090000002102F07DFAFFE7FFE7FFE7FFE7FFE7DF
:10091000FFE7FFE700F088F983E149F68F73C0F63F
:10092000000313200022114602F030FA40F2860044
:10093000C2F20000007850B9FFE749F6E853C0F66C
:10094000000350202021002202F020FA1CE040F297
:100950008600C2F20000007801280AD1FFE749F6BC
:100960005B73C0F6000350202121002202F00EFA32
:1009700009E049F66273C0F60003502020210022EE
:1009800002F004FAFFE7FFE74BE149F66A73C0F6AD
:10099000000319200022114602F0F8F940F27F000E
:1009A000C2F20000007850B9FFE749F64873C0F67C
:1009B000000305202321002202F0E8F97BE040F249
:1009C0007F00C2F20000007801280AD1FFE749F653
:1009D0005463C0F6000305202321002202F0D6F95B
:1009E00068E040F27F00C2F20000007802280AD1DD
:1009F000FFE749F68763C0F60003052023210022A4
:100A000002F0C4F955E040F27F00C2F20000007825
:100A100003280AD1FFE749F67B63C0F600030520EF
:100A20002321002202F0B2F942E040F27F00C2F23C
:100A30000000007804280AD1FFE749F69F63C0F65A
:100A4000000305202321002202F0A0F92FE040F24C
:100A50007F00C2F20000007805280AD1FFE749F6BE
:100A60009363C0F6000305202321002202F08EF9D3
:100A70001CE040F27F00C2F20000007806280AD194
:100A8000FFE749F6AB63C0F60003052023210022EF
:100A900002F07CF909E049F66063C0F60003052026
:100AA0002321002202F072F9FFE7FFE7FFE7FFE7EB
:100AB000FFE7FFE7FFE7B4E049F63973C0F600034C
:100AC0000F2000220292114602F060F940F27800F5
:100AD000C2F2000000787F381190119A49F6076140
:100AE000C0F6000109A8039003F02CF9029A039BB9
:100AF0001920232102F04AF993E049F67B73C0F6EE
:100B00000003082000220192114602F03FF90198EB
:100B100040F20501C2F20001097848F21F52C5F205
:100B2000EB12A1FB0221B0EB511F04D1FFE7202003
:100B30008DF820000FE040F20500C2F200000078BE
:100B400048F21F51C5F2EB11A0FB011040093030F3
:100B50008DF82000FFE740F20500C2F200000078A7
:100B600048F21F51C5F2EB11A0FB01010020B0EBD0
:100B7000511F1ED1FFE740F20500C2F200000278CB
:100B800048F21F50C5F2EB10A2FB0010400964218F
:100B900000FB11204CF6CD41CCF6CC41A0FB01016D
:100BA0000020B0EBD10F04D1FFE720208DF8210009
:100BB0001AE040F20500C2F20000027848F21F502D
:100BC000C5F2EB10A2FB00104009642100FB1120CC
:100BD0004CF6CD41CCF6CC41A0FB0101302000EB1E
:100BE000D1008DF82100FFE740F20500C2F20000BD
:100BF00000784CF6CD41CCF6CC41A0FB0121C908D0
:100C000001EB8101A0EB410040F030008DF82200A3
:100C100000228DF823201620232108AB02F0B6F81D
:100C2000FFE71CB080BD00BF80B582B040F29D00E0
:100C3000C2F200000078002840F0B880FFE740F2E0
:100C40009800C2F2000000780138014601911C288A
:100C500000F2AB800199DFE801F00F18212A333C44
:100C6000454E57606972A8A8A8A8A8A8A8A8A8A8CF
:100C7000A8A87B848D969F0049F60C62C0F60002FE
:100C80002520002102F0BCF88FE049F63F52C0F663
:100C900000022520002102F0B3F886E049F61A622E
:100CA000C0F600022520002102F0AAF87DE049F6F6
:100CB0003152C0F600022520002102F0A1F874E0B4
:100CC00049F6B762C0F600022520002102F098F82C
:100CD0006BE049F68F52C0F600022520002102F099
:100CE0008FF862E049F6D362C0F6000225200021A9
:100CF00002F086F859E049F69D52C0F60002252020
:100D0000002102F07DF850E049F6C562C0F600020D
:100D10002520002102F074F847E049F6AB52C0F6F6
:100D200000022520002102F06BF83EE04AF21D028D
:100D3000C0F600022520002102F062F835E049F6F5
:100D40002862C0F600022520002102F059F82CE0AC
:100D500049F6B952C0F600022520002102F050F8F1
:100D600023E049F63662C0F600022520002102F099
:100D700047F81AE049F61E72C0F60002252000214D
:100D800002F03EF811E049F61072C0F6000225208C
:100D9000002102F035F808E049F6E162C0F60002F1
:100DA0002520002102F02CF8FFE7FFE702B080BD0C
:100DB00080B582B040F29A01C2F2000100200880A2
:100DC000FFE740F60800C4F2010000684006002872
:100DD00041D4FFE740F61000C4F200000088C007CD
:100DE000C0B3FFE740F61001C4F20001088820F00C
:100DF0000100088040F29A00C2F20000018801312F
:100E000001800088B0F5FA6F23D1FFE701F024FEDE
:100E100049F68673C0F600030D20002201921146A8
:100E200001F0B4FFFFF79EFAFFF7F4FA019840F2E1
:100E30009D01C2F2000108704FF47A7001F000FCCD
:100E400001F00AFE40F29E01C2F20001012008708A
:100E5000FFE7FFE7B5E740F29A00C2F20000008822
:100E6000B0F5FA6F01DBFFE71EE040F29C01C2F231
:100E700000010120087040F29D00C2F200000178DC
:100E8000013101700078052807DBFFE740F29D0182
:100E9000C2F2000100200870FFE740F29E01C2F29A
:100EA000000101200870FFE702B080BD81B08DF81D
:100EB00003009DF80300012801D1FFE700E0FFE7F0
:100EC00001B0704780B540F21440C4F201000068E0
:100ED0004006002817D5FFE740F21441C4F2010193
:100EE0004020086040F62400C4F20000008840F270
:100EF0007C01C2F20001088040F27A01C2F20001D6
:100F000001200870FFE740F21440C4F201000068BD
:100F1000800600280FD5FFE740F21441C4F201011A
:100F20002020086040F28C01C2F20001012008700C
:100F300002F0BCFDFFE780BD80B582B040F6100036
:100F4000C4F200000088C007002800F09B80FFE783
:100F500040F61001C4F20001088820F0010008806A
:100F600040F28000C2F200000068A8B1FFE740F242
:100F70008000C2F20000006840F20801C2F20001E5
:100F80000968884208D2FFE740F28001C2F20001FE
:100F9000086801300860FFE740F29A00C2F20000E2
:100FA0000088A8B1FFE740F29A00C2F20000008872
:100FB00040F21001C2F200010968884208D2FFE73E
:100FC00040F29A01C2F20001088801300880FFE770
:100FD00040F28E00C2F200000088012810DBFFE71B
:100FE00040F28E01C2F200010020088040F214415C
:100FF000C4F2010120200860172000F045F8FFE747
:1010000040F27A00C2F200000078D0B3FFE740F669
:101010002400C4F200000088ADF80600BDF8060008
:1010200040F27C01C2F20001098888420ADBFFE736
:10103000BDF8060040F27C01C2F200010988401AA6
:1010400000900CE0BDF8060040F27C01C2F2000105
:101050000988401A42F2107108440090FFE7009896
:10106000ADF80400BDF804000A2809DBFFE740F2F0
:101070007A01C2F2000100200870FFF799FEFFE735
:10108000FFE7FFE702B080BD81B08DF803009DF956
:10109000031001F01F02012090404A094EF2001196
:1010A000CEF2000141F8220001B0704780B584B053
:1010B0001020C4F200000088C007002800F043811F
:1010C000FFE71021C4F20001088820F00100088029
:1010D00040F2A000C2F20000007878B1FFE7AF2034
:1010E00001F01AFC40F2A001C2F2000100200870D9
:1010F00040F28001C2F20001086023E140F2800169
:10110000C2F200010020086002F064FB40F27E01A0
:10111000C2F20001087040F29C00C2F200000078A8
:10112000002800F00E81FFE740F27E00C2F20000CE
:101130000078002800F08980FFE740F29D00C2F2AD
:101140000000007801460391042800F27D80039995
:10115000DFE801F0032D3F50610040F27E00C2F253
:101160000000007888B1FFE740F21400C2F20000EE
:101170000078632808DCFFE740F21401C2F20001A6
:10118000087801300870FFE710E040F21400C2F266
:1011900000000078012808DBFFE740F21401C2F2EA
:1011A0000001087801380870FFE7FFE74CE040F2E3
:1011B0008601C2F20001087801304AF6AB22CAF675
:1011C000AA22A0FB0232520802EB4202801A0870E7
:1011D0003AE040F27F00C2F200000078062808DC06
:1011E000FFE740F27F01C2F2000108780130087089
:1011F000FFE729E040F27800C2F200000078B02852
:1012000008DCFFE740F27801C2F200010878013003
:101210000870FFE718E040F20500C2F20000007815
:10122000FE2808DCFFE740F20501C2F20001087861
:1012300001300870FFE740F20500C2F200000178BB
:10124000C12001F07FFBFFE774E040F29D00C2F295
:10125000000000780146029104286AD80299DFE86C
:1012600001F003142D3E4F0040F21400C2F20000C2
:101270000078012808DBFFE740F21401C2F2000108
:10128000087801380870FFE753E040F28600C2F2A8
:101290000000007818B9FFE70220019007E040F253
:1012A0008600C2F20000007801380190FFE7019843
:1012B00040F28601C2F2000108703AE040F27F007D
:1012C000C2F200000078012808DBFFE740F27F014E
:1012D000C2F20001087801380870FFE729E040F207
:1012E0007800C2F2000000784E2808DBFFE740F2E9
:1012F0007801C2F20001087801380870FFE718E0B1
:1013000040F20500C2F200000078012808DBFFE788
:1013100040F20501C2F20001087801380870FFE7C9
:1013200040F20500C2F200000178C12001F00AFB82
:10133000FFE7FFE740F29E01C2F2000101200870C2
:10134000FFE7FFE7FFE704B080BD00BF81B08DF885
:1013500003008DF802108DF80120FFE745F6180014
:10136000C4F2000000888007002801D5FFE7F5E7F8
:1013700045F60001C4F20001088840F4807008803E
:10138000FFE745F61400C4F200000088C00708B962
:10139000FFE7F6E79DF80300400045F61001C4F2B0
:1013A00000010880FFE745F61400C4F20000008841
:1013B0008007002801D4FFE7F5E745F61800C4F2DE
:1013C000000000889DF8020045F61001C4F20001FB
:1013D0000880FFE745F61400C4F20000008800060C
:1013E000002801D4FFE7F5E79DF8010045F610015C
:1013F000C4F200010880FFE745F61400C4F20000C3
:1014000000880006002801D4FFE7F5E745F6000153
:10141000C4F20001088840F40070088001B07047F1
:1014200080B582B08DF8070000208DF806009DF889
:10143000070040018DF806009DF8060040F00C0002
:101440008DF806009DF8070040F27F01C2F200010E
:1014500008709DF8062048200721FFF777FF02B0AB
:1014600080BD00BF80B582B08DF8070000208DF8E8
:1014700006009DF8070001460091012808D0FFE70B
:101480000098022808D0FFE70098032808D00BE056
:1014900000208DF806000BE040208DF8060007E0E4
:1014A00050208DF8060003E000208DF80600FFE7CD
:1014B0009DF8070040F28601C2F2000108709DF815
:1014C000062048200121FFF741FF02B080BD00BF88
:1014D00080B582B0019001980090022800F08980C8
:1014E000FFE70098072856D0FFE70098082869D042
:1014F000FFE700980B280DD0FFE700980D2820D0BB
:10150000FFE700985D2833D0FFE700985E2800F0E1
:10151000898097E040F21400C2F20000007863284E
:1015200008DCFFE740F21401C2F200010878013044
:101530000870FFE740F29E01C2F20001012008702E
:1015400080E040F21400C2F200000078012808DBBD
:10155000FFE740F21401C2F2000108780138087078
:10156000FFE740F29E01C2F200010120087069E02D
:1015700040F29F00C2F200000178B1FA81F14909FE
:1015800001700078FFF792FC40F29E01C2F2000168
:101590000120087056E040F27800C2F200000078A6
:1015A000B02808DCFFE740F27801C2F200010878B9
:1015B00001300870FFE740F29E01C2F200010120F5
:1015C00008703FE040F27800C2F2000000784E2838
:1015D00008DBFFE740F27801C2F200010878013829
:1015E0000870FFE740F29E01C2F20001012008707E
:1015F00028E040F28601C2F20001087801304AF684
:10160000AB22CAF6AA22A0FB022303F0FE0202EBE1
:101610005302801A087040F29E01C2F200010120BC
:1016200008700FE040F27F01C2F20001087801303B
:1016300000F00700087040F29E01C2F20001012094
:101640000870FFE702B080BD80B584B08DF80F0050
:101650008DF80E10ADF80C20152001F05DF99DF805
:101660000F0001F04FF99DF80F003130C0B201F0CA
:1016700049F9752001F050F99DF80E0001F042F98A
:101680009DF80E001730C0B201F03CF95C2001F06B
:1016900043F900208DF80B00FFE79DF80B00172899
:1016A00061DCFFE700208DF80A00FFE79DF80A00E3
:1016B000042851DCFFE79DF80A0049F2B072C0F639
:1016C00000029C2100FB01200430019000208DF8D5
:1016D0000300FFE79DF80300122833DCFFE700203A
:1016E0008DF8020001989DF8031050F831009DF824
:1016F0000B10C840C00738B1FFE79DF8020040F06A
:10170000F0008DF80200FFE701989DF8031000EB50
:10171000C10040689DF80B10C840C00738B1FFE712
:101720009DF8020040F00F008DF80200FFE79DF8E1
:10173000020001F0E7F8FFE79DF8030001308DF8A3
:101740000300C7E7002001F0DDF8FFE79DF80A007D
:1017500001308DF80A00A9E7FFE79DF80B00013082
:101760008DF80B0099E749F6D172C0F600020A2005
:10177000002101F045FB49F6A272C0F600020120EB
:10178000382101F03DFBBDF80C0000F059FF01F0DD
:1017900063F904B080BD00BF80B582B0ADF806002B
:1017A00049F6EF62C0F6000201210091084601F0FF
:1017B00027FB009849F6C752C0F600020E2101F03F
:1017C0001FFB009849F66E52C0F600021B2101F083
:1017D00017FB009849F64D52C0F600022B2101F08C
:1017E0000FFB009849F61052C0F60002382101F0B4
:1017F00007FBBDF8060000F023FF01F02DF902B051
:1018000080BD00BF80B582B041F21801C4F2020170
:10181000086840F00800086040F60042C4F2010287
:10182000106820F470001060106840F40000106030
:1018300040F60C42C4F20102106840F02000106033
:10184000086840F0010008600C21C4F2010108683A
:1018500020F0F0000860086840F01000086040F2D6
:101860000041C4F20101086840F02000086040F225
:101870000C41C4F20101086840F02000086040F209
:101880000841C4F20101086820F020000860172018
:101890000190FFF7F9FB0198012100F021F841F2D6
:1018A0001C01C4F20201086840F00200086040F226
:1018B0002841C4F2000140F2CF20088040F22C41C0
:1018C000C4F200014FF6FF70088040F20041C4F2FC
:1018D0000001088840F00100088002B080BD00BF10
:1018E00082B08DF8070000919DF90700B0F1FF3F2D
:1018F0000CDCFFE7009800019DF8071001F00F01D4
:101900004EF61452CEF20002885409E0009800010D
:101910009DF907104EF20042CEF200028854FFE714
:1019200002B0704780B582B0002001904FF60040B1
:10193000C0F600000068013080B9FFE741F2A20163
:10194000C2F200010020087048702F2088705020DB
:10195000C8707F200871FEF72DFDFFE7FEF702FD3E
:1019600041F2A200C2F20000017840F28602C2F207
:1019700000021170417840F27F02C2F20002117041
:10198000C17840F21402C2F200021170017940F2F3
:101990007802C2F200021170807840F20501C2F2B2
:1019A0000001087000F00AFE00F072FE01F060FE17
:1019B00001F01AFF01F09EFFFEF7B8FDFFF722FFCE
:1019C00000F0E2FF41F21C01C4F20201086840F09D
:1019D0000400086040F20000C2F2000000684BF210
:1019E000C531C9F2A211A0FB01014FF0FF3000EB9D
:1019F000113040F62801C4F20001088040F62C01A5
:101A0000C4F200010A20088040F60C01C4F2000173
:101A1000088840F00100088040F60001C4F200018F
:101A2000088840F0010008801E20FFF72DFB41F2DE
:101A30001801C4F20201086840F01000086041F289
:101A40000401C4F20101086820F47000086008680D
:101A500040F48010086041F20C01C4F201010868F2
:101A600020F400500860012000F0A2FE00208DF854
:101A7000030040F60800C4F2010000684006002898
:101A80001FD4FFE7FFE740F60800C4F2010000683A
:101A90004006002814D4FFE74FF47A7000F0D0FD20
:101AA0009DF8030001308DF803009DF803000A281B
:101AB00005DBFFE749F64040FFF76EFEFFE7E2E790
:101AC000FFE72320142140F2DC52FFF7BDFD002088
:101AD000ADF8000040F29E01C2F200010120087042
:101AE00040F29C01C2F200010870FFE740F29E0044
:101AF000C2F20000007848B1FFE740F29E01C2F256
:101B0000000100200870FEF7A7FDFFE740F29200F9
:101B1000C2F20000007870B1FFE740F29201C2F219
:101B200000010020087040F29300C2F200008078AB
:101B3000FFF7CEFCFFE740F2A100C2F20000007800
:101B400048B1FFE740F2A101C2F200010020087095
:101B5000FFF76AF8FFE7C9E782B001900020009024
:101B600042F20001C4F2020108680090009800F0FF
:101B700038000090019A0098104300900098086087
:101B800002B0704781B0009042F20001C4F202013D
:101B9000086820F008000860009A08681043086090
:101BA00001B0704781B0009042F20001C4F202011E
:101BB000086820F010000860009A08681043086068
:101BC00001B0704742F20401C4F2020140F2231056
:101BD000C4F26750086048F6AB10CCF6EF500860CE
:101BE000704700BF42F20401C4F2020140F2231028
:101BF000C4F26750086048F6AB10CCF6EF500860AE
:101C0000704700BF42F21001C4F20201086840F0C0
:101C100080000860704700BF42F21001C4F2020168
:101C2000086840F080000860704700BF80B584B04D
:101C3000039004208DF80B004FF4302000F02CF8B6
:101C40008DF80B009DF80B00042820D1FFE742F22D
:101C50001001C4F202010191086840F0020008601E
:101C6000039842F21402C4F202021060086840F0C5
:101C7000400008604FF4302000F00EF801998DF814
:101C80000B00086841F6FD7210400860FFE79DF800
:101C90000B0004B080BD00BF80B584B00390042069
:101CA0008DF80B0000F056FC8DF80B00FFE79DF857
:101CB0000B1000200129019006D1FFE703980028AE
:101CC00018BF01200190FFE70198C00740B1FFE76E
:101CD00000F040FC8DF80B00039801380390E6E714
:101CE000039820B9FFE705208DF80B00FFE79DF86A
:101CF0000B0004B080BD00BF80B582B004208DF819
:101D000007004FF43020FFF7C7FF8DF807009DF85C
:101D1000070004281AD1FFE742F21001C4F20201C1
:101D20000091086840F004000860086840F0400036
:101D300008604FF43020FFF7AFFF00998DF80700DF
:101D4000086841F6FB7210400860FFE79DF8070045
:101D500002B080BD80B582B004208DF807004FF43A
:101D6000302000F025F88DF807009DF807000428C2
:101D70001AD1FFE742F21001C4F202010091086893
:101D800040F004000860086840F0400008604FF42C
:101D9000302000F00DF800998DF80700086841F632
:101DA000FB7210400860FFE79DF8070002B080BD9D
:101DB00080B584B0039004208DF80B0000F0CAFBBE
:101DC0008DF80B00FFE79DF80B1000200129019012
:101DD00006D1FFE70398002818BF01200190FFE714
:101DE0000198C00740B1FFE700F0B4FB8DF80B008D
:101DF000039801380390E6E7039820B9FFE7052030
:101E00008DF80B00FFE79DF80B0004B080BD00BF0C
:101E100080B582B0A520ADF8060004208DF805003D
:101E200000F076F820B1FFE70020ADF80600FFE7EC
:101E30004FF43020FFF730FF8DF805009DF80500C6
:101E4000042860D1FFE742F20801C4F2020140F227
:101E50002310C4F26750086048F6AB10CCF6EF5080
:101E6000086042F21001C4F20201086840F020004C
:101E70000860086840F0400008604FF43020FFF729
:101E80000BFF8DF805009DF8050004282AD1FFE717
:101E900042F21001C4F20201086841F6DF721040FC
:101EA0000860086840F010000860BDF806004FF6B2
:101EB0000001C1F6FF7108804FF40050FFF7ECFEFF
:101EC0008DF805009DF8050005280AD0FFE742F2CD
:101ED0001001C4F20201086841F6EF721040086078
:101EE000FFE70FE09DF8050005280AD0FFE742F262
:101EF0001001C4F20201086841F6EF721040086058
:101F0000FFE7FFE7FFE79DF8050002B080BD00BFD7
:101F100081B000208DF8030042F21C00C4F20200E0
:101F200000688007002804D5FFE701208DF8030032
:101F300003E000208DF80300FFE79DF8030001B0E7
:101F4000704700BF80B584B00390029104208DF8E3
:101F50000700002000904FF40050FFF79DFE8DF821
:101F600007009DF80700042838D1FFE742F210016E
:101F7000C4F20201086840F0010008600298039969
:101F800008804FF40050FFF787FE8DF807009DF89A
:101F90000700042817D1FFE7039802300090BDF82E
:101FA0000A00009908804FF40050FFF775FE8DF885
:101FB000070042F21001C4F20201086841F6FE7205
:101FC0001040086009E042F21001C4F20201086802
:101FD00041F6FE7210400860FFE7FFE79DF807003A
:101FE00004B080BD80B584B00390ADF80A10042021
:101FF0008DF809004FF40050FFF74EFE8DF80900F0
:102000009DF8090004281AD1FFE742F21001C4F23A
:1020100002010191086840F001000860BDF80A0063
:10202000039908804FF40050FFF736FE01998DF8B0
:102030000900086841F6FE7210400860FFE79DF84D
:10204000090004B080BD00BF80B582B001908DF85A
:10205000031004208DF802004FF40050FFF71CFE1F
:102060008DF802009DF80200042830D1FFE742F20B
:102070000801C4F2020140F22310C4F26750086064
:1020800048F6AB10CCF6EF50086042F21001C4F2F3
:102090000201086840F0100008609DF803000199F3
:1020A00008804FF40050FFF7F7FD8DF802009DF80F
:1020B000020005280AD0FFE742F21001C4F2020133
:1020C000086841F6EF7210400860FFE7FFE79DF8EF
:1020D000020002B080BD00BF80B584B003904FF60F
:1020E000FF70ADF80A00ADF80800ADF80600ADF8D5
:1020F000040004208DF803000398C04303909DF86A
:102100000C00ADF80A009DF80D00ADF808009DF830
:102110000E00ADF806009DF80F00ADF804004FF476
:102120000050FFF7B9FD8DF803009DF80300042867
:1021300040F08280FFE742F20801C4F2020140F25F
:102140002310C4F26750086048F6AB10CCF6EF508D
:10215000086042F21001C4F20201086840F0100069
:102160000860BDF80A00FF280ED0FFE7BDF80A009E
:102170004FF60801C1F6FF7108804FF40050FFF7D9
:102180008BFD8DF80300FFE79DF80300042813D1B1
:10219000FFE7BDF80800FF280ED0FFE7BDF80800F4
:1021A0004FF60A01C1F6FF7108804FF40050FFF7A7
:1021B00073FD8DF80300FFE79DF80300042813D199
:1021C000FFE7BDF80600FF280ED0FFE7BDF80600C8
:1021D0004FF60C01C1F6FF7108804FF40050FFF775
:1021E0005BFD8DF80300FFE79DF80300042813D181
:1021F000FFE7BDF80400FF280ED0FFE7BDF804009C
:102200004FF60E01C1F6FF7108804FF40050FFF742
:1022100043FD8DF80300FFE79DF8030005280AD071
:10222000FFE742F21001C4F20201086841F6EF72C2
:1022300010400860FFE7FFE79DF8030004B080BD91
:1022400080B582B08DF8070004208DF806004FF4A9
:102250003020FFF721FD8DF806009DF806000428C8
:102260006BD1FFE742F20801C4F2020140F22310F1
:10227000C4F26750086048F6AB10CCF6EF50086027
:1022800042F21001C4F20201086840F02000086028
:10229000086840F0400008604FF43020FFF7FCFC75
:1022A0008DF806009DF80600042835D1FFE742F2BC
:1022B0001001C4F20201086841F6DF7210400860A4
:1022C000086840F0100008609DF8070038B1FFE78B
:1022D0004FF60001C1F6FF710020088006E04FF6BE
:1022E0000001C1F6FF71A5200880FFE74FF4302000
:1022F000FFF7D2FC8DF806009DF8060005280AD0ED
:10230000FFE742F21001C4F20201086841F6EF72E1
:1023100010400860FFE70FE09DF8060005280AD08E
:10232000FFE742F21001C4F20201086841F6DF72D1
:1023300010400860FFE7FFE7FFE79DF8060002B0E6
:1023400080BD00BF80B582B0ADF80600ADF80410C6
:10235000ADF8022004208DF8010042F20801C4F219
:10236000020140F22310C4F26750086048F6AB1037
:10237000CCF6EF5008604FF40050FFF78DFC8DF85D
:1023800001009DF8010004282DD1FFE742F2100161
:10239000C4F20201086840F010000860BDF80610A1
:1023A000BDF80420BDF802001043084340F0F800D7
:1023B0004FF60201C1F6FF7108804FF40050FFF79D
:1023C0006BFC8DF801009DF8010005280AD0FFE79D
:1023D00042F21001C4F20201086841F6EF721040A7
:1023E0000860FFE7FFE79DF8010002B080BD00BF75
:1023F00042F21C00C4F2020000688008704700BF6F
:1024000042F22000C4F202000068704781B0002050
:102410008DF8030042F20000C4F20200006880065A
:10242000002804D5FFE701208DF8030003E0002019
:102430008DF80300FFE79DF8030001B0704700BF6F
:1024400082B001908DF803109DF8030048B1FFE7BA
:10245000019A42F21001C4F20201086810430860B8
:1024600008E0019A42F21001C4F2020108689043A8
:102470000860FFE702B0704782B0019000208DF83D
:1024800003000198012811D1FFE742F21C00C4F2B9
:1024900002000068C00720B1FFE701208DF80300AB
:1024A00003E000208DF80300FFE711E042F20C008A
:1024B000C4F2020000680199084204D0FFE701203D
:1024C0008DF8030003E000208DF80300FFE7FFE72D
:1024D0009DF8030002B0704781B00090009842F26E
:1024E0000C01C4F20201086001B0704781B0042001
:1024F0008DF8030042F20C00C4F202000068C0072D
:1025000020B1FFE701208DF803001FE042F20C002C
:10251000C4F2020000684007002804D5FFE702204B
:102520008DF8030011E042F20C00C4F202000068D2
:10253000C006002804D5FFE703208DF8030003E060
:1025400004208DF80300FFE7FFE7FFE79DF8030095
:1025500001B0704781B004208DF8030042F20C00F6
:10256000C4F202000068C00720B1FFE701208DF827
:1025700003001FE042F20C00C4F2020000684007B2
:10258000002804D5FFE702208DF8030011E042F295
:102590000C00C4F202000068C006002804D5FFE762
:1025A00003208DF8030003E004208DF80300FFE70B
:1025B000FFE7FFE79DF8030001B070474EF6FC51BE
:1025C000CEF20001086840F08070086041F200011E
:1025D000CEF20001086840F001000860704700BFBB
:1025E00080B584B0039041F20400CEF20000006890
:1025F0000290039840F20001C2F2000109684DF612
:102600008362C4F21B32A1FB0221890C4843019072
:10261000FFE7029841F20401CEF20001096800F0E0
:1026200007F80199884201D2FFE7F2E704B080BDC4
:1026300082B00190009100980199401A02B0704751
:1026400080B584B0039041F20400CEF2000000682F
:102650000290039840F20001C2F20001096844F6BA
:10266000D352C1F26202A1FB0221890948430190C1
:10267000FFE7029841F20401CEF200010968FFF77A
:10268000D7FF0199884201D2FFE7F2E704B080BD8D
:1026900041F21801C4F20201086840F00800086025
:1026A0000421C4F20101086840F00070086040F69F
:1026B0001043C4F201030220186040F60041C4F246
:1026C000010108684FF0080C6CF30710086040F631
:1026D0001442C4F201024020106008686CF31B60D1
:1026E00008600420106008686CF30B20086020204C
:1026F000106008686CF317500860C2F800C00868E2
:102700006CF30F3008601020106008686CF3134001
:102710000860012010600868032262F3030008606B
:1027200080201860086862F31F700860704700BF5F
:1027300080B582B040F60840C4F201000068C0F3E2
:10274000400001901E20FFF77BFF9DF8040002B0BF
:1027500080BD00BF40F60840C4F201000068C0F32D
:102760008010704740F60840C4F201000068C0F3D2
:102770008000704740F60840C4F201000068C0F3D2
:102780004010704740F60840C4F201000068C0F3F2
:10279000C000704740F60840C4F201000068C0F372
:1027A0000010704740F29800C2F2000000787047B5
:1027B00081B000900098B0FA80F041090120884073
:1027C00040F61041C4F20101086001B0704700BF3B
:1027D00081B000900098B0FA80F040090001C11D5E
:1027E0000120884040F61041C4F20101086001B0A8
:1027F0007047000080B541F21803C4F20203186864
:1028000040F00500186040F6000CC4F2010CDCF842
:1028100000000B2161F31750CCF80000DCF8000039
:1028200061F31F70CCF8000040F61001C4F2010102
:1028300004200860DCF800204FF0030E6EF30B223A
:10284000CCF8002010220A60DCF800206EF313425E
:10285000CCF8002008220A60DCF800206EF30F326A
:10286000CCF800201A6842F480521A60086043F2E3
:102870000001C4F20101088840F0100008800888B7
:1028800040F002000880088840F0010008800888B5
:1028900020F400600880088820F080000880088804
:1028A00040F440700880088840F0040008800888E0
:1028B00040F04000088080BD80B582B0ADF80600D1
:1028C00040F61001C4F2010100914FF4802008602D
:1028D000BDF8060043F20C01C4F20101088001209A
:1028E000FFF77EFE009904200860FFE743F208002E
:1028F000C4F2010000888007002801D4FFE7F5E753
:1029000002B080BD80B582B08DF807009DF8070049
:10291000FFF7D2FF02B080BD80B582B08DF807000E
:1029200040F61001C4F2010100914FF480100860DC
:102930009DF80700FFF7C0FF00991020086002B063
:1029400080BD00BF80B582B08DF807008DF80610FD
:102950009DF80700FFF7E0FF9DF80600FFF7D2FFA4
:1029600002B080BD80B582B040F61001C4F2010112
:1029700001914FF4002008609620FFF731FE019985
:102980000820086002B080BD80B586B0FFF732FF36
:10299000FFF7E8FFFD2003901221FFF7D3FFAE20E1
:1029A000FFF7BAFFB3209121FFF7CCFFCA203F21E8
:1029B000FFF7C8FFA220049000210191FFF7C2FF9A
:1029C0000199A120FFF7BEFFA02002901421FFF77C
:1029D000B9FF1120FFF796FFAB200121FFF7B2FFEF
:1029E0000299B420FFF7AEFF0398FFF78BFF41F287
:1029F000A200C2F200008178C120FFF7A3FFC72028
:102A00000F210591FFF79EFFB920FFF785FFB12049
:102A1000E221FFF797FF0499D120FFF793FF2020D1
:102A2000FFF770FF0599BB20FFF78CFFB620082148
:102A3000FFF788FFBE200721FFF784FFA620FFF7DE
:102A40006BFFA920FFF768FF00F006F8AF20FFF743
:102A500063FF06B080BD00BF80B584B01520FFF7CE
:102A60005BFF00200190FFF74DFF7720FFF74AFF43
:102A70007520FFF751FF0198FFF744FF7F20FFF714
:102A800041FF5C20FFF748FF01980390FFE70398A0
:102A90007F2814DCFFE700200290FFE702987728E8
:102AA00008DCFFE70020FFF72DFFFFE70298013069
:102AB0000290F3E7FFE7039801300390E7E704B0E3
:102AC00080BD00BF80B582B08DF807009DF807007B
:102AD00000F03F008DF807007520FFF71DFF9DF8FF
:102AE0000700FFF70FFF3F20FFF70CFF02B080BD8C
:102AF00080B582B08DF807009DF8070000F03F0018
:102B00008DF807001520FFF707FF9DF807001C3020
:102B1000C0B2FFF7F7FE5B20FFF7F4FE02B080BD06
:102B200080B586B08DF817009DF8170000F0800082
:102B30008DF816009DF8170000F04000C0088DF8D1
:102B400015009DF8170000F0200080008DF814009B
:102B50009DF8170000F0100040088DF813009DF854
:102B6000170000F0080000018DF812009DF8170012
:102B700000F0040040008DF811009DF8170000F0EF
:102B8000020080018DF810009DF8170000F0010090
:102B9000C0008DF80F009DF8161041EA510040EA80
:102BA000910040EAD1008DF80E009DF8151041EA21
:102BB000510040EA910040EAD1008DF80D009DF8E7
:102BC000141041EA510040EA910040EAD1008DF82A
:102BD0000C009DF8131041EA510040EA910040EAD0
:102BE000D1008DF80B009DF8121041EA510040EA27
:102BF000910040EAD1008DF80A009DF8111041EAD9
:102C0000510040EA910040EAD1008DF809009DF89A
:102C1000101041EA510040EA910040EAD1008DF8DD
:102C200008009DF80F1041EA510040EA910040EA87
:102C3000D1008DF807009DF80E009DF80D10084397
:102C40008DF806009DF80C009DF80B1008438DF8D8
:102C500005009DF80A009DF8091008438DF804004E
:102C60009DF808009DF8071008438DF803009DF8B3
:102C70000600FFF747FE9DF80500FFF743FE9DF8AD
:102C80000400FFF73FFE9DF80300FFF73BFE06B090
:102C900080BD00BF80B588B0ADF81E00ADF81C1037
:102CA0008DF81B2005939DF81B0001280DD1FFE72F
:102CB000059801784FF60060CFF6FF7000EB011029
:102CC000ADF812001020039009E0059801781A2051
:102CD0004143A1F55071ADF812100390FFE70020B9
:102CE0000290FFE70298039988424CDAFFE79DF8CB
:102CF0001B00012816D1FFE7BDF81200029901441C
:102D000048F6D030C0F6000000EB410149788DF85C
:102D10000710BDF81210029A114430F811008DF816
:102D2000060015E0BDF812000299014445F6506016
:102D3000C0F6000000EB410149788DF80710BDF89E
:102D40001210029A114430F811008DF80600FFE7C6
:102D5000BDF81C0002990844C0B2FFF7B3FE9DF80D
:102D60001E00FFF7C5FE5C20FFF7D6FD9DF80700AB
:102D7000FFF7D6FE9DF80600FFF7D2FEFFE70298A8
:102D800001300290AEE708B080BD00BF80B584B0CE
:102D9000ADF80E00ADF80C108DF80B200193FFE795
:102DA0000198007850B3FFE701980078812812DB82
:102DB000FFE7BDF80E00BDF80C109DF80B20019B3D
:102DC000FFF768FFBDF80E000430ADF80E00019863
:102DD0000230019011E0BDF80E00BDF80C109DF816
:102DE0000B20019BFFF756FFBDF80E000530ADF834
:102DF0000E00019801300190FFE7D1E704B080BDDB
:102E000080B582B08DF807008DF8061000929DF80D
:102E100007001B308DF80700FFE70098007888B1A5
:102E2000FFE79DF807009DF80610009A127800F061
:102E30000BF89DF8070002308DF80700009801306C
:102E40000090EAE702B080BD80B588B08DF81F0021
:102E50008DF81E108DF81D209DF81D00202805DB23
:102E6000FFE79DF81D007F2804DBFFE720208DF899
:102E70001D00FFE709208DF81C001520FFF74CFD11
:102E80009DF81F00FFF73EFD9DF81F000130C0B206
:102E9000FFF738FD7520FFF73FFD9DF81E00FFF797
:102EA00031FD9DF81E000730C0B2FFF72BFD5C20FE
:102EB000FFF732FD00200690FFE70698072864DC44
:102EC000FFE700200590FFE70598022855DCFFE7A3
:102ED0009DF81D0000EB400149F6BC20C0F6000043
:102EE00000EB4101059A01EB420111F8C01C069A62
:102EF000D14001F001018DF813109DF81D1001EB78
:102F0000410100EB4100059900EB410010F8BF0CB6
:102F10000699C84000F001008DF812009DF81300DA
:102F200028B1FFE79DF81C000001029002E000209C
:102F30000290FFE702988DF811009DF8120030B161
:102F4000FFE79DF81C0000F00F00019002E0002058
:102F50000190FFE701988DF810009DF811009DF891
:102F6000101008438DF80F009DF80F00FFF7CAFC02
:102F7000FFE7059801300590A6E70020FFF7C2FCA7
:102F8000FFE706980130069097E708B080BD00BFC4
:102F900080B586B0ADF81600ADF814108DF813208A
:102FA0009DF81300202805DBFFE79DF813007F281C
:102FB00004DBFFE720208DF81300FFE700200390DB
:102FC000FFE70398072836DCFFE700200290FFE7C1
:102FD000029805282ADCFFE79DF8130000EB40016A
:102FE00049F6BC20C0F6000000EB410002990844FD
:102FF00010F8C00C8DF807009DF807000399C84031
:10300000C00770B1FFE7BDF8160002990844BDF88B
:103010001410039A114480B289B20F2200F00EF806
:10302000FFE7FFE7029801300290D1E7FFE703983E
:1030300001300390C5E706B080BD00BF82B0ADF897
:103040000600ADF804108DF80320BDF80600FF2837
:1030500005DCFFE7BDF80400402801DBFFE72AE0BC
:10306000BDF80400C001BDF8061000EB5100ADF83A
:1030700000009DF80600C00778B9FFE7BDF8002002
:1030800040F2A201C2F20001885C00F00F009DF83E
:10309000033040EA031088540DE0BDF8002040F2F0
:1030A000A201C2F20001885C00F0F0009DF803303C
:1030B00018438854FFE702B0704700BF80B582B064
:1030C000ADF80600ADF804100092FFE70098007814
:1030D00088B1FFE7BDF80600BDF80410009A127829
:1030E000FFF756FFBDF806000630ADF80600009861
:1030F00001300090EAE702B080BD00BF81B000203F
:103100000090FFE70098B0F5805F0CDAFFE7009AC7
:1031100040F2A201C2F2000100208854FFE70098AB
:1031200001300090EEE701B0704700BF80B582B07B
:103130008DF807008DF806101520FFF7EDFB252010
:10314000FFF7E0FB5B20FFF7DDFB7520FFF7E4FBFB
:103150009DF80700FFF7D6FB9DF80600FFF7D2FBAE
:103160005C20FFF7D9FB00200090FFE70098B0F546
:10317000805F0DDAFFE7009940F2A200C2F2000082
:10318000405CFFF7BFFBFFE7009801300090EDE7E0
:1031900002B080BD82B08DF8070000200090FFE7EC
:1031A0000098B0F5805F0DDAFFE79DF80700009A00
:1031B00040F2A201C2F200018854FFE700980130FA
:1031C0000090EDE702B0704780B584B00390002016
:1031D0000090FFF777FC0098FFF78AFC5C20FFF770
:1031E0009BFB00980290FFE702983F2819DCFFE75D
:1031F00000200190FFE701981F280DDCFFE70398EE
:10320000029A019901EB4211405CFFF789FCFFE74C
:10321000019801300190EEE7FFE70298013002903B
:10322000E2E704B080BD00BF80B588B00020009008
:10323000FFF748FC0098FFF75BFC5C20FFF76CFB96
:1032400000988DF81F000690FFE706981F2829DCDC
:10325000FFE700200590FFE705980F281ADCFFE73D
:1032600000200490FFE70498072809DCFFE79DF899
:103270001F00FFF747FBFFE7049801300490F2E7D7
:103280009DF81F0011308DF81F00FFE705980130F1
:103290000590E1E700208DF81F00FFE70698013058
:1032A0000690D2E7FF208DF81F0000200390FFE773
:1032B00003981F2829DCFFE700200290FFE702980F
:1032C0000F281ADCFFE700200190FFE7019807288C
:1032D00009DCFFE79DF81F00FFF714FBFFE70198EB
:1032E00001300190F2E79DF81F0011388DF81F00A2
:1032F000FFE7029801300290E1E7FF208DF81F0000
:10330000FFE7039801300390D2E708B080BD00BF0B
:1033100080B588B055208DF8100041208DF811003F
:1033200052208DF8120054208DF813003A208DF8A9
:10333000140020208DF8150041F2A900C2F200000F
:103340000190007804A90291063100F01BF8019861
:1033500002994078093100F015F8019802998078B7
:103360000C3100F00FF8029A002103918DF81F1024
:103370000846FFF7A3FE03981F21FFF7D7FE08B00A
:1033800080BD00BF82B08DF8070000919DF8070056
:10339000010949F6F040C0F60000415C009A117046
:1033A0009DF8071001F00F01405C009948700099EA
:1033B0002020887002B0704780B541F20002C4F24C
:1033C0000202106840F00100106041F20401C4F2F2
:1033D000020108680023CFF6FF0318400860106858
:1033E0004FF6FF73CFF6F66318401060106820F4B4
:1033F00080201060086820F4FE00086041F2080197
:10340000C4F202014FF41F00086000F009F84EF604
:103410000851CEF200014FF00060086080BD00BF8F
:1034200080B500F093F880BD84B000200390029036
:10343000019041F20400C4F20200006800F00C00A8
:1034400003900398009040B1FFE7009804280ED045
:10345000FFE70098082814D056E040F20001C2F2BD
:10346000000141F20020C0F27A00086056E040F20C
:103470000001C2F2000141F20020C0F27A000860AF
:103480004CE041F20400C4F20200016801F4701142
:103490000291006800F4803001900299022000EB54
:1034A00091400290019860B9FFE7029840F6001140
:1034B000C0F23D01484340F20001C2F20001086041
:1034C00021E041F20400C4F20200006880030028F9
:1034D0000CD5FFE7029840F60011C0F23D014843C9
:1034E00040F20001C2F2000108600BE0029841F2D4
:1034F0000021C0F27A01484340F20001C2F200010B
:103500000860FFE7FFE709E040F20001C2F20001B6
:1035100041F20020C0F27A000860FFE741F20400A7
:10352000C4F202000068C0B2010945F64060C0F66E
:103530000000405C0390039A40F20001C2F20001D7
:103540000868D040086004B0704700BF84B0002015
:103550000390029041F20001C4F20201086840F4B5
:1035600080300860FFE741F20000C4F2020000680A
:1035700000F400300290039801300390FFE70299B5
:103580000020019039B9FFE70398B0F5A06018BF9B
:1035900001200190FFE70198C0070028E3D1FFE771
:1035A00041F20000C4F2020000688003002803D545
:1035B000FFE70120029002E000200290FFE702985E
:1035C000012851D1FFE742F20001C4F2020108686C
:1035D00040F010000860086820F0030008600868E8
:1035E00040F00200086041F20401C4F202010091BF
:1035F0000868086008680860086840F4806008602F
:10360000086820F47C100860086840F4E81008603E
:1036100041F20001C4F20201086840F080700860C5
:10362000FFE741F20000C4F20200006880010028B8
:1036300001D4FFE7F5E741F20401C4F20201086892
:1036400020F003000860086840F002000860FFE70F
:1036500041F20400C4F20200006800F00C000828E7
:1036600001D0FFE7F4E700E0FFE704B07047000097
:1036700080B582B041F21801C4F20201086840F03E
:103680000400086040F6100CC4F2010C0120CCF8D4
:10369000000040F60002C4F201021168082363F33F
:1036A000030111600221CCF80010116863F30711C7
:1036B00011604021CCF80010116863F31B611160A8
:1036C00041F21C01C4F2020108601822C4F2000297
:1036D00040F2011111802023C4F20003222119803D
:1036E0000823C4F20003032119802C23C4F2000331
:1036F000198011884FF2F003194311804FF0804177
:103700000A884FF67F731A430A8008800821C4F2A2
:1037100001010868086040F20041C4F20101086834
:1037200040F04000086040F20C41C4F2010108681A
:1037300040F0400008601720019000F011F8019857
:103740000F2100F01FF80C21C4F20001088840F09E
:10375000010008801C2000F003F802B080BD00BF0B
:1037600081B08DF803009DF9031001F01F020120C4
:1037700090404A094EF20011CEF2000141F82200B9
:1037800001B0704782B08DF8070000919DF90700E5
:10379000B0F1FF3F0CDCFFE7009800019DF8071037
:1037A00001F00F014EF61452CEF20002885409E0E7
:1037B000009800019DF907104EF20042CEF200027F
:1037C0008854FFE702B070472420C4F2000000884C
:1037D000704700BF4FF08040008800F010010120CA
:1037E00080EA11107047000041F21801C4F2020192
:1037F000086840F00400086040F61403C4F20103B6
:103800004FF48070186040F60401C4F201010868AA
:10381000032262F3030008604FF400701860086828
:1038200062F3071008604FF480601860086862F364
:103830000B2008604FF480501860086862F3134052
:1038400008604FF400601860086862F30F30086089
:10385000704700BF81B000900098000100F10A019C
:103860000120884040F61001C4F20101086001B057
:10387000704700BF81B000900098000100F10C017A
:103880000120884040F61001C4F20101086001B037
:10389000704700BF81B000900098000100F10B015B
:1038A0000120884040F61001C4F20101086001B017
:1038B000704700BF81B000900098000100F108013E
:1038C0000120884040F61001C4F20101086001B0F7
:1038D000704700BF81B000900098000100F109011D
:1038E0000120884040F61001C4F20101086001B0D7
:1038F0007047000080B582B041F21801C4F20201A5
:10390000086844F204021043086040F60401C4F25F
:103910000101086820F470600860086840F40060E5
:10392000086043F60801C4F2010140F271200880EA
:1039300043F60C01C4F20101088820F4805008808D
:1039400043F61002C4F20102108820F440501080A7
:10395000088820F480600880088842F2040210433E
:103960000880088840F0200008802520019000F0A1
:1039700007F80198002100F015F802B080BD00BFE3
:1039800081B08DF803009DF9031001F01F020120A2
:1039900090404A094EF20011CEF2000141F8220097
:1039A00001B0704782B08DF8070000919DF90700C3
:1039B000B0F1FF3F0CDCFFE7009800019DF8071015
:1039C00001F00F014EF61452CEF20002885409E0C5
:1039D000009800019DF907104EF20042CEF200025D
:1039E0008854FFE702B0704782B0009043F60000B1
:1039F000C4F201000088800600280BD5FFE743F6DB
:103A00000400C4F2010000880099087001208DF8BC
:103A1000070003E000208DF80700FFE79DF807008E
:103A200002B0704740F29800C2F200000078704780
:103A300081B043F60000C4F201000088800600282F
:103A400031D5FFE743F60400C4F2010000888DF889
:103A500003009DF8031040F27900C2F200000378E1
:103A60005A1C027041F2A902C2F20002D15400783D
:103A7000032817DBFFE740F27901C2F200010020C2
:103A8000087040F2A101C2F200010120087041F269
:103A9000A900C2F20000407840F29801C2F2000191
:103AA0000870FFE7FFE701B07047000080B582B003
:103AB00040F22441C4F200010888019000200880EF
:103AC000019842F21D5188421FD3FFE7019842F648
:103AD0003B01884219D8FFE740F29700C2F200008C
:103AE000007890B9FFE740F28401C2F20001088833
:103AF0000130088040F62400C4F20000008840F243
:103B00009001C2F200010880FFE740F29700C2F284
:103B1000000000780146009120B1FFE700980128DD
:103B200056D0C4E00198B0F5966F18D9FFE7019818
:103B300040F2DB51884212D8FFE740F29701C2F20F
:103B400000010120087040F28701C2F2000100204C
:103B5000087040F28801C2F200010860AEE00198EE
:103B600040F21B41884232D3FFE7019840F29B416B
:103B700088422CD8FFE740F29300C2F20000807820
:103B8000022810D0FFE740F29300C2F200008078D4
:103B90005E2808D0FFE740F29300C2F20000807870
:103BA0005D2807D1FFE740F29301C2F20001EE2049
:103BB0008870FFE740F29201C2F200010120087014
:103BC00040F29701C2F2000100200870FFE775E0A3
:103BD0000198502805D3FFE70198B0F58C7F07D9ED
:103BE000FFE740F29701C2F200010020087065E093
:103BF00040F28801C2F2000108684008086001989C
:103C0000A12809D3FFE740F28801C2F20001086849
:103C100040F000400860FFE740F28700C2F2000079
:103C2000017801310170007820283FDBFFE740F286
:103C30008801C2F200010A6840F29300C2F200005B
:103C400002700A68120A42700A68120C82700968CF
:103C5000090EC17040F29202C2F2000201211170FD
:103C600080785E2810D0FFE740F29300C2F2000097
:103C700080785D2808D0FFE740F29300C2F2000090
:103C80008078022811D1FFE7172000F019F840F2E0
:103C90008E01C2F200014FF4FA70088040F29701E1
:103CA000C2F2000100200870FFE7FFE706E040F2E3
:103CB0009701C2F2000100200870FFE702B080BD4A
:103CC00081B08DF803009DF9031001F01F0201205F
:103CD00090404A094EF28011CEF2000141F82200D4
:103CE00001B0704783B0019040F29200C2F2000030
:103CF0000078F0B1FFE740F29201C2F2000100202B
:103D000008700090FFE7009803280EDCFFE7009999
:103D100040F29300C2F20000405C0199009A88547E
:103D2000FFE7009801300090EDE701208DF80B00CF
:103D300003E000208DF80B00FFE79DF80B0003B0B7
:103D4000704700000FB41CB5084B06AA7B446946B7
:103D50000090059800F0C7F804460020694600F07E
:103D6000D5F820461CBC5DF814FB0000BD01000026
:103D700070477047704770B5044685690068C10692
:103D800001D5302600E02026C00707D070BDD4E959
:103D9000012130469047206A401C20626D1EF6D5F6
:103DA00070BD70B5044685690078C00707D170BD45
:103DB000D4E9012120209047206A401C20626D1E1A
:103DC000F6D570BD09684A0501D540B27047C905EE
:103DD000FCD500B2704709684A0501D5C0B27047EA
:103DE000C905FCD580B2704770B50C460546012A5E
:103DF00005D02878800600D5EA69002302E0012377
:103E000005E05B1C934202D2E05C0028F9D1A8696E
:103E1000E618C01AA861286A184428622846FFF7E5
:103E2000AAFF04E0D5E9012114F8010B9047B44240
:103E3000F8D32846FFF7B5FF70BD00002DE9F0412B
:103E40000646002410687529314616A510D0FFF7E4
:103E5000B9FF002802DA404213A507E031688A075B
:103E600001D512A502E0490704D511A5012401E0FE
:103E7000FFF7B1FF00210A2206F1240709E0B0FB99
:103E8000F2FCB0FBF2F302FB1C0030307854184611
:103E9000491C0028F3D123462A463046BDE8F041AC
:103EA00000F061BA000000002D0000002B000000AF
:103EB0002000000011680268006A530501D50870EF
:103EC0000AE0D30501D5088006E0130603D5C21722
:103ED000C1E9000200E008600120704701694A1C46
:103EE00002610878704700B58FB0CDE9013100213B
:103EF000059105497944CDE903101146684600F063
:103F000029F90FB000BD0000E5FFFFFF0A6802F8C5
:103F1000010B0A60704700002DE9FF5F15468A46D5
:103F20000446DFF8AC80F8440027D8E900103E468C
:103F3000CDE9001010E03AF816106A4602A800F029
:103F400023FE411C07D02178890603D5E269391880
:103F500091420DD80744761C2078800602D5E0698E
:103F6000B84205DDAE42E6DB3AF816000028E2D1A1
:103F7000A069C01BA0612046FFF7FDFED8E9001034
:103F8000CDE90010002017E03AF818106A4602A8A0
:103F900000F0FAFDB0F1FF3F81460BD000250DF196
:103FA000080B05E0D4E901211BF8050090476D1CC2
:103FB0004D45F7D308F10100B0428046E4DB206AAA
:103FC000384420622046FFF7ECFEBDE8FF9F00006A
:103FD0001A1E00002DE9F0418046D21D22F0070292
:103FE0000025D2E90002F52915A614D0011E72F1B0
:103FF000000106DA0023D0EB030063EB020211A6F6
:1040000008E0D8F800108B0701D50FA602E0490799
:1040100001D50EA601251146002408F1240704E06D
:1040200000F05CF930323A55641C50EA0102F7D1D5
:104030002B46324621464046BDE8F04100F093B998
:10404000000000002D0000002B00000020000000F8
:1040500030B4002100F1240408E002F00705D20882
:10406000303542EA4372DB086554491C52EA0305C5
:10407000F3D10468002310A2250708D504F020041A
:104080000C4304D0C46901230CA2641EC46130BC7B
:1040900000F069B910B5044621461068FFF79BFE91
:1040A00002462046BDE810400023D1E7D21D22F091
:1040B0000701D1E90023CBE7000000003000000039
:1040C000F0B40D460188090502D5214C7C4402E07C
:1040D0001F4C7C440E34002100F1240608E002F05D
:1040E0000F071209E75D42EA03721B097754491C66
:1040F00052EA0307F3D102780023120704D5702D8A
:1041000006D009B1022311342246F0BC00F02BB9CD
:1041100001231034F8E770B504460D4621461068B7
:10412000FFF759FE024629462046BDE870400023AD
:10413000C6E7D21D22F00703D3E90023C0E70368D6
:10414000126843F0200303600823C3610023B7E72C
:104150007C1C00002DE9F05F894604464FF0000A00
:10416000DFF874B1FB44C0F820A02046E16888471E
:10417000002874D0252806D0D4E901219047206A70
:10418000401C2062F1E700265F462046E168884730
:104190002028054607DB312D05D2781910F8200CB0
:1041A00008B10643F1E7B00701D526F00406C4F8CC
:1041B0001CA00027C4F818A02A2D09D0284601F019
:1041C0001DFA38B304EB8708303DC8F8185019E0E1
:1041D00059F8041B204604EB87029161E168884787
:1041E000012F054618D1E069002820DA26F02006C4
:1041F0001DE0D8F8180000EB800005EB40003038D7
:10420000C8F818002046E1688847054601F0F6F92D
:104210000028EED1012F0AD02E2D08D12046E168CA
:1042200088477F1C0546022F46F02006C4DBA069A4
:10423000002803DA404246F00106A061F00701D0F1
:1042400026F010066C2D0BD0682D09D04C2D39D0DE
:104250006A2D35D0742D35D07A2D33D016E038E064
:10426000E1682F4620468847B842054609D16C2FA1
:1042700026D04FF48060E168064320468847054613
:1042800004E06C2F1AD04FF4807006430DB3A5F1F3
:104290004100192802D8203546F400664A462946CE
:1042A000204626604E46FBF75BFF80B101280BD00D
:1042B000F61D26F0070000F1080956E74020E4E764
:1042C0008020D8E70020D6E706F104094DE728460C
:1042D00052E7206ABDE8F09F0C1C000030B5B0F139
:1042E0000A0271F100034FEA900E4EEA817EB0EBB4
:1042F0000E0061EB91014FEA101E4EEA017E10EBB9
:104300000E0041EB11114FEA102E4EEA016E10EB38
:104310000E0041EB11214FEA104E4EEA014E10EB18
:104320000E0041EB1141401841F100014FEAD0006D
:1043300040EA41704FEAD1014FEA810444EA9074A7
:1043400010EB800544EB01046D1944EB0404521B8F
:10435000A3414FF0000348BF0A3200D530BD401CD6
:1043600041F1000130BD2DE9F0470D4699469246D6
:10437000044600F124080168880604D5E06921F0AC
:104380001001216000E00120A84201DD471B00E090
:104390000027A1697A1902EB0900081AA0612078A8
:1043A000C00602D42046FFF7E6FC002608E0D4E968
:1043B00001211AF806009047206A401C761C2062F2
:1043C0004E45F4DB2078C0060AD52046FFF7D3FC23
:1043D00006E0D4E9012130209047206A401C206289
:1043E000381EA7F10107F4DC07E0D4E9012118F831
:1043F00005009047206A401C2062281EA5F1010597
:10440000F3DC2046FFF7CDFC2078000602D5022021
:10441000BDE8F0870120FBE72DE9FF4F0C461E4663
:104420004FF0FF378BB0D2E90001DDF860800A90D1
:104430008A46C1F30A5505B93D46002108464FF0AA
:104440000000BAF1000F00F4400005DA00EB800034
:104450004FF4400101EA50004FEA9059B9F1010FC1
:1044600000DDB9460A9850EA4A000ED044F61050D2
:10447000A5F2FF3545432F14B8F1000F1ED0754249
:10448000291E1EDDC9F100021CE0B8F1010F4FF03A
:10449000000001D0302103E0F24305E02154401C2C
:1044A000B042FBDB30460022002121540B99C1F8B9
:1044B0000880C1E900200FB0BDE8F08FBD1B6D1C66
:1044C000DEE74A4600DA694206A800F0F3FB06ABD5
:1044D00093E8070003AB83E8070050460A9900F011
:1044E000B0FC8DE80700A0F500501F38009003983D
:1044F000002D0ADD42F21F014A460844002303A9A9
:104500000390684600F01AFF09E0A0F500504A4603
:104510001F38002303A90390684600F024FF8DE8AC
:1045200007000004000C03D04FF0FF30410800E00A
:104530001046B8F1000F03D00022009215461EE08D
:10454000751E05D4FFF7CAFE303262556D1EF9D5CF
:10455000B3460122084302D000227F1C04E02078E9
:10456000302801D100227F1E002A099784D01DE047
:10457000112D07DAFFF7B2FE303262556D1C50EA9A
:104580000102F5D1084302D00098C8B10EE0002125
:10459000681E05E0235C625C63542254401E491C83
:1045A0008142F7DBAB46A81B401E0990002004F8AF
:1045B0000B000B98099AC0F80880C0E9002B7AE735
:1045C00011264FF0000857E72DE9F04F88460446C2
:1045D000D21D22F0070191B0D1E90001CDE90A0115
:1045E00000F0F8FF02460B98C00F01D02D2007E025
:1045F0002068810701D52B2002E0202101EAC000BC
:10460000032A099001D0072A05DB034641462046CC
:1046100000F010FB0BE12078800601D5E06900E096
:104620000620B8F1650F814606D0B8F1660F18D0A4
:10463000B8F1670F70D131E00020B9F1110F00908F
:1046400001DB112301E009F101030AAA01A90CA869
:10465000FFF7E2FEDDE90C70002609F10105834653
:1046600047E001204B4600904FF000470AAA01A9FD
:104670000CA8FFF7D1FEDDE90DB00C995D460026D0
:1046800010B909F101000D18B9EB050003D4C0F110
:10469000FF3609F10105A5EB09002BE0B9F1010F87
:1046A00001DA4FF001090020B9F1110F00904846DE
:1046B00001DD112300E003460AAA01A90CA8FFF7B7
:1046C000ABFEDDE90C704D460026834620780007DE
:1046D0000AD4AB4500DA5D4601A8012D04DD41197D
:1046E00011F8011C302907D04F4502DA17F1040FE9
:1046F00004DA012082460FE06D1EEEE7002F02DC97
:10470000ED1B3E4403E0781CA84200DD7D1CB81B75
:1047100000F1010A4FF000472078000703D4AA45B2
:1047200001DB4FF0FF3A0021B7F1004F0DF14308D4
:104730008DF8431024D002202B23002F01DA7F4272
:104740002D230A21021EA0F1010000DC5FB197FBBE
:10475000F1FC97FBF1F201FB1C7C17460CF1300CCD
:1047600008F801CDEEE7A8F10100037021880905E2
:1047700001D5452100E06521A0F1010800F8011CE8
:1047800009980FA9A1EB0807FF1D00B101204119ED
:1047900001EBEA70A1693844081A401EA061207834
:1047A000C00602D42046FFF7E6FA099828B1D4E9FA
:1047B00001219047206A401C20622078C00622D543
:1047C0002046FFF7D8FA1EE0002E04DBB34502DDD9
:1047D00001A8805D00E03020D4E901219047206AE3
:1047E000401C2062761CAAF101005FEA000A0AD18F
:1047F00000F01CFAC0680168405CD4E901219047D0
:10480000206A401C2062281EA5F10105DCDC07E0BF
:10481000D4E9012118F8010B9047206A401C20625E
:10482000381EA7F10107F3DC2046FFF7BAFA032090
:1048300011B041E62DE9F04F04460D46D21D22F09D
:10484000070089B0D0E900974846394600F0C2FE1B
:104850000246F80F01D02D2307E02068810701D51B
:104860002B2302E0202101EAC0038DF820300BB198
:10487000012000E00020032A824601D0072A04DB41
:104880002946204600F0D6F93FE12078800601D481
:104890000D2500E0E569C7F30A560D2D49DA002120
:1048A0004FEA175B08464FF00000002F00F440006D
:1048B00007DA00EB80004FF4400100EBD07001EA12
:1048C00060008115012901DD4FF0FF3100224FEA20
:1048D000850CBCF1180F06D31346ACF118004FF04D
:1048E0008052C24003E04FF4801323FA0CF30CF122
:1048F0000C0CBCF1200F04D3ACF1200C09FA0CF025
:1049000001E007FA0CF000294FF0004801DD18B96A
:104910000FE00ED140450CD319EB02095F4121B9DC
:10492000404502D19F4329EA0209BBEB175F00D043
:10493000761C2088000502D57B48784402E07A483E
:104940007844193808AA302302F80A30037C0AF1A7
:104950000101002E0AF1020A53546A4602DC4FF0AC
:10496000300101E04FF031014FF001088DF80010E7
:1049700002D0A6F2FF3603E059EA470100D06B4EA1
:10498000002D02DC2178090704D54FF002082E2102
:104990008DF80110C44600210BE0C7F303433F012B
:1049A000C35C491C6D1E02F80830052908F1010896
:1049B00001DA002DF1DC00210CE000EB1973491C39
:1049C0001B786D1E082902F808304FEA091908F112
:1049D000010801DA002DF0DC21688B0602D516E013
:1049E000A8F10108E04505DD02EB080313F8013CDE
:1049F000302BF5D0B8F1000F09DD02EB080313F8F6
:104A0000013C2E2B03D1090701D4A8F10108002D88
:104A100005DD3E2102F808106D1E08F10108407CFA
:104A2000002E02F8080008F1010804DA2D20764271
:104A300002F8080002E02B2002F808000A214FF4D7
:104A40007A70864208F101080BDB96FBF0F33033F5
:104A500002F8083096FBF0F308F1010800FB13663A
:104A600001E0642E0CDB642096FBF0F3303302F897
:104A7000083096FBF0F308F1010800FB136601E033
:104A80000A2E06DB96FBF1F0303002F8080008F140
:104A9000010896FBF1F001FB1060303002F80800CD
:104AA000A16908F1010808EB050202EB0A00081AE7
:104AB000A0612078C00602D42046FFF75CF9216A85
:104AC00008AE01EB0A00206204E0D4E9012116F8E7
:104AD000010B9047BAF1010AF7D22078C00602D53F
:104AE0002046FFF748F96E4609E016F8010B3E280C
:104AF0000FD0D4E901219047206A401C2062B8F110
:104B00000108F2D22046FFF74CF909B00320BDE8B6
:104B1000F08F206A2844206203E0D4E9012130208C
:104B200090476D1EEBD3F8E75A14000002FCFFFF1C
:104B300010B5436913B1AFF3008001E0FFF754F9FA
:104B4000012010BD127800F124010A7000224A7081
:104B50000122EDE711684FF0FF32E9E710B5436934
:104B600013B1AFF3008001E0FFF7D6F9012010BDCB
:104B7000128800F1240182840022C2840122EDE720
:104B800011684FF0FF32E9E72DE9F04116460C4677
:104B9000054600F043F8036893F80101012807D0A7
:104BA000FF2C12D8185D80B101202C70BDE8F08177
:104BB000D3F807013246214603F20713C7182846E7
:104BC000BC46BDE8F041002360474FF0FF30EDE701
:104BD000754600F0EBF8AE4605006946534620F0F6
:104BE0000700854618B020B5FBF732FBBDE8204032
:104BF0004FF000064FF000074FF000084FF0000B99
:104C0000AC46ACE8C009ACE8C009ACE8C009ACE807
:104C1000C00921F007018D467047000010B500F073
:104C200005F8001D10BD00BF110A000000487047C4
:104C3000380000202DE9F0411F4604460326016894
:104C4000072A01F4006004DB08B116A505E016A5EB
:104C500003E008B115A500E015A521F010002060C3
:104C6000A069C01EA0610FB1401EA0612046FFF7E1
:104C700082F84FB1D4E9012138469047206A401CA0
:104C80002062C01C206206E0206AFAE7D4E9012114
:104C900015F8010B9047761EF8D22046FFF781F8F1
:104CA000BDE8F0814E414E006E616E00494E4600F7
:104CB000696E66002DE9F047814616468AB0354890
:104CC00078440DC88DE80D0032487844801C03AC50
:104CD0000DC884E80D0041F69B300844372190FB55
:104CE000F1F290FBF1F5A5F1800501FB12041B3CEC
:104CF00002D56442012000E00020DFF898A0804641
:104D00000027FA44AAF1BE0A0EE0E0070AD03246B4
:104D1000684607EB470101230AEB810100F023FB02
:104D20008DE8070064107F1C002CEED1194F7F44E2
:104D3000AE3F19E0E80715D007EB04100DF1180A93
:104D400090E80E008AE80E00C068F04201D1981980
:104D500008903246012306A903A800F004FB03AB28
:104D600083E807006D10641C002DE3D14FF00103B0
:104D700032466946B8F1000F03A802D000F0DEFA0F
:104D800001E000F0F0FAC9E90001C9F808200AB012
:104D9000BDE8F0876411000010B50446AFF3008051
:104DA0002046BDE81040FBF73EBA000000487047BF
:104DB000180000204FF0013C50F8042B51F8043B40
:104DC0009A4221D1A2EB0C03934313EACC1317D1DF
:104DD00050F8042B51F8043B9A4215D1A2EB0C0376
:104DE000934313EACC130BD150F8042B51F8043B36
:104DF0009A4209D1A2EB0C03934313EACC13DBD004
:104E00004FF00000704700BFD01A01BAB1FA81F12B
:104E100001F0180122FA01F0CB40DBB2C0B2C01A97
:104E2000C1F120012CFA01F3D11A914311EAC31107
:104E3000E6D1704701491820ABBEFEE7260002000C
:104E400070475FEA400C08BF91F0000F4FEA8C23D7
:104E50004FEAC12243EA51514FEA1C5018BF00F5F6
:104E6000F0404FEA300018BF41F000415FEA6C5C4F
:104E700000F02980BCF1FF3F08BF40F08040704740
:104E8000130C06BF12044FF0100C4FF0000C130E61
:104E900004BF12020CF1080C130F04BF12010CF135
:104EA000040C930F04BF92000CF1020CD30F04BF4B
:104EB00052000CF1010C11464FF00002A0F11F004E
:104EC000A0EB0C00704711F0004F08BF704731F0A5
:104ED00000413FF4D5AF0B0C06BF09044FF0100C96
:104EE0004FF0000C0B0E04BF09020CF1080C0B0F65
:104EF00004BF09010CF1040C8B0F04BF89000CF1F5
:104F0000020CCB0F04BF49000CF1010CCCF12003C3
:104F100022FA03F341EA030102FA0CF2A0EB0C00BF
:104F200000F101007047000023F07F4720F07F4C24
:104F300080EA030000F00040ACEB070303F57C536C
:104F400003F1FF032DE9804909B44FEA144324EA31
:104F500003484FEA154B25EA0B4E0FF2042606EBE9
:104F600013273E7803FB0667C7F5000707FB06F625
:104F70004FEAD64606F102064FEA543707FB066CA5
:104F8000CCF1005C4FEA1C472CEA074C0CFB06F501
:104F900007FB06F404EB15464FEA961649085FEA4C
:104FA000320234BF00204FF000404FEAD13706FBF9
:104FB00007FC4FEA1C4C0CFB0BF7D21B03FB0CF756
:104FC00061EB07010CFB0EF7B0EB074072EB1742E9
:104FD0000CFB08F734BFA2EB0742B2EB074261EBD0
:104FE00017414FEA0C444FEA910706FB07FC4FEAD2
:104FF0001C4C0CFB0BF7B0EBC74072EB573203FBBA
:105000000CF734BFA2EBC742B2EBC74261EB57319A
:105010000CFB0EF7B0EBC70072EB57720CFB08F7F6
:1050200034BFA2EBC702B2EBC70261EB57714FEA84
:10503000816141EA92114FEA826242EA90124FEA9C
:10504000806004EBCC04039F4FEAD13706FB07FCDA
:105050004FEA1C4C0CFB0BF7D21B03FB0CF761EB6C
:1050600007010CFB0EF7B0EB074072EB17420CFB8D
:1050700008F734BFA2EB0742B2EB074261EB1741DE
:105080004FEA8C5504EB9C244FEA910706FB07FC82
:105090004FEA1C4C0CFB0BF7B0EBC74072EB5732DE
:1050A00003FB0CF734BFA2EBC742B2EBC74261EB84
:1050B00057310CFB0EF7B0EBC70072EB57720CFBCD
:1050C00008F734BFA2EBC702B2EBC70261EB57711E
:1050D0004FEA816141EA92114FEA826242EA9012FC
:1050E0004FEA806015EB4C2544F100044FEAD137BC
:1050F00006FB07FC4FEA1C4C0CFB0BF7D21B03FB17
:105100000CF761EB07010CFB0EF7B0EB074072EBFD
:1051100017420CFB08F734BFA2EB0742B2EB074281
:1051200061EB17414FEA813141EA92414FEA823205
:1051300042EA90424FEA80304FEA0C7615EB1C159C
:1051400044F1000448EA03434EEA0B484FF0000ED6
:10515000B2EB080C71EB030724BF624639464EEBF5
:105160000E0E4FF0000B0018524149414BEB0B0B58
:10517000B2EB080C71EB03077BF1000B24BF624616
:1051800039464EEB0E0E4FF0000B001852414941CC
:105190004BEB0B0BB2EB080C71EB03077BF1000B35
:1051A00024BF624639464EEB0E0E51EA020718BF85
:1051B00046F0010616EB0E7655F1000254F100019F
:1051C00003D5BDE88901BDE80088BDE88901BDE8D7
:1051D0000048B619524141EB0101A3F101037047A8
:1051E00080807F7E7D7C7B7A797877767675747324
:1051F000727171706F6E6E6D6C6C6B6A6A696868E3
:10520000676666656464636362616160605F5F5E78
:105210005E5D5D5C5C5B5B5A5A59595858575756EE
:105220005655555554545353525252515150505053
:105230004F4F4F4E4E4D4D4D4C4C4C4B4B4B4A4AA5
:105240004A494949484848474747474646464545E9
:105250004544444444434343434242424241414122
:105260009C46002B30D477002BD04FEA37071CB573
:1052700003B44FF010004FF01001BAF1000F06D048
:10528000BCF1000FDCBF40F0080040F008014FF017
:1052900000000FBCBDE810400BF1010BBBF1010F8A
:1052A00008BF5FEA170722BF12F1010211F10101E5
:1052B0004FF0004143F1000300F0004043EA0000DA
:1052C0007047F9D35708D0E746EA06464FEA164634
:1052D00013F1400F1FDD13F1200FDFBF16430A4605
:1052E000002120335B42BED0C3F1200746EA0646C8
:1052F0004FEA164602FA07F746EA070622FA03F2D1
:10530000C3F1200701FA07F742EA070221FA03F185
:105310004FF00003A7E746EA020646EA06464FEAD0
:10532000164646EA0106BCBF46EA0646360C4FF072
:1053300000034FF000024FF0000194E72DE9804C8C
:1053400070B49A46934691E8380007C831EA400C99
:1053500048BF34EA430C03D5FFF7E6FDFFF780FFB3
:10536000F0BCBDE8008C2DE9804C70B49A469346A1
:1053700091E8380007C810F0804F08BF13F0804F45
:1053800003D100F005F8FFF76BFFF0BCBDE8008C1F
:1053900020F07F4723F07F4C80EA030000F00040BC
:1053A00007EB0C03A3F57C53A3F1FE0392F0000F6F
:1053B00000F0B38095F0000F00F077802DE90149EF
:1053C0004FEA114021EA00484FEA144624EA064712
:1053D00000FB06FC08FB06F607FB08F818EB06487E
:1053E0004CEB164C00FB07F718EB07484CEB17404B
:1053F0004FEA124B22EA0B4E4FEA154625EA0647C2
:105400000BFB06FC0EFB06F607FB0EFE1EEB064E24
:105410004CEB164C0BFB07F71EEB074E4CEB174BF8
:1054200018EB0B0840F1000018EB0E0B58EB0008CE
:1054300040F100008F1A4FF000014FF000063CBF12
:10544000C943661B14BFB5EB040C00213CBFC94324
:10545000F61B4FEA174427EA04454FEA1C472CEA9B
:10546000074C04FB076205FB07F70CFB05F616EB80
:10547000074642EB174204FB0CFC16EB0C4642EBD2
:105480001C421BEB060658EB020241414EEA8E0E0F
:1054900046EA9E0601D5BDE80189B619524141EBA5
:1054A0000101A3F10103BDE801894FEA144524EA93
:1054B00005464FEA114721EA074C05FB07F406FBB6
:1054C00007F70CFB06F111EB074144EB174405FB12
:1054D0000CFC11EB0C4144EB1C444FEA124722EA4E
:1054E000074C05FB07F206FB07F70CFB06F616EB6D
:1054F000074642EB174205FB0CFC16EB0C4642EB51
:105500001C456A1854F1000148BF7047B619524152
:1055100041EB0101A3F10103704795F0000F37D073
:105520004FEA114221EA02464FEA144724EA074CA7
:1055300002FB07F106FB07F70CFB06F414EB07442C
:1055400041EB174102FB0CFC14EB0C4441EB1C41FA
:105550004FEA154725EA074C02FB07F506FB07F75C
:105560000CFB06F616EB074645EB174502FB0CFC59
:1055700016EB0C4645EB1C42121951F1000148BFD5
:105580007047B619524141EB0101A3F10103704785
:105590004FEA144524EA05464FEA114721EA074C31
:1055A00005FB07F106FB07F70CFB06F212EB0742BF
:1055B00041EB174105FB0CFC12EB0C4251EB1C417B
:1055C0004FF0000648BF7047921841EB0101A3F16C
:1055D00001037047490050EAC12018BF04204A0D5A
:1055E00018BF40F0010040F2FF72B2EB515F08BFFC
:1055F00040F00200012808BF0520704730380A2813
:1056000001D20120704700207047000010B500292A
:105610000AD00878002807D005487844FFF7CAFB6D
:10562000002801D0002010BD0248784410BD0000C1
:10563000324A00002A4A000010B500290AD0087832
:10564000002807D005487844FFF7B4FB002801D0B4
:10565000002010BD0248784410BD0000224A00001E
:105660001A4A000090EA010F48BF81F0004100F1A2
:10567000F682421A3CBF801A89184FEAD052A2EB38
:10568000D1534FF07F4C1CEA410F18BF9CEA026FC8
:1056900000F03B804FF0004C4CEA00204CEA012126
:1056A00021FA03FC10EB0C0C1ED202F1FF325FEA70
:1056B0001C2040EBC25038BF70471CF07F0F4FEAF0
:1056C000400C18BFBCF17F4F38BF7047C3F12003B7
:1056D000994008BF20F00100BCF17F4F38BF7047F0
:1056E000A0F1C04000F0AFBA4FEA3C00000A40EB26
:1056F000C25028BF1CF0FF0F4FEA400CE6D018BF85
:10570000BCF17F4F38BF7047EAE79CEA026F05D0D3
:1057100010EA5C0F08BF00F00040704710B500F0C1
:105720004CFA00BF64FBBE3E10B500F0F5F80CBFAC
:105730000120002010BD10B500F0EEF814BF0120CC
:10574000002010BD10B500F04FF98CBF01200020E3
:1057500010BD10B500F048F92CBF0120002010BD8D
:1057600010B500F075F994BF0120002010BD10B5F0
:1057700000F06EF934BF0120002010BD401058BF6A
:10578000C0F14040491058BFC1F140418142EFF3A0
:10579000008070474FF47F0C1CEAD0121EBF1CEA39
:1057A000D11392EA0C0F93EA0C0F00F0858090EA77
:1057B000010F48BF42F4807240F4000C41F4000035
:1057C0002CF07F4120F07F4000B5A2EB0302814224
:1057D0000FF2081CACEB504E9EF800E0C0F1000048
:1057E0004FEA4E0E00FB0EFC38BF49004FEA2C1C5E
:1057F0000CFB0EF34FEACE1E0EEB635E4FEA112C4C
:105800000EFB0CFC4FEAC1214FEA1C5300FB0311B5
:1058100002F5FA024FEA112C0EFB0CFC4FEA0131A3
:105820004FEADC4C00FB0C1142EB2242C14228BF84
:1058300009184CEB03335DF804EB10EB410143EB2B
:10584000C250B2F57C0F38BF704729D512F0F00F67
:105850001CBF00F1C04000F000407047008182830F
:105860008485868788898B8C8D8E8F91929395966F
:1058700097999A9C9D9FA0A2A3A5A7A8AAACAEB0F9
:10588000B2B3B5B7B9BCBEC0C2C5C7C9CCCED1D4FE
:10589000D7D9DCDFE2E6E9ECF0F3F7FAFE0000002E
:1058A0004FEA400C0CF1807CBCF17E4F28BF704762
:1058B000B0F1C04000F0C7B90CEAD11390EA010F73
:1058C00048BF42F48072624538BF634507D213F483
:1058D0007F0F16D080EA010000F00040704710B53D
:1058E00000F06BF9097EFC3E00F005B880EA01008B
:1058F00000F00040704780EA010000F0004000F036
:10590000A2B912F47F0F04BF0248704780EA010079
:1059100000F099B90000C07F50EA010C00F113803B
:105920001CF5000F58BFBCF5000F01D4884270472A
:1059300007D710F5000F58BF11F5000F15D4884296
:105940007047894270471CF5000F04D5BCF5000F65
:10595000F7D5814270474FF0807C1CEB400F38BF79
:105960001CEB410F01D28142704710B500F025F9C0
:10597000922449004FF000504FF08051FFF7FEBED7
:1059800041000B0ED3F19E0208D950F400034FEAF8
:10599000032323FA02F048BF4042704710B500F0DD
:1059A0000CF900BF49922480002070476FF000423C
:1059B00082EA20007047000010F0004148BF4042DA
:1059C000B0FA80F310FA03F2C3F19D030BD051EA51
:1059D000C35101EB1220530638BF704700F101009C
:1059E00008BF20F00100704750EA010C00F113805D
:1059F0001CF5000F58BFBCF5000F01D4884270475A
:105A000007D710F5000F58BF11F5000F15D48842C5
:105A10007047894270471CF5000F04D5BCF5000F94
:105A2000F7D5814270474FF0807C1CEB400F38BFA8
:105A30001CEB410F01D28142704710B500F0BDF858
:105A4000922449004FF080504FF00051FFF796BE6E
:105A500050EA010C00F113801CF5000F58BFBCF593
:105A6000000F01D48842704707D710F5000F58BFC8
:105A700011F5000F15D488427047894270471CF514
:105A8000000F04D5BCF5000FF7D5814270474FF0E9
:105A9000807C1CEB400F38BF1CEB410F01D28142D0
:105AA000704710B500F089F8922449004FF000507B
:105AB0004FF08051FFF762BE4FF47F0C1CEAD0120A
:105AC0001EBF1CEAD11392EA0C0F93EA0C0F00F0F0
:105AD000478090EA010F48BF42F480724FF0004CBB
